:020000040810E2
:1000000000800410D5301008250B1008270B1008AD
:10001000290B10082B0B10082D0B100800000000F6
:100020000000000000000000000000002F0B10087E
:10003000310B100800000000330B1008350B1008BE
:1000400029311008293110082931100829311008E8
:1000500029311008293110082931100829311008D8
:1000600029311008293110082931100829311008C8
:1000700029311008293110082931100829311008B8
:1000800029311008293110082931100829311008A8
:100090002931100829311008293110082931100898
:1000A0002931100829311008293110082931100888
:1000B0002931100829311008293110082931100878
:1000C0002931100829311008293110082931100868
:1000D0002931100829311008293110082931100858
:1000E00029311008293110080000000029311008BA
:1000F0002931100829311008293110082931100838
:100100002931100829311008293110082931100827
:100110002931100829311008293110082931100817
:100120002931100829311008293110082931100807
:1001300029311008293110082931100829311008F7
:1001400029311008293110080000000000000000CB
:1001500029311008293110082931100829311008D7
:1001600029311008293110082931100829311008C7
:1001700029311008293110082931100829311008B7
:1001800029311008293110082931100829311008A7
:100190002931100829311008293110082931100897
:1001A0002931100829311008293110082931100887
:1001B0002931100829311008293110082931100877
:1001C0002931100829311008293110082931100867
:1001D0002931100829311008293110082931100857
:1001E0002931100829311008293110082931100847
:1001F0002931100829311008293110082931100837
:100200002931100829311008293110082931100826
:100210002931100829311008293110082931100816
:100220002931100829311008293110080000000078
:1002300029311008293110082931100829311008F6
:1002400029311008293110082931100829311008E6
:1002500029311008293110082931100829311008D6
:1002600029311008293110082931100829311008C6
:1002700029311008293110082931100829311008B6
:100280002931100829311008293110080000000018
:08029000293110082931100882
:1002A00001F0FF01102A2BDB10F0070F08D010F827
:1002B000013B013A8B422DD010F0070F42B3F6D12B
:1002C000F0B441EA012141EA014122F007047FF044
:1002D00000070023F0E80256083C85EA010586EA9B
:1002E000010685FA47F5A3FA87F586FA47F6A5FAD7
:1002F00087F68EB9EED1F0BC01F0FF0102F00702E3
:1003000032B110F8013B013A83EA010313B1F8D18D
:100310000020704701387047002D06BF354603386E
:10032000073815F0010F07D1013015F4807F02BFA7
:10033000013015F4C03F0130F0BC0138704700BFF8
:1003400053B94AB9002908BF00281CBF4FF0FF313C
:100350004FF0FF3000F00CB8ADF1080C6DE904CEA1
:1003600003F010FEDDF804E0DDE9022304B070477D
:10037000704700BF0348044B834202D0034B03B1D4
:10038000184770476C0000106C000010000000005F
:100390000548064B1B1AD90F01EBA301491002D0E7
:1003A000034B03B1184770476C0000106C0000103D
:1003B0000000000010B5064C237843B9FFF7DAFFC0
:1003C000044B13B10448AFF300800123237010BD28
:1003D0006C000010000000007C42100808B5054BBE
:1003E0001BB105490548AFF30080BDE80840FFF7A1
:1003F000CFBF00BF00000000700000107C4210085A
:100400002DE9F04389B003AD0024039404940594CE
:1004100006940794274BD3F8E02042F00802C3F873
:10042000E020D3F8E02002F008020192019AD3F80C
:10043000E02042F00202C3F8E020D3F8E03003F0FD
:1004400002030293029BDFF8748022460221404699
:1004500001F001FF184F224644F20101384601F035
:10046000FAFE0126039604944FF00209CDF8149089
:100470002946404601F0D8FDCDF80C90049605942D
:1004800006942946404601F0CFFD03960496059454
:1004900006942946384601F0C7FD4FF48043039384
:1004A0000496059406942946384601F0BDFD09B02E
:1004B000BDE8F0830044025800040258000C0258C2
:1004C00082B072B610E0009B01330093009A0C4B8F
:1004D0009A42F8DD0B4B4FF080429A610023019362
:1004E000019A074B9A4206DD064B4FF480429A610F
:1004F00000230093EAE7019B01330193F0E700BF7B
:100500001FA107000004025800B59DB04C22002135
:1005100009A802F025FF2022002101A802F020FFF7
:10052000042001F0B7FE00230093284BDA6A22F082
:100530000102DA62DB6A03F001030093244A936943
:1005400023F4404343F400439361936903F440432D
:100550000093009B1E4B9B6913F4005FFAD00223AB
:10056000099301220C9240220D92129300221392C1
:10057000042114911C2115911693052117911893AC
:100580000C2319931A924FF480631B9309A800F06F
:1005900059FDB8B93F23019303230293002303932A
:1005A000049340230593502206924FF480620792F1
:1005B000089304210DEB010001F098F920B91DB05A
:1005C0005DF804FBFFF77CFFFFF77AFF000400589B
:1005D0000048025800B589B01D4BD3F8E82042F01E
:1005E0000102C3F8E820D3F8E83003F001030093D8
:1005F000009B0023049305930693079301930293B2
:10060000039314484FF080420260436083604FF0D0
:10061000FF32C2600361836100F0EAFB90B94FF4DE
:100620008053049304A90B4800F020FC60B9002318
:100630000193039301A9074800F0B4FC30B909B055
:100640005DF804FBFFF73CFFFFF73AFFFFF738FFC9
:10065000004402581C01001008B51548154B0360F2
:100660004FF4E133436000238360C36003610C22D5
:1006700042618361C36103624362836202F097FC5B
:1006800070B900210A4801F09CFF58B900210848C0
:1006900001F0BCFF40B9064801F074FF30B908BD55
:1006A000FFF70EFFFFF70CFFFFF70AFFFFF708FF4A
:1006B00088000010004C0040F0B585B0B84AD2F870
:1006C000E03043F00203C2F8E0300023009302E080
:1006D000009B01330093009A42F20F739A42F7DDB8
:1006E000B04B1A6822F003021A601A6842F0010245
:1006F0001A601A6822F040521A601A6842F080525A
:100700001A60002118E0019B01330193019AA64B66
:100710009A42F8DDA34B4FF480329A614FF0804249
:100720009A610023029302E0029B01330293029A32
:100730009D4B9A42F8DD0131012908DC994B0122D9
:100740009A614FF480429A6100230193DEE701F041
:100750007BFEFFF7D9FE954B4FF001629A60FFF7E1
:100760004FFEFFF737FFFFF777FF8D4CD4F8E030EF
:1007700043F00073C4F8E030D4F8E03003F00073C5
:100780000393039B01F01AFAE36913F0400F00D0C2
:100790004000874BA3FB00239B0C864A904200D964
:1007A000013B854D2A68936200245462012128464A
:1007B00000F086FA284600F041FA0CE0794D01235A
:1007C000AB61C82001F09EFE4FF48033AB61C820BE
:1007D00001F098FE0134012CF0DD4FF4FA7001F0C5
:1007E00091FE704C4FF48043A3614FF47A7001F096
:1007F00089FE4FF08043A3614FF4FA7001F082FE4E
:1008000001F07AFE064618E06C4D012202212846CE
:1008100001F021FD634C0123A3614FF4FA7001F054
:1008200071FE00220221284601F015FD4FF48033AD
:10083000A3614FF4FA7001F065FE01F05DFE801BCC
:1008400041F287339842DFD94FF47A7001F05AFEB3
:1008500000240FE0534D4FF48043AB614FF4FA7026
:1008600001F050FE4FF08043AB614FF4FA7001F09D
:1008700049FE0134012CEDDD4FF4FA7001F042FE27
:1008800001F03AFE044608E0464B01229A614FF01F
:1008900080429A61322001F035FE01F02DFE001BEE
:1008A00041F2873398420DD80121444801F0CCFC35
:1008B0000128E9D03B4B4FF480329A614FF48042DB
:1008C0009A61E7E7374B4FF480329A614FF08042EC
:1008D0009A6141F2883001F015FE0024022C10DCF0
:1008E000304D4FF48043AB614FF4FA7001F00AFED3
:1008F0004FF08043AB614FF4FA7001F003FE013416
:10090000ECE74FF4FA7001F0FDFD00252C462E4671
:1009100015E00121294801F097FC074601284FD036
:10092000204F4FF48043BB614FF4967001F0EAFD15
:100930004FF08043BB61C82001F0E4FD0135092D73
:100940005FDC002202211D4801F085FC1A4B1A6869
:1009500000235362536A012BFCD90122022117485C
:1009600001F079FC144B1A6800235362536A092B77
:10097000FCD900220221114801F06DFC0E4B1B68CE
:100980005F6A01210D4801F05FFC0028C1D10A4BCC
:100990001B685B6ADB1B47F230529342F1D9B8E720
:1009A0000044025800040258BFC62D0000ED00E0CC
:1009B00083DE1B433F420F001C010010000C025855
:1009C0004D4B1B685E6A01214C4801F03DFC01283B
:1009D00007D1494B1B685B6A9B1B46F290529342BE
:1009E000F1D9454B1B685C6AA41B454E0123B361DA
:1009F0004FF4967001F086FD4FF48033B3613E46AC
:100A000099E74FF47A7001F07DFD26B93C4B4FF425
:100A100080429A61FEE73A23B4FBF3F44FF060534F
:100A20001C6001255D60BFF34F8F284601F01AFC62
:100A30000021284601F026FC0CE001212F4801F09E
:100A400003FC01283DD04FF060531C6001225A6026
:100A5000BFF34F8F21462B4802F02CFC4FF4FA7065
:100A600001F050FD00220221244801F0F4FB224B4A
:100A70001A6800235362536A012BFCD90122022118
:100A80001E4801F0E8FB1C4B1A6800235362536AAE
:100A9000092BFCD900220221184801F0DCFB164B7F
:100AA0001B685D6A0121154801F0CEFB0028C4D106
:100AB000114B1B685B6A5B1B47F230529342F1D9C2
:100AC000BBE70D4B1B685C6A01210C4801F0BCFBC5
:100AD000012807D1084B1B685B6A1B1B46F290522A
:100AE0009342F1D9044B1B685B6A1C1B064BA3FBAA
:100AF00004346409A7E700BF1C010010000C025871
:100B0000000402589442100809CB3D8D10B51446DC
:100B10004FF47A7392B2024802F07CF9204610BD7D
:100B200088000010FEE7FEE7FEE7FEE7FEE77047FD
:100B30007047704708B501F0D3FC08BD82B0074B81
:100B4000D3F8F42042F00202C3F8F420D3F8F430D2
:100B500003F002030193019B02B070470044025866
:100B60000268194B9A4200D0704700B589B003A9BA
:100B7000002303934B608B60CB600B61134BD3F866
:100B8000E82042F40022C3F8E820D3F8E82002F479
:100B900000220192019AD3F8E02042F00102C3F84A
:100BA000E020D3F8E03003F001030293029B03231B
:100BB00003930223049308230793054801F034FAB2
:100BC00009B05DF804FB00BF004C0040004402582F
:100BD0000000025810B4036A046A24F0010404629D
:100BE000846924F0F00C4CEA021223F00A030B4350
:100BF000826103625DF8044B704710B4036A046AB3
:100C000024F010040462846924F4704C4CEA02322B
:100C100023F0A00343EA0113826103625DF8044BF1
:100C2000704700008268034B13400B4343F00703F7
:100C3000836070478FFFCFFF7047000090F83D3012
:100C4000012B35D1022380F83D3003681A4AB3F1F5
:100C5000804F18BF93421DD0A2F57C42934219D019
:100C600002F58062934215D002F58062934211D062
:100C700002F5784293420DD0A2F56C42934209D01E
:100C800002F59432934205D01A6842F001021A60CC
:100C9000002070479968094A0A40062A18BFB2F531
:100CA000803F07D01A6842F001021A6000207047A6
:100CB000012070470020704700000140070001003C
:100CC00090F83C30012B0ED0012380F83C300222FA
:100CD00080F83D200268516180F83D30002380F8A3
:100CE0003C301846704702207047000070B403681B
:100CF000394A904214BF00220122B0F1804F14BF44
:100D0000144642F00104ACB9344DA84214BF00258A
:100D10000125334EB0420DD065B905F1804505F58A
:100D20008235A84214BF0025012506F50066B042B1
:100D300000D01DB123F070034D682B4314BB274C2A
:100D4000A04214BF00240124254DA8421AD0CCB9DA
:100D500004F1804404F58234A04214BF002401242D
:100D600005F50065A8420DD064B91E4CA04214BF21
:100D70000024012405F59A35A84203D014B91A4C71
:100D8000A04203D123F44073CC68234323F08003B3
:100D90004C6923438C68C4620C688462134CA04283
:100DA00008BF42F0010262B90E4A904214BF00220D
:100DB000012204F57054A04203D012B90A4A9042AD
:100DC00001D10A690263026842F004020260012252
:100DD0004261036070BC70470000014000080040A1
:100DE000000400400044014000480140000401406C
:100DF00060B310B5044690F83D3013B3022384F875
:100E00003D30214651F8040BFFF770FF012384F8B1
:100E1000483084F83E3084F83F3084F8403084F81D
:100E2000413084F8423084F8433084F8443084F808
:100E3000453084F8463084F8473084F83D3000204F
:100E400010BD80F83C30FFF7F7FED7E70120704770
:100E500010B4846824F47F4C42EA03220A4342EA35
:100E60000C0282605DF8044B7047000090F83C3043
:100E7000012B00F08F8010B50446012380F83C3030
:100E8000022380F83D3002689068434B0340936032
:100E90000B68702B55D031D8502B6CD01FD8402BFD
:100EA0000AD1CA6849682068FFF794FE402120688B
:100EB000FFF7B8FE002029E068D8202B03D00AD81D
:100EC0000BB1102B05D119462068FFF7ABFE0020AF
:100ED0001CE001201AE0302BF5D0012016E0602B39
:100EE0000AD1CA6849682068FFF787FE6021206838
:100EF000FFF798FE002009E0012007E0B3F5005F4E
:100F00002CD00AD8B3F5805F42D10020012384F8A9
:100F10003D30002384F83C3010BD204A9342D2D0AB
:100F200007D8B3F5801FCED0B3F1101FCBD001206E
:100F3000ECE71B4A9342C6D010329342C3D0012043
:100F4000E4E7CB684A6889682068FFF781FF226878
:100F5000936843F0770393600020D7E7CB684A6833
:100F600089682068FFF774FF2268936843F4804320
:100F700093600020CAE7CA6849682068FFF72AFE24
:100F800050212068FFF74EFE0020BFE70120BDE79B
:100F90000120BBE7022070478800CEFF2000100030
:100FA0003000100090F83C20012A45D070B4034670
:100FB000012280F83C20022280F83D20026850681F
:100FC00094681E4E1E4DAA4218BFB24203D120F4AF
:100FD00070004D68284320F070000D682843506071
:100FE0001A681648B2F1804F18BF824217D0A0F598
:100FF0007C40824213D000F5806082420FD000F521
:10100000806082420BD000F57840824207D0A0F584
:101010006C40824203D000F59430824204D124F027
:101020008004896821439160012283F83D200020DB
:1010300083F83C0070BC70470220704700000140FC
:1010400000040140002800F0398338B504460368E5
:1010500013F0010F25D0944A136903F03803926A04
:10106000102B15D0182B0FD06368B3F5803F3FD0FD
:10107000002B53D18C4B1A6822F480321A601A6804
:1010800022F480221A6038E002F00302022AEBD137
:10109000854B1B6813F4003F03D06368002B00F0FE
:1010A0000F83236813F0020F00F0A1807E4A1369BA
:1010B000926A13F038035AD0182B55D0E368002BEE
:1010C00000F0DE8078490A6822F0190213430B60B1
:1010D00001F012FA0546744B1B6813F0040F40F040
:1010E000AD8001F009FA401B0228F4D90320EEE29A
:1010F0006D4A136843F48033136063682BB301F0C7
:10110000FBF90546684B1B6813F4003FC9D101F099
:10111000F3F9401B6428F5D90320D8E2B3F5A02FDA
:1011200009D0614B1A6822F480321A601A6822F4DE
:1011300080221A60E1E75C4B1A6842F480221A6050
:101140001A6842F480321A60D7E701F0D5F90546F3
:10115000554B1B6813F4003FA3D001F0CDF9401BA1
:101160006428F5D90320B2E212F0030FA6D14E4B4A
:101170001B6813F0040F03D0E368002B00F0A28279
:10118000494A136823F01903E1680B43136001F027
:10119000B3F90546444B1B6813F0040F06D101F068
:1011A000ABF9401B0228F5D9032090E201F0BEF90B
:1011B00041F20303984212D82269402A07D03A49E3
:1011C0004B6823F47C3343EA02334B600FE0364A2A
:1011D000536823F47C3343F40033536007E0324A0E
:1011E000536823F0FE43216943EA01635360236897
:1011F00013F0100F00F088802B4A136903F03803B6
:10120000926A082B56D0182B50D0E369002B00F0BF
:10121000B880254A136843F08003136001F06CF92D
:101220000546214B1B6813F4807F40F0888001F055
:1012300063F9401B0228F4D9032048E201F076F953
:1012400041F20303984212D82269402A07D0164976
:101250004B6823F47C3343EA02334B60C7E7124AFE
:10126000536823F47C3343F400335360BFE70E4AE2
:10127000536823F0FE43216943EA01635360B6E7F4
:10128000094A136823F00103136001F035F905469C
:10129000054B1B6813F0040FA9D001F02DF9401B7A
:1012A0000228F5D9032012E20044025802F003029A
:1012B000012AAAD1A14B1B6813F4807F03D0E369F4
:1012C000802B40F0018201F031F941F20303984292
:1012D00012D8226A202A07D098494B6823F0F84395
:1012E00043EA82634B600FE0944A536823F0F8436B
:1012F00043F08043536007E0904AD36823F07C5367
:10130000216A43EA0163D360236813F0080F60D0B9
:101310006369002B49D0894A536F43F00103536737
:1013200001F0EAF80546854B5B6F13F0020F50D1D0
:1013300001F0E2F8401B0228F5D90320C7E101F0D3
:10134000F5F841F20303984212D8226A202A07D006
:101350007A494B6823F0F84343EA82634B60D3E752
:10136000764A536823F0F84343F080435360CBE759
:10137000724AD36823F07C53216A43EA0163D36045
:10138000C2E76E4A136823F08003136001F0B4F8DB
:1013900005466A4B1B6813F4807FB5D001F0ACF8AA
:1013A000401B0228F5D9032091E1644A536F23F0D2
:1013B0000103536701F0A0F80546604B5B6F13F023
:1013C000020F06D001F098F8401B0228F5D903203F
:1013D0007DE1236813F0200F29D0A3699BB1574A00
:1013E000136843F48053136001F086F80546534BAD
:1013F0001B6813F4005F1AD101F07EF8401B02282D
:10140000F5D9032063E14D4A136823F48053136038
:1014100001F072F80546494B1B6813F4005F06D0D3
:1014200001F06AF8401B0228F5D903204FE1236838
:1014300013F0040F21D1636A002B00F047813F4A6B
:10144000126902F03802182A00F0EE80022B79D0DF
:101450003A4A136823F08073136001F04DF8044694
:10146000364B1B6813F0007F00F0DC8001F044F87D
:10147000001B0228F4D9032029E1314A136843F400
:101480008073136001F038F805462D4B1B6813F488
:10149000807F06D101F030F8401B6428F5D9032085
:1014A00015E1A368012B0AD00BBB244B1A6F22F065
:1014B00001021A671A6F22F004021A6704E01F4A39
:1014C000136F43F001031367A36833B301F014F8FB
:1014D00005461A4B1B6F13F0020FACD101F00CF84C
:1014E000401B41F288339842F3D90320EFE0052BEB
:1014F00009D0124B1A6F22F001021A671A6F22F0FC
:1015000004021A67E0E70D4B1A6F42F004021A67F3
:101510001A6F42F001021A67D6E700F0EDFF0546A8
:10152000064B1B6F13F0020F85D000F0E5FF401B48
:1015300041F288339842F3D90320C8E000440258AE
:1015400000480258694A136823F08073136000F062
:10155000D3FF0546654B1B6813F0007F06D000F0F3
:10156000CBFF401B0228F5D90320B0E05F4B996AFE
:101570005F4A0A40A16AE06A41EA00110A439A629E
:10158000226B013AC2F30802616B0139490289B248
:101590000A43A16B0139090401F4FE010A43E16B1E
:1015A0000139090601F0FE410A431A63DA6A22F0A2
:1015B0000102DA625A6B6FF3CF02A16C42EAC102F8
:1015C0005A63DA6A22F00C02216C0A43DA62DA6AA0
:1015D00022F00202616C0A43DA62DA6A42F4803273
:1015E000DA62DA6A42F40032DA62DA6A42F48022BB
:1015F000DA62DA6A42F00102DA621A6842F0807254
:101600001A6000F079FF0446384B1B6813F0007F26
:1016100006D100F071FF001B0228F5D9032056E027
:10162000002054E0002052E0304A916A106B012BF8
:101630004ED001F00303A26A93424BD1C1F30511CE
:10164000E36A994248D1C0F30802236B013B9A42F6
:1016500044D1C0F34622636B013B9A4240D1C0F3B0
:101660000642A36B013B9A423CD1C0F30660E36B98
:10167000013B984238D11D4B5B6BC3F3CC03A26C8A
:101680009A4201D1002022E0184AD36A23F00103D4
:10169000D36200F031FF054600F02EFFA842FBD0D8
:1016A000124A536B6FF3CF03A16C43EAC103536338
:1016B000D36A43F00103D362002008E001207047A1
:1016C000012004E0012002E0012000E0002038BDFC
:1016D0000120FCE70120FAE70120F8E70120F6E706
:1016E0000120F4E70120F2E70120F0E7004402586E
:1016F0000CFCFFFF754B1B6903F03803102B00F047
:10170000DE80182B0FD0002B40F0DB806F4B1B6866
:1017100013F0200F00F0D7806C4B1B68C3F3C1039C
:101720006B48D840704710B4684B9A6A02F00302C5
:101730009C6AC4F30510D96A01F001015B6BC3F325
:10174000CC0301FB03F307EE903AF8EE677A14F44A
:101750007C7F77D0012A4AD0022A76D0002A40F036
:1017600091805A4B1B6813F0200F23D057490A6809
:10177000C2F3C102564BD34007EE103AF8EE476A67
:1017800007EE100AB8EE476A86EE867A0B6BC3F353
:10179000080306EE903AF8EE666A9FED4E6A67EE31
:1017A000867A76EEA77AF7EE006A77EEA67A27EECB
:1017B000277A38E007EE100AF8EE476A9FED466A8E
:1017C00086EE267A414B1B6BC3F3080306EE903A74
:1017D000F8EE666A9FED3F6A67EE867A76EEA77A44
:1017E000F7EE006A77EEA67A27EE277A1BE007EE7F
:1017F000100AF8EE476A9FED396A86EE267A334B77
:101800001B6BC3F3080306EE903AF8EE666A9FED91
:10181000316A67EE867A76EEA77AF7EE006A77EE9F
:10182000A67A27EE277A294B1B6BC3F34623013395
:1018300007EE903AF8EE677AC7EE276AFCEEE67A92
:1018400017EE900A5DF8044B704707EE100AF8EEA9
:10185000476A9FED236A86EE267A1C4B1B6BC3F307
:10186000080306EE903AF8EE666A9FED1A6A67EE94
:10187000867A76EEA77AF7EE006A77EEA67A27EEFA
:10188000277AD0E707EE100AF8EE476A9FED136A51
:1018900086EE267A0D4B1B6BC3F3080306EE903AD7
:1018A000F8EE666A9FED0B6A67EE867A76EEA77AA7
:1018B000F7EE006A77EEA67A27EE277AB3E70948B3
:1018C0007047094870470248704700BF00440258FB
:1018D0000090D003000000390024744C0024744AA6
:1018E00020BCBE4B40787D0100093D00002800F07F
:1018F000318170B50D4604469A4B1B6803F00F0307
:101900008B420BD2974A136823F00F030B431360EB
:10191000136803F00F038B4240F01E81236813F01D
:10192000040F0CD02269904B9B6903F070039A421C
:1019300005D98D498B6923F070031A438A612368A6
:1019400013F0080F0CD06269874BDB6903F070035A
:101950009A4205D98449CB6923F070031A43CA61BE
:10196000236813F0100F0CD0A2697F4BDB6903F4DE
:10197000E0639A4205D97C49CB6923F4E0631A43BA
:10198000CA61236813F0200F0CD0E269764B1B6A02
:1019900003F070039A4205D973490B6A23F0700370
:1019A0001A430A62236813F0020F0CD0E2686E4BF0
:1019B0009B6903F00F039A4205D96B498B6923F0A9
:1019C0000F031A438A61236813F0010F41D0664A5E
:1019D000936923F47063A1680B4393616368022BDE
:1019E0000AD0032B27D0012B2CD05F4A126812F0AB
:1019F000040F06D10120ACE0126812F4003F00F0A1
:101A0000AD8059490A6922F0070213430B6100F0C7
:101A100073FD0646544B1B6903F038036268B3EB51
:101A2000C20F16D000F068FD801B41F28833984247
:101A3000F0D903208DE04C4A126812F0007FE0D10B
:101A4000012086E0484A126812F4807FD9D1012033
:101A50007FE0236813F0020F0CD0E268424B9B69D1
:101A600003F00F039A4205D23F498B6923F00F031D
:101A70001A438A613B4B1B6803F00F03AB420AD940
:101A8000384A136823F00F032B431360136803F0E5
:101A90000F03AB4264D1236813F0040F0CD022690A
:101AA000314B9B6903F070039A4205D22E498B6932
:101AB00023F070031A438A61236813F0080F0CD0D7
:101AC0006269294BDB6903F070039A4205D226490B
:101AD000CB6923F070031A43CA61236813F0100F17
:101AE0000CD0A269204BDB6903F4E0639A4205D273
:101AF0001D49CB6923F4E0631A43CA61236813F0DC
:101B0000200F0CD0E269184B1B6A03F070039A4255
:101B100005D215490B6A23F070031A430A62FFF7D6
:101B2000E9FD11498B69C3F30323104AD35C03F029
:101B30001F03D8408B6903F00F03D35C03F01F032E
:101B4000D8400B4B18600B4B18600B4B186800F01B
:101B500053FC70BD012070470120FAE70120F8E72F
:101B60000120F6E70020005200440258D842100835
:101B7000080000100C0000100400001008B5FFF76A
:101B8000B9FD0A498B69C3F30323094AD35C03F007
:101B90001F03D8408B6903F00F03D35C03F01F03CE
:101BA000D840044B1860044B186008BD004402582C
:101BB000D8421008080000100C00001008B5FFF70C
:101BC000DDFF054BDB69C3F30213044AD35C03F06A
:101BD0001F03D84008BD00BF00440258D842100877
:101BE00008B5FFF7CBFF054BDB69C3F30223044ABB
:101BF000D35C03F01F03D84008BD00BF0044025867
:101C0000D842100808B5FFF7B9FF054B1B6AC3F3AC
:101C10000213044AD35C03F01F03D84008BD00BF81
:101C200000440258D842100810B4794B9A6A9C6A52
:101C3000C4F3053CD96AC1F30011DB6BC3F3CC03D9
:101C400001FB03F314F47C3F00F0DD8002F003029B
:101C500007EE903AF8EE677A012A4BD0022A00F09C
:101C60009880002A40F0B280694B1B6813F0200F67
:101C700023D067490A68C2F3C102664BD34007EE1E
:101C8000103AF8EE476A07EE10CAB8EE476A86EED9
:101C9000867A8B6BC3F3080306EE903AF8EE666A19
:101CA0009FED5D6A67EE867A76EEA77AF7EE006AB8
:101CB00077EEA67A27EE277A38E007EE10CAF8EE1C
:101CC000476A9FED566A86EE267A514B9B6BC3F3AB
:101CD000080306EE903AF8EE666A9FED4F6A67EEEB
:101CE000867A76EEA77AF7EE006A77EEA67A27EE86
:101CF000277A1BE007EE10CAF8EE476A9FED486AA4
:101D000086EE267A424B9B6BC3F3080306EE903AAD
:101D1000F8EE666A9FED406A67EE867A76EEA77AFD
:101D2000F7EE006A77EEA67A27EE277A384A936BA9
:101D3000C3F3462307EE903AF8EE677AF7EE006AAF
:101D400077EEA67A87EE276ABCEEC66A80ED006A57
:101D5000936BC3F3064307EE903AF8EE677A77EE9B
:101D6000A67A87EE276ABCEEC66A80ED016A936B9D
:101D7000C3F3066307EE903AF8EE677A77EEA67A39
:101D8000C7EE276AFCEEE66AC0ED026A5DF8044B16
:101D9000704707EE10CAF8EE476A9FED226A86EE9A
:101DA000267A1B4B9B6BC3F3080306EE903AF8EEC2
:101DB000666A9FED196A67EE867A76EEA77AF7EE85
:101DC000006A77EEA67A27EE277AAFE707EE10CA09
:101DD000F8EE476A9FED126A86EE267A0C4B9B6BF3
:101DE000C3F3080306EE903AF8EE666A9FED0A6ABE
:101DF00067EE867A76EEA77AF7EE006A77EEA67A35
:101E000027EE277A92E70023036043608360BDE7F3
:101E1000004402580090D003000000390024744CA4
:101E20000024744A20BCBE4B10B4794B9A6A9C6A59
:101E3000C4F3055CD96AC1F300215B6CC3F3CC0326
:101E400001FB03F314F07C7F00F0DD8002F003025D
:101E500007EE903AF8EE677A012A4BD0022A00F09A
:101E60009880002A40F0B280694B1B6813F0200F65
:101E700023D067490A68C2F3C102664BD34007EE1C
:101E8000103AF8EE476A07EE10CAB8EE476A86EED7
:101E9000867A0B6CC3F3080306EE903AF8EE666A96
:101EA0009FED5D6A67EE867A76EEA77AF7EE006AB6
:101EB00077EEA67A27EE277A38E007EE10CAF8EE1A
:101EC000476A9FED566A86EE267A514B1B6CC3F328
:101ED000080306EE903AF8EE666A9FED4F6A67EEE9
:101EE000867A76EEA77AF7EE006A77EEA67A27EE84
:101EF000277A1BE007EE10CAF8EE476A9FED486AA2
:101F000086EE267A424B1B6CC3F3080306EE903A2A
:101F1000F8EE666A9FED406A67EE867A76EEA77AFB
:101F2000F7EE006A77EEA67A27EE277A384A136C26
:101F3000C3F3462307EE903AF8EE677AF7EE006AAD
:101F400077EEA67A87EE276ABCEEC66A80ED006A55
:101F5000136CC3F3064307EE903AF8EE677A77EE18
:101F6000A67A87EE276ABCEEC66A80ED016A136C1A
:101F7000C3F3066307EE903AF8EE677A77EEA67A37
:101F8000C7EE276AFCEEE66AC0ED026A5DF8044B14
:101F9000704707EE10CAF8EE476A9FED226A86EE98
:101FA000267A1B4B1B6CC3F3080306EE903AF8EE3F
:101FB000666A9FED196A67EE867A76EEA77AF7EE83
:101FC000006A77EEA67A27EE277AAFE707EE10CA07
:101FD000F8EE476A9FED126A86EE267A0C4B1B6C70
:101FE000C3F3080306EE903AF8EE666A9FED0A6ABC
:101FF00067EE867A76EEA77AF7EE006A77EEA67A33
:1020000027EE277A92E70023036043608360BDE7F1
:10201000004402580090D003000000390024744CA2
:102020000024744A20BCBE4BF0B583B000236BE0A3
:1020300085685E000324B44025EA0405CC68B440FA
:102040002C438460456825EA0C054C68C4F30014F1
:102050009C402C43446069E0DD08083550F8254079
:1020600003F0070C4FEA8C0C4FF00F0E0EFA0CFE2B
:1020700024EA0E0E0C6904FA0CF444EA0E0440F84B
:1020800025406BE0092400E0002404FA0EF42C4300
:102090000CF1020C694D45F82C404FF0B044256816
:1020A000D44325EA02064F6817F4801F01D042EAA4
:1020B00005064FF0B0452E606D6804EA05064F68CE
:1020C00017F4001F01D042EA05064FF0B0456E60DC
:1020D000D5F8C45004EA05064F6817F4003F01D054
:1020E00042EA05064FF0B045C5F8C460D5F8C050C7
:1020F0002C404E6816F4803F01D042EA05044FF0B0
:10210000B042C2F8C04001330A6832FA03F400F06A
:1021100092804FF0010C0CFA03FC1CEA0202F2D090
:102120004C6804F00304013C012C81D94C6804F094
:102130000304032C0CD0C4685D004FF0030C0CFAB0
:1021400005FC24EA0C0C8C68AC4044EA0C04C46026
:102150004C6804F00304022C3FF47EAF04684FEA9D
:10216000430E4FF0030C0CFA0EFC24EA0C0C4C68E6
:1021700004F0030404FA0EF444EA0C0404604C680E
:1021800014F4403FBFD02E4CD4F8F45045F0020573
:10219000C4F8F450D4F8F44004F002040194019C13
:1021A0004FEA930C0CF10205244C54F8255003F02F
:1021B000030E4FEA8E0E0F2404FA0EF425EA0405EE
:1021C000204CA0423FF460AF04F58064A04222D0CE
:1021D00004F58064A04220D004F58064A0421ED0A3
:1021E00004F58064A0421CD004F58064A0421AD09B
:1021F00004F58064A04218D004F58064A04216D093
:1022000004F58064A04214D004F58064A0423FF439
:1022100039AF0A2439E7012437E7022435E70324DC
:1022200033E7042431E705242FE706242DE70724AC
:102230002BE7082429E703B0F0BD00BF00040058D5
:1022400000440258000002580369194201D00120DD
:102250007047002070470AB18161704709048161AD
:10226000704700002030054B53F82020044B9A4261
:1022700001D0012070470020704700BF0064025861
:102280000001008041F48071014B43F82010704739
:102290000064025838B50446224BDB6803F007039C
:1022A000062B07D01F4BDB6803F03F03834236D079
:1022B000012038BD1B4AD36823F03F030343D3609A
:1022C00000F01AF90546174B5B6813F4005F07D15D
:1022D00000F012F9431BB3F57A7FF4D90120E8E747
:1022E0002E2C18BF1E2C08D02D2C14BF0023012328
:1022F0001D2C02D00BB90020DBE700F0FDF80446EE
:10230000084BDB6813F4803F07D100F0F5F8001BA1
:10231000B0F57A7FF4D90120CBE70020C9E700208F
:10232000C7E700BF00480258002804DB0901C9B212
:10233000044B1954704700F00F000901C9B2024B59
:102340001954704700E400E014ED00E000B500F01F
:102350000700C0F1070CBCF1040F28BF4FF0040CBC
:10236000031D062B0FD9C31E4FF0FF3E0EFA0CF0D3
:1023700021EA000199400EFA03FE22EA0E0241EA28
:1023800002005DF804FB0023EEE700000649CB687D
:1023900023F4E0631B041B0C000200F4E060034321
:1023A000024A1A43CA60704700ED00E00000FA05D7
:1023B00010B50446054BD868C0F30220FFF7C6FFEE
:1023C00001462046FFF7B0FF10BD00BF00ED00E062
:1023D0000138B0F1807F0BD24FF0E0235861054AFD
:1023E000F02182F823100020986107221A617047BB
:1023F0000120704700ED00E0104B1B780BB9012065
:10240000704710B504464FF47A70B0FBF3F30C4AF2
:102410001068B0FBF3F0FFF7DBFF68B90F2C01D9B0
:1024200001200AE0002221464FF0FF30FFF7C0FFF5
:10243000044B1C60002000E0012010BD00000010D3
:102440000C0000100400001010B582B01F4CD4F82E
:10245000D83043F48043C4F8D830D4F8D83003F4EB
:1024600080430193019B1A4AD2F800346FF313237F
:1024700043F40143C2F80034D2F8003443F00103BE
:10248000C2F800340320FFF781FFFFF733F9A36997
:10249000C3F303230F4AD35C03F01F03D840A3699F
:1024A00003F00F03D35C03F01F03D8400A4B1860FE
:1024B0000A4B18600020FFF79FFF18B10124204647
:1024C00002B010BD0446FEF739FBF8E7004402589D
:1024D00000400240D8421008080000100C00001014
:1024E000034B1B78034A11680B441360704700BF0D
:1024F0000000001068010010014B1868704700BF11
:102500006801001038B50446FFF7F6FF0546B4F140
:10251000FF3F02D0044B1B781C44FFF7EDFF401B2C
:10252000A042FAD338BD00BF00000010014B18686C
:10253000000C70470010005C436E2BB90123A0F81B
:102540006A30A0F86830704730B403689A68C2F304
:1025500042629968490F094D6B5C1B01084C615C34
:1025600093FBF1F3A0F86A30AB5C1B01A25C93FB18
:10257000F2F3A0F8683030BC704700BFB8421008D2
:10258000B042100890F88430012B18D0012380F855
:1025900084302423C0F8883003681A68196821F051
:1025A0000101196022F000520023436601680A60AD
:1025B0002022C0F8882080F8843018467047022016
:1025C000704738B590F88430012B1DD004460123A4
:1025D00080F884302423C0F8883003681D681A68A6
:1025E00022F001021A600268936823F060431943E5
:1025F0009160FFF7A1FF23681D602023C4F8883095
:10260000002084F8840038BD0220FCE738B590F83B
:102610008430012B1DD00446012380F8843024230C
:10262000C0F8883003681D681A6822F001021A6039
:102630000268936823F0606319439160FFF77CFFA1
:1026400023681D602023C4F88830002084F88400AB
:1026500038BD0220FCE70000026852E8003F23F486
:10266000907342E800310029F6D1026802F10803B4
:1026700053E8001F0D4B0B40083242E8003100299F
:10268000F3D1C36E012B06D02023C0F88C30002379
:10269000C36643677047026852E8003F23F01003A7
:1026A00042E800310029F6D1EEE700BFFEFFFFEF60
:1026B00070B586B0044683680269134342691343C8
:1026C000C269134301680868884A02401A430A60D5
:1026D0002268536823F44053E1680B435360A169B7
:1026E0002268834B9A4201D0236A19439068814B38
:1026F00003400B4393602268D36A23F00F03616A9F
:102700000B43D36223687C4A934221D07B4A934295
:1027100000F08C807A4A934200F0A280794A93427A
:1027200000F0B580784A934200F0C880774A93421F
:1027300000F0F480764A934200F01981754A934282
:1027400000F02C816A4A934200F03F8180223BE0F6
:10275000714A526D02F03802282A34D8DFE812F0AC
:1027600029003300330033003300330033003300DB
:102770004D013300330033003300330033003300A6
:102780002B003300330033003300330033003300B9
:102790002D003300330033003300330033003300A7
:1027A0002F00330033003300330033003300330095
:1027B0003100012208E0082206E0102204E0202275
:1027C00002E0402200E0802249498B4200F027814C
:1027D000E069B0F5004F00F0A781202A00F2FF81E8
:1027E000202A00F24982DFE812F016021C0247029A
:1027F00047021F02470247024702240247024702DC
:10280000470247024702470247022902470247029E
:102810004702470247024702470247024702470270
:102820004702470247024702470235023A4A526DC1
:1028300002F00702052A11D8DFE812F00600E100D5
:1028400008000A000C000E000022BDE70822BBE7CA
:102850001022B9E72022B7E74022B5E78022B3E78C
:102860002D4A526D02F00702052A0ED8DFE802F069
:1028700003C90507090B0022A6E70822A4E71022D6
:10288000A2E72022A0E740229EE780229CE7224A7E
:10289000526D02F00702052A0ED8DFE802F003B4F9
:1028A0000507090B00228FE708228DE710228BE72E
:1028B000202289E7402287E7802285E7164A526D69
:1028C00002F00702052A0ED8DFE802F0039F050791
:1028D000090B002278E7082276E7102274E720220D
:1028E00072E7402270E780226EE700BFF369FFCFF6
:1028F000000C0058FFF4FF1100100140004400409C
:1029000000480040004C00400050004000140140CE
:1029100000780040007C0040004402587D4A526D1F
:1029200002F03802282A20D8DFE802F0151F1F1F06
:102930001F1F1F1F711F1F1F1F1F1F1F171F1F1F5D
:102940001F1F1F1F191F1F1F1F1F1F1F1B1F1F1FA1
:102950001F1F1F1F1D00012236E7082234E7102227
:1029600032E7202230E740222EE780222CE7694A16
:10297000526D02F00702052A0ED8DFE802F0034A82
:102980000507090B00221FE708221DE710221BE79D
:10299000202219E7402217E7802215E75D4A526D91
:1029A00002F00702052A0ED8DFE802F0033505071A
:1029B000090B002208E7082206E7102204E720227C
:1029C00002E7402200E78022FEE602F50E32926D19
:1029D00002F00702052A0ED8DFE802F0031F050700
:1029E000090B0222F0E60822EEE61022ECE6202295
:1029F000EAE64022E8E68022E6E60422E4E6042253
:102A0000E2E60422E0E60422DEE60422DCE604221A
:102A1000DAE60422D8E60422D6E60422D4E6202A06
:102A200027D8022AC0F01A81023A1E2A00F2188121
:102A3000DFE812F0500016015600160116011601CB
:102A40005B0016011601160116011601160116018A
:102A50006000160116011601160116011601160175
:102A600016011601160116011601160116011601AE
:102A70006C00402A2CD14FF40040626A264B33F898
:102A80001220B0FBF2F3656805EB4501994200F2B4
:102A9000E980B3EB053F00F2E7800026334631467C
:102AA000FDF74EFC090241EA106100026B08C018F4
:102AB0002A46334641F10001FDF742FCA0F5407281
:102AC000164B9A4200F2D2802368D8603046D4E098
:102AD0000120D2E0FFF796F80028CED10020CCE00C
:102AE00003A8FFF7A1F80498F6E76846FFF79CF9FA
:102AF0000198F1E7074B1B6813F0200F08D0054B36
:102B00001B68C3F3C1030648D840B6E70548B4E7DD
:102B10000348B2E700440258C0421008FFFC0F000F
:102B20000090D00300093D00202A15D8202A00F289
:102B30009F80DFE802F031379D9D3A9D9D9D3F9D2E
:102B40009D9D9D9D9D9D449D9D9D9D9D9D9D9D9D0E
:102B50009D9D9D9D9D9D5000402A1BD1626A4D4BBD
:102B600033F81230B0FBF3F06268530803EB400314
:102B7000B3FBF2F3A3F110014FF6EF72914279D853
:102B80009AB222F00F02C3F3420313432268D360C8
:102B9000002072E0012070E0FFF710F80028DDD17E
:102BA00000206AE0FFF71CF8F8E703A8FFF73CF8FD
:102BB0000498F3E76846FFF737F90198EEE7364BDC
:102BC0001B6813F0200F08D0334B1B68C3F3C103FD
:102BD0003248D840C2E73248C0E73048BEE7402A12
:102BE00017D14FF40040626A2A4B33F81230B0FB21
:102BF000F3F0636800EB5300B0FBF3F0A0F11002B8
:102C00004FF6EF739A4242D8236880B2D860002012
:102C100033E0012031E0FEF7D1FF0028E3D10020AE
:102C20002BE0FEF7DDFFF8E703A8FEF7FDFF0498B1
:102C3000F3E76846FFF7F8F80198EEE7164B1B68D4
:102C400013F0200F08D0144B1B68C3F3C1031348C3
:102C5000D840C8E71248C6E71048C4E701200CE096
:102C600001200AE0012008E0012006E0012004E044
:102C7000012002E0012000E001200123A4F86A30D5
:102C8000A4F8683000236367A36706B070BD012015
:102C9000F3E700BFC0421008004402580090D00380
:102CA00000093D00836A13F0080F06D002685368DC
:102CB00023F40043816B0B435360836A13F0010FCD
:102CC00006D00268536823F40033C16A0B43536093
:102CD000836A13F0020F06D00268536823F480332E
:102CE000016B0B435360836A13F0040F06D0026834
:102CF000536823F48023416B0B435360836A13F0C2
:102D0000100F06D00268936823F48053C16B0B4305
:102D10009360836A13F0200F06D00268936823F44F
:102D20000053016C0B439360836A13F0400F0AD089
:102D30000268536823F48013416C0B435360436C67
:102D4000B3F5801F0BD0836A13F0800F06D00268A2
:102D5000536823F40023C16C0B435360704702682F
:102D6000536823F4C003816C0B435360EBE72DE9F8
:102D7000F84305460E4617469946DDF820802B6835
:102D8000DC6936EA04040CBF01240024BC423AD1B9
:102D9000B8F1FF3FF3D0FFF7AFFBA0EB09004045D0
:102DA00034D8B8F1000F33D02B681A6812F0040F32
:102DB000E5D0B6F1400218BF0122802EDFD0002AF4
:102DC000DDD0DA6912F0080F11D1DA6912F4006F60
:102DD000D5D04FF400621A622846FFF73DFC20234D
:102DE000C5F89030002385F8843003200CE00824D7
:102DF0001C622846FFF730FCC5F89040002385F898
:102E00008430012000E00020BDE8F8830320FBE7C8
:102E10000320F9E72DE9F04182B01E46D0F8883052
:102E2000202B5BD104460D469046002A18BF00298E
:102E300001D1012053E00023C0F890302123C0F8D5
:102E40008830FFF759FB0746A4F85480A4F8568051
:102E5000A368B3F5805F02D04FF0000816E0236945
:102E600043B34FF0000811E02023C4F8883003205A
:102E700035E038F8023B2268C3F308039362B4F8E4
:102E8000562092B2013A92B2A4F85620B4F85630C5
:102E90009BB293B100963B46002280212046FFF76B
:102EA00066FF0028E0D1002DE3D015F8012B236840
:102EB0009A62E4E7A8460025E8E700963B46002230
:102EC00040212046FFF753FF18B92023C4F888306B
:102ED00005E02023C4F88830032000E0022002B07F
:102EE000BDE8F08130B583B004460023C0F89030CF
:102EF000FFF702FB05462268126812F0080F10D196
:102F000023681B6813F0040F28D12023C4F88830ED
:102F1000C4F88C300020E066206784F8840003B099
:102F200030BD6FF07E430093034600224FF4001142
:102F30002046FFF71CFF0028E2D0226852E8003F3D
:102F400023F0800342E800310029F6D12023C4F8A1
:102F50008830002384F884300320E0E76FF07E435C
:102F600000932B4600224FF480012046FFF7FFFE1E
:102F70000028CAD0226852E8003F23F4907342E848
:102F800000310029F6D1226802F1080353E8003F1E
:102F900023F00103083242E800310029F3D1202355
:102FA000C4F88C30002384F884300320B7E778B36A
:102FB00010B50446D0F888300BB32423C4F8883009
:102FC0002268136823F001031360A36AE3B9204663
:102FD000FFF76EFB012811D02268536823F4904359
:102FE00053602268936823F02A0393602268136871
:102FF00043F0010313602046FFF774FF10BD80F813
:103000008430FDF7ADFDD8E72046FFF74BFEDEE745
:1030100001207047074BD3F8882042F47002C3F8B0
:1030200088201A6942F010021A614FF001629A601A
:10303000704700BF00ED00E0054AD36823F00203AB
:10304000D360034B5B6813F4005FFAD0704700BF96
:103050000048025810B503460C4A0D490D48006857
:1030600040B10C4800680344521A934206D8094AFA
:10307000136010BD0748084C0460F2E700F0BEF989
:103080000C2303604FF0FF30F3E700BF0080041013
:10309000000400006C010010C002001070B50C4666
:1030A0001646002506E0AFF30080214601F8010B2B
:1030B00001350C46B542F6DB304670BD4FF0FF30AF
:1030C00070474FF400534B60002070470120704759
:1030D00000207047DFF838D0FFF7AEFFFFF79AFF08
:1030E0000C480D490D4A002302E0D458C450043363
:1030F000C4188C42F9D30A4A0A4C002301E0136039
:103100000432A242FBD300F07FF9FDF7D5FA7047F5
:1031100000800410000000106C0000102C43100808
:103120006C000010BC020010FEE70000002310B588
:103130000446C0E90033C0E90433836081814366FB
:10314000C2818361194608225C3000F009F90D4BF9
:1031500063620D4BA3620D4BE3620D4B23630D4B7A
:1031600024629C4206D003F16802944202D0D0331C
:103170009C4205D104F15800BDE8104000F068B948
:1031800010BD00BFD9321008FB32100833331008CD
:103190005933100870010010024A0349034800F037
:1031A0006BB800BF10000010F13C100820000010A8
:1031B00041680C4B994210B5044601D000F098FDCF
:1031C000A168094B994202D0204600F091FDE168C8
:1031D000064B994204D02046BDE8104000F088BD5F
:1031E00010BD00BF70010010D80100104002001097
:1031F0000C4B0D4A0D4810B504211A600022FFF750
:1032000095FF0A4B01221C46092103F16800FFF7D4
:103210008DFF04F1D0000222BDE810401221FFF71B
:1032200085BF00BFA802001099311008700100107E
:10323000014800F00EB900BFB1020010014800F0D3
:1032400009B900BFB102001010B50446FFF7F0FF46
:10325000236A1BB1BDE81040FFF7F0BF044B2362A7
:10326000044B1B68002BF5D1FFF7C2FFF2E700BF4C
:10327000B1311008A80200102DE9F843074688462E
:1032800014460026D4E90195B9F1010905D5246851
:10329000002CF7D13046BDE8F883AB89012B07D964
:1032A000B5F90E30013303D029463846C0470643EE
:1032B0006835E9E70FB407B5064904AB086853F869
:1032C000042B8168019300F0E9F903B05DF804EB89
:1032D00004B070471C00001010B50C46B1F90E1078
:1032E00000F068F80028ABBF636DA3891B1823F4B6
:1032F0008053ACBF6365A38110BD2DE9F0411F462B
:103300008B89DB0505460C46164605D5B1F90E102E
:103310000223002200F03CF8A389B4F90E1023F434
:103320008053A38132463B462846BDE8F04100F079
:1033300053B810B50C46B1F90E1000F029F8B4F9E5
:103340000C30421C0BBF23F4805343F48053A38101
:10335000A38118BF606510BDB1F90E1000F008B868
:1033600002440346934200D1704703F8011BF9E77A
:1033700038B5064D0023044608462B60FFF79EFE35
:10338000431C02D12B6803B1236038BDAC0200108E
:1033900038B5074D04460846114600222A601A46F1
:1033A000FFF796FE431C02D12B6803B1236038BDA2
:1033B000AC02001038B5074D0446084611460022FD
:1033C0002A601A46FFF76AFE431C02D12B6803B13C
:1033D000236038BDAC02001038B5074D04460846DE
:1033E000114600222A601A46FDF790FB431C02D1C9
:1033F0002B6803B1236038BDAC020010014B186884
:10340000704700BF1C00001070B50D4B0D4D5B1BCD
:103410009C100026A64209D100F030FF0A4D0B4B4C
:103420005B1B9C100026A64205D170BD55F8043BDD
:1034300098470136EEE755F8043B98470136F2E726
:10344000244310082443100824431008284310087C
:10345000704770477047000038B50546002941D0D5
:1034600051F8043C0C1F002BB8BFE41800F0E0F842
:103470001D4A136833B9636014602846BDE83840BC
:1034800000F0DCB8A34208D9206821188B4201BFA4
:1034900019685B6809182160EDE71A465B680BB193
:1034A000A342FAD911685018A0420BD120680144F8
:1034B000501883421160E0D118685B68536008447B
:1034C0001060DAE702D90C232B60D6E720682118B8
:1034D0008B4204BF19685B68636004BF09182160F0
:1034E0005460CAE738BD00BFB802001070B50F4E77
:1034F0000C463168054611B900F0B4FC3060214635
:10350000284600F0AFFC431C03D14FF0FF342046A7
:1035100070BDC41C24F00304A042F8D0211A284630
:1035200000F0A0FC0130F2D1EFE700BFB4020010C0
:103530002DE9F843CD1C25F0030508350C2D38BFC7
:103540000C25002D064601DBA94204D90C2333606B
:103550000020BDE8F883DFF8D48000F069F8D8F8DF
:1035600000301C4644BB29463046FFF7BFFF431CD2
:10357000044658D1D8F800402746002F43D1002CEC
:103580004BD023683946304604EB030900F06AFC4F
:10359000814542D121686D1A29463046FFF7A6FFC2
:1035A00001303AD023682B442360D8F800305A68A1
:1035B00062BBC8F800700FE02268521B20D40B2AAF
:1035C00017D96119A342256018BF5960636808BF05
:1035D000C8F8001062514B60304600F02FF804F13B
:1035E0000B00231D20F00700C21A1CBF1B1AA3509A
:1035F000AFE76268A3420CBFC8F800205A60EBE74F
:1036000023466468AEE73C467F68B6E71A465B68C7
:10361000A342FBD100235360DEE70C233360304626
:1036200000F00CF894E70560D6E700BFB802001080
:103630000148FFF70EBF00BFB00200100148FFF7BE
:1036400009BF00BFB00200109368013B002B10B40B
:10365000936008DA9469A34201DB0A2903D15DF87B
:10366000044B00F06DBB1368581C106019700846BD
:103670005DF8044B7047F8B506460F461446D5185A
:10368000AC4201D1002007E014F8011B3A46304655
:10369000FFF7DAFF431CF3D1F8BD00002DE9F04736
:1036A0000D469CB014461F46064618B1036A0BB976
:1036B000FFF7CAFD6B6ED90705D4AB899A0502D412
:1036C000A86DFFF7C6FEAB891B0701D52B699BB917
:1036D0002946304600F072FB70B16B6EDC0704D5F2
:1036E0004FF0FF301CB0BDE8F087AB899805F7D4E8
:1036F000A86DFFF7AFFEF3E70023099320238DF8B1
:103700002930039730236A4F8DF82A304FF0010893
:103710002346994613F8012B0AB1252AF9D1B9EBB2
:10372000040A0BD05346224629463046FFF7A3FF32
:10373000013000F0A480099A5244099299F80030AF
:10374000002B00F09C8000234FF0FF32CDE90523D1
:1037500009F10109049307938DF853301A934C46ED
:10376000534814F8011B0522FCF79AFD049BD0B9BD
:10377000D90644BF20228DF853201A0744BF2B22BC
:103780008DF8532099F800202A2A13D0079A4C4626
:1037900000204FF00A0C214611F8013B303B092B69
:1037A00049D968B913E0C01B08FA00F01843049027
:1037B000A146D4E7039A111D12680391002A01DB88
:1037C000079204E0524243F00203079204932378E5
:1037D0002E2B0AD163782A2B32D1039B1A1D1B682A
:1037E000039243EAE37302340593DFF8D49021781F
:1037F00003224846FCF754FD38B1049BA0EB0900B6
:103800004022824013430134049314F8011B2948D9
:103810008DF828100622FCF743FD00283ED02648EC
:1038200018BB039B073323F0070308330393099B5B
:10383000034409936CE70CFB02320C460120AAE713
:1038400000230134059319464FF00A0C204610F866
:10385000012B303A092A03D9002BC6D00591C4E7C1
:103860000CFB012104460123F0E703AB00932A4639
:10387000124B04A93046AFF30080431CD7D16B6EC6
:10388000D90705D4AB899A0502D4A86DFFF7E2FDEC
:10389000AB895B063FF524AF099823E703AB0093A0
:1038A0002A46064B04A9304600F07AF8E5E700BF47
:1038B000E8421008F24210080000000077361008B5
:1038C000EE4210082DE9F047164698468A680B69C3
:1038D000DDF820909342B8BF1346336091F843203F
:1038E00007460C460AB1013333602368990642BF8C
:1038F000336802333360256815F0060506D104F1FC
:10390000190AE36832689B1AAB4226DC94F843300C
:103910002268003B18BF012392062BD404F1430216
:1039200041463846C84701301ED02368226903F05B
:103930000603042B02BFE5683368ED1AA3680CBFC9
:1039400025EAE57500259342C4BF9B1AED180026B1
:103950001A34B5421AD1002008E0012352464146EC
:103960003846C847013003D14FF0FF30BDE8F0873B
:103970000135C6E7E1185A1C302081F84300224483
:1039800094F8451082F843100233C7E7012322461A
:1039900041463846C8470130E6D00136D9E7000035
:1039A0002DE9F0430D7E85B0782D90460C9E07469C
:1039B0000C46994601F1430207D8622D0AD8002D22
:1039C00000F0D780582D00F0BC8004F1420684F846
:1039D00042503BE0A5F16303152BF6D801A151F845
:1039E00023F000BF3D3A1008513A1008CB391008B7
:1039F000CB391008CB391008CB391008513A1008D0
:103A0000CB391008CB391008CB391008CB39100846
:103A1000593B10087B3A10080B3B1008CB391008B3
:103A2000CB3910087B3B1008CB3910087B3A1008C3
:103A3000CB391008CB391008133B100833681A1D16
:103A40001B68326004F1420684F842300123A1E091
:103A500033682068191D3160060601D51D6803E032
:103A60004506FBD5B3F90050002D03DA2D236D4236
:103A700084F843305B480A2311E021683368080664
:103A800053F8045B02D4490648BFADB23360237ECD
:103A900054486F2B5CD10823002184F843106668DA
:103AA000A660002E05DB21682E4321F00401216071
:103AB00050D01646B5FBF3F103FB115C10F80CC0B7
:103AC00006F801CDAC4663450D46F3D9082B0BD162
:103AD0002368DB0708D5236961689942DEBF30237C
:103AE00006F8013C06F1FF36921B2261CDF80090EA
:103AF000434603AA21463846FFF7E4FE01304ED183
:103B00004FF0FF3005B0BDE8F083236843F0200399
:103B100023603548782584F845502368316813F0D0
:103B2000800F51F8045B03D113F0400F18BFADB202
:103B30003160D90744BF43F0200323601DB1102337
:103B4000AAE72848E7E7236823F020032360F6E785
:103B50000A23A1E71646B9E7336825686169181D8D
:103B600030602E061B6801D5196002E06806FBD59F
:103B70001980002323611646B8E733681A1D3260A6
:103B80001E68626800213046FCF78AFB08B1801B82
:103B9000606063682361002384F84330A6E72369EB
:103BA000324641463846C8470130A9D023689B07B2
:103BB00013D4E068039B9842B8BF1846A2E70123DC
:103BC000324641463846C847013099D00135E3684E
:103BD00003995B1AAB42F2DCEBE7002504F119060E
:103BE000F5E700BFF94210080A431008B1F90C20AC
:103BF0002DE9F041160705460C4651D44B68002BC1
:103C000002DC0B6C002B49DDE66A002E46D0002357
:103C100012F480522F682B6031D0626DA38959074E
:103C200005D56368D21A636B0BB1236CD21A0023DB
:103C3000E66A216A2846B047421CB4F90C3006D126
:103C400029681D2946D8294ACA40D60742D50022EC
:103C50006260D9042269226004D5421C01D12B681C
:103C600003B96065616B2F60C1B104F144039942EF
:103C700002D02846FFF7F0FB002363630EE0216AC1
:103C800001232846B0470246501CC7D12B68002BA1
:103C9000C4D01D2B01D0162B1AD12F6000201EE09E
:103CA0000F69002FFAD093070E6808BF4B690F60A9
:103CB00018BF0023A6EB07088B60B8F1000FEDDDFD
:103CC000216AA66A43463A462846B047002808DCDF
:103CD000B4F90C3043F04003A3814FF0FF30BDE84E
:103CE000F0810744A8EB0008E7E700BF010040208F
:103CF00038B50B6905460C4613B90025284638BD72
:103D000018B1036A0BB9FFF79FFAB4F90C30002B16
:103D1000F3D0626ED00704D4990502D4A06DFFF7EA
:103D200098FB28462146FFF761FF636EDA070546D8
:103D3000E4D4A3899B05E1D4A06DFFF78BFBDDE7FD
:103D4000F8B50E461446054618B1036A0BB9FFF7DD
:103D50007BFAA369A360A3891A0701D5236943B934
:103D60002146284600F02AF818B14FF0FF373846B0
:103D7000F8BD23682269981A6369F6B28342374610
:103D800005DC21462846FFF7B3FF0028EDD1A368E4
:103D9000013BA36023685A1C22601E706269431CA9
:103DA0009A4204D0A389DB07E1D50A2EDFD1214650
:103DB0002846FFF79DFF0028D9D0D6E738B5284B15
:103DC000054618680C4618B1036A0BB9FFF73CFAB0
:103DD000B4F90C301A0721D4D80607D409222A6076
:103DE00043F04003A3814FF0FF3030E0590712D574
:103DF000616B41B104F14403994202D02846FFF7B8
:103E00002BFB002363630022B4F90C30626022694B
:103E1000226023F0240343F00803A38122693AB906
:103E20009A0501D5180603D52146284600F04EF81C
:103E3000B4F90C3013F001020AD00022A2606269CA
:103E40005242A261226942B913F08000C8D138BD44
:103E5000990758BF6269A260F4E70020F7E700BF46
:103E60001C00001038B5064D0023044608462B60A0
:103E7000FFF7F0F8431C02D12B6803B1236038BD73
:103E8000AC02001070B50C46B1F90E10002996B0C6
:103E900015461E460ADAA18911F0800113D14FF4AC
:103EA0008062002031602A6016B070BD6A4600F062
:103EB00047F80028EFDB019901F47041A1F50053A8
:103EC00059425941EBE700214022EAE78B8973B55B
:103ED0009E0705460C4607D504F14703236023617E
:103EE0000123636102B070BD01AB6A46FFF7CAFFF0
:103EF000009E28463146FFF71BFBB4F90C3038B959
:103F00009A05EFD423F0030343F00203A381E3E710
:103F100043F08003A381019B2060C4E90406002BC9
:103F2000E0D0B4F90E10284600F01CF80028D9D0D3
:103F3000A38923F0030343F00103A381D2E7000028
:103F400038B5074D00230446084611462B60FFF79D
:103F5000B8F8431C02D12B6803B1236038BD00BF01
:103F6000AC02001038B5064D0023044608462B600D
:103F7000FFF7ACF8431C02D12B6803B1236038BDB6
:103F8000AC0200102DE9F047089D0F4604468C4610
:103F9000002B48D18A42164661D9B2FA82F34BB15E
:103FA000C3F1200201FA03FC20FA02F29E4042EA29
:103FB0000C0C9C404FEA164EB7B2BCFBFEF1220C33
:103FC0000EFB11CC42EA0C4201FB07F0904209D9EA
:103FD000B21801F1FF3C80F0EE80904240F2EB809D
:103FE00002393244121AA4B2B2FBFEF00EFB1022C8
:103FF00044EA024400FB07F7A74209D9341900F14B
:10400000FF3280F0DA80A74240F2D7803444023891
:1040100040EA0140E41B00211DB1DC400023C5E95A
:104020000043BDE8F0878B4206D90DB1C5E9000118
:1040300000210846BDE8F087B3FA83F1002948D192
:10404000BB4202D3824200F20781841A67EB03026B
:1040500001209446002DE4D0C5E9004CE1E7002A98
:1040600000F09280B2FA82F3002B40F0A8808A1A06
:104070004FEA164E1FFA86FC0121200CB2FBFEF718
:104080000EFB172240EA02420CFB07F0904207D9D0
:10409000B21807F1FF3802D2904200F2E2804746A0
:1040A000121AA4B2B2FBFEF00EFB102244EA024444
:1040B0000CFB00FCA44507D9341900F1FF3202D2F1
:1040C000A44500F2CB801046A4EB0C0440EA074064
:1040D000A2E7C1F120068B4022FA06FC4CEA030C51
:1040E00007FA01F420FA06F3F7404FEA1C4923438C
:1040F00000FA01F81FFA8CFEB7FBF9F01C0C09FB63
:10410000107744EA074400FB0EF7A74202FA01F2D7
:104110000AD91CEB040400F1FF3A80F09B80A7420F
:1041200040F2988002386444E41B9FB2B4FBF9F378
:1041300009FB134447EA044403FB0EFEA64509D9D4
:104140001CEB040403F1FF3780F08280A6457FD981
:10415000023B644443EA0040A4EB0E04A0FB02E7E8
:10416000BC427346B94663D360D05DB1B8EB03027D
:1041700064EB090404FA06F622FA01F31E43CC406C
:10418000C5E9006400214CE76208480842EAC171B1
:104190000B0C43EA00438AB242EA0342B3FBF6F156
:1041A000E407B4463746B6461F23B0FBF6F0D21BF1
:1041B00041EA004161E7614614E7104628E7C3F190
:1041C000200120FA01F29E4027FA01F19F403A4374
:1041D0004FEA164E1FFA86FCB1FBFEF70EFB1710D6
:1041E000110C41EA004107FB0CF8884504FA03F47E
:1041F0003AD9711807F1FF3001D288451FD8A1EBD9
:104200000801B1FBFEF808FB0CF70EFB181192B287
:1042100042EA0142BA422FD2B21808F1FF31C6D2A7
:10422000BA42C4D2A8F102013244C0E7F0459CD2A0
:10423000BEEB020367EB0C070138B94695E7A6EB26
:1042400008084144B81EB1FBFEF808FB0CF7DCE798
:104250003B467FE7504667E70846FBE634440238B2
:1042600032E7023F32441BE7A1EB08013846B1FBBD
:10427000FEF808FB0CF7C8E7414698E7F8B500BF21
:10428000F8BC08BC9E467047F8B500BFF8BC08BC37
:044290009E4670478F
:104294004D69737572612072696C65766174613AF7
:1042A40020256C7520636D0D0A00000008040204CB
:1042B40008010101010101030701000001000200DE
:1042C4000400060008000A000C0010002000400052
:1042D4008000000100000000010203040102030445
:1042E40006070809232D302B2000686C4C006566F6
:1042F4006745464700303132333435363738394133
:104304004243444546003031323334353637383948
:0843140061626364656600004C
:08431C0084BFFF7F01000000D7
:04432400DD0310089D
:04432800B5031008C1
:10432C0001000000100000000090D0030090D003AA
:10433C0000000000030000007001001020000010BD
:10434C000000000070010010D801001040020010A5
:10435C000000000000000000000000000000000051
:10436C000000000000000000000000000000000041
:10437C000000000000000000000000000000000031
:0C438C0000000000000000000000000025
:04000005081030D5DA
:00000001FF
