:020000040800F2
:1000000000000220E94E0008590800085B080008BB
:100010005D0800085F080008610800080000000093
:10002000000000000000000000000000814B0008FC
:100030006308000800000000214C0008A7460008E3
:100040003D4F00083D4F00083D4F00083D4F000860
:100050003D4F00083D4F00083D4F00083D4F000850
:100060003D4F00083D4F00083D4F00083D4F000840
:100070003D4F00083D4F00083D4F00083D4F000830
:100080003D4F00083D4F00083D4F00083D4F000820
:100090003D4F00083D4F00083D4F00083D4F000810
:1000A0003D4F0008650800083D4F00083D4F00081F
:1000B0003D4F00083D4F00083D4F00083D4F0008F0
:1000C0003D4F00083D4F00083D4F00083D4F0008E0
:1000D0003D4F00083D4F00083D4F00083D4F0008D0
:1000E000750800083D4F0008000000003D4F000863
:1000F0003D4F00083D4F00083D4F00083D4F0008B0
:100100003D4F00083D4F00083D4F00083D4F00089F
:100110003D4F00083D4F00083D4F00083D4F00088F
:100120003D4F00083D4F00083D4F00083D4F00087F
:100130003D4F0008810800083D4F00083D4F000872
:100140003D4F00083D4F0008000000000000000087
:100150003D4F00083D4F00083D4F00083D4F00084F
:100160003D4F00083D4F00083D4F00083D4F00083F
:100170003D4F00083D4F00083D4F00083D4F00082F
:100180003D4F00083D4F00083D4F00083D4F00081F
:100190003D4F00083D4F00083D4F00083D4F00080F
:1001A0003D4F00083D4F00083D4F00083D4F0008FF
:1001B0003D4F00083D4F00083D4F00083D4F0008EF
:1001C0003D4F00083D4F00083D4F00083D4F0008DF
:1001D0003D4F00083D4F00083D4F00083D4F0008CF
:1001E0003D4F00083D4F00083D4F00083D4F0008BF
:1001F0003D4F00083D4F00083D4F00083D4F0008AF
:100200003D4F00083D4F00083D4F00083D4F00089E
:100210003D4F00083D4F00083D4F00083D4F00088E
:100220003D4F00083D4F00083D4F00080000000012
:100230003D4F00083D4F00083D4F00083D4F00086E
:100240003D4F00083D4F00083D4F00083D4F00085E
:100250003D4F00083D4F00083D4F00083D4F00084E
:100260003D4F00083D4F00083D4F00083D4F00083E
:100270003D4F00083D4F00083D4F00083D4F00082E
:100280003D4F00083D4F00083D4F000800000000B2
:080290003D4F00083D4F00083E
:1002A00001F0FF01102A2BDB10F0070F08D010F827
:1002B000013B013A8B422DD010F0070F42B3F6D12B
:1002C000F0B441EA012141EA014122F007047FF044
:1002D00000070023F0E80256083C85EA010586EA9B
:1002E000010685FA47F5A3FA87F586FA47F6A5FAD7
:1002F00087F68EB9EED1F0BC01F0FF0102F00702E3
:1003000032B110F8013B013A83EA010313B1F8D18D
:100310000020704701387047002D06BF354603386E
:10032000073815F0010F07D1013015F4807F02BFA7
:10033000013015F4C03F0130F0BC0138704700BFF8
:1003400053B94AB9002908BF00281CBF4FF0FF313C
:100350004FF0FF3000F00CB8ADF1080C6DE904CEA1
:1003600005F0E4FDDDF804E0DDE9022304B07047A8
:10037000704700BF0348044B834202D0034B03B1D4
:10038000184770477000002470000024000000002F
:100390000548064B1B1AD90F01EBA301491002D0E7
:1003A000034B03B11847704770000024700000240D
:1003B0000000000010B5064C237843B9FFF7DAFFC0
:1003C000044B13B10448AFF300800123237010BD28
:1003D00070000024000000002462000808B5054BEE
:1003E0001BB105490548AFF30080BDE80840FFF7A1
:1003F000CFBF00BF0000000074000024246200088A
:1004000008B5024B186804F0F7F908BD4001002454
:1004100008B5024B186804F0EFF908BD3C01002450
:1004200008B500F0BFFD10F0800F00D108BD024BF1
:10043000186804F0E1F9F9E74001002418B1044B11
:1004400001229A617047024B4FF480329A617047E3
:100450000004025820B1054B4FF480429A61704766
:10046000024B4FF080429A61704700BF000402586F
:10047000014B1870704700BF5101002408B50146B8
:10048000034804F021FE0220FFF7F2FF08BD00BF81
:100490003C62000808B50C4804F07EFE0CE04FF00A
:1004A0006053196800225A60BFF34F8F074804F069
:1004B0000BFE642004F092F9BFF34F8F4FF06053AE
:1004C0005B68002BEBD1F4E754620008746200080B
:1004D00010B500240AE00020FFF7BCFF2046FFF71C
:1004E000ADFF84F00104FA2004F078F91D4B1B786D
:1004F000032B2DD801A252F823F000BFD704000827
:100500000D05000823050008390500080020FFF745
:10051000A1FF0120FFF792FFFA2004F05FF9002409
:10052000E4E70020FFF78AFF0120FFF793FFFA209E
:1005300004F054F90024D9E70020FFF77FFF20469C
:10054000FFF788FF84F00104FA2004F047F9CDE7B3
:100550000020FFF773FF0020FFF77CFFFA2004F074
:100560003DF9C3E75101002408B5044804F014FE26
:100570000120FFF77DFF04F02CF900BF986200080E
:10058000F0B59DB04C22002109A804F0E3FE202222
:10059000002101A804F0DEFE042001F037FE002354
:1005A0000093234BDA6A22F00102DA62DB6A03F07D
:1005B000010300931F4A936923F4404343F400432B
:1005C0009361936903F440430093009B194B9B692B
:1005D00013F4005FFAD00223099301220C92402504
:1005E0000D95129300241394042614961C22159240
:1005F00016930522179218930C2319931A944FF40B
:1006000080671B9709A800F0D1FC3F2301930323C7
:100610000293039404940595502306930797089535
:1006200031460DEB060001F015F91DB0F0BD00BF1D
:10063000000400580048025830B59DB013AC242582
:100640002A460021204604F085FE244B13934FF4E4
:1006500080631893082319932A4600210AA804F0FE
:1006600079FE1F4B0A934FF4C0530F93202310932E
:10067000224600211B4804F051F81B4B1860F0B1D2
:100680000AAA0021194804F049F8194B1860E0B192
:1006900001AC24220021204604F05CFE154B01939E
:1006A0004FF48063069318230793224600211248D3
:1006B00004F034F8114B186058B11DB030BDFFF78D
:1006C000BDFE0120FFF7C6FEFEE70D48FFF7D6FE90
:1006D000DEE70C4804F060FDEFE700BFAC62000805
:1006E000B8620008D10400084C0100246905000824
:1006F00048010024D0620008950400084401002449
:10070000C4620008DC62000800B583B0224AD2F857
:10071000E03043F00203C2F8E0300023019302E02E
:10072000019B01330193019A42F20F739A42F7DD64
:100730001A4B1A6822F003021A601A6842F001028A
:100740001A601A6822F040521A601A6842F0805209
:100750001A600120FFF772FE0020FFF77BFE01F018
:1007600011FEFFF70DFF0E4B4FF000629A6000F094
:1007700051F80C4800F066F80B4804F00DFD03F04A
:100780009FFF0A4804F008FDFFF756FF084804F0F1
:1007900003FD03F0A7FFFEE70044025800040258DF
:1007A00000ED00E0046300081063000828630008FF
:1007B000446300087047000000B583B0134B1B78FA
:1007C000EBB10020FFF73AFE0FE0009B01330093EE
:1007D000009A0F4B9A42F8DD0020FFF73BFE002302
:1007E0000193019A0A4B9A4205DD0120FFF732FE80
:1007F00000230093ECE7019B01330193F1E7002014
:10080000FFF71CFE0120FFF725FEFEE75001002444
:100810005FE3160000B585B06946002000900190A6
:10082000029003904FF4E133009300F0FBF828B9F5
:10083000002000F00FF905B05DF804FBFFF7BCFFE6
:10084000F6E7000028B108B50146024804F03CFC78
:1008500008BD70475C630008FEE7FEE7FEE7FEE7C1
:10086000FEE7704708B5024800F064F908BD00BF14
:100870005401002408B5002000F0B2F808BD0000C3
:1008800008B5024800F0CCFA08BD00BF8C00002477
:1008900000B583B00A4BD3F8F42042F00202C3F84B
:1008A000F420D3F8F43003F002030193019B0022FB
:1008B0000F216FF0010001F045FD03B05DF804FB6E
:1008C000004402580F2801D90120704710B58AB0A2
:1008D000044600220146192001F034FD192001F0E0
:1008E00041FD174B1C60174BD3F8F02042F001027A
:1008F000C3F8F020D3F8F03003F001030093009B1D
:1009000001A902A801F036F901F022F943000E4ACC
:10091000A2FB03239B0C013B0C480D4A026040F2F2
:10092000E732C260436000230361836000F042FA53
:1009300010B101200AB010BD044800F0AFF8F9E78B
:10094000040000240044025883DE1B4354010024A9
:1009500000000140F0B589B01F4BD3F8E02042F011
:100960000802C3F8E020D3F8E02002F00802009269
:10097000009AD3F8E02042F00802C3F8E020D3F850
:10098000E02002F008020192019AD3F8E82042F434
:100990008022C3F8E820D3F8E83003F480230293E0
:1009A000029B4FF480730393022404940694012362
:1009B00005930727079703AE084D3146284601F0F7
:1009C00015FB4FF4007303930494079731462846B0
:1009D00001F00CFB09B0F0BD00440258000C0258B5
:1009E00008B5034B03EBC00001F006FD08BD00BFD6
:1009F0003802002408B50A4A126802600A68426098
:100A00000C2242614A8902614A6882600A89C26096
:100A10008A8982614FF40042C26102F0BAF908BDCE
:100A20000000002470B938B50D469422084C02FB32
:100A300000442046FFF78EFF29462046FFF7DAFFE5
:100A400018B938BD6FF0010070476FF00300F8E788
:100A5000A4010024034B1B78834201D0014B187082
:100A600000207047A001002410B582B00190084B0F
:100A700018784FF47A73012201A94FF0940C054CB9
:100A80000CFB004002F0B8F8019802B010BD00BFA6
:100A9000A0010024A40100247047000090F83D301C
:100AA000012B3AD1022380F83D300268D36843F02D
:100AB0000103D36003681B4AB3F1804F18BF934210
:100AC0001DD0A2F57C42934219D002F58062934278
:100AD00015D002F58062934211D002F5784293421C
:100AE0000DD0A2F56C42934209D002F594329342A4
:100AF00005D01A6842F001021A6000207047996818
:100B0000094A0A40062A18BFB2F5803F07D01A6882
:100B100042F001021A600020704701207047002057
:100B2000704700BF00000140070001007047704798
:100B30007047704770B504460368DE681D6915F09C
:100B4000020F10D016F0020F0DD06FF002021A61E2
:100B50000123037703689B6913F0030F64D0FFF749
:100B6000E6FF0023237715F0040F12D016F0040FD0
:100B70000FD023686FF004021A61022323772368E1
:100B80009B6913F4407F55D02046FFF7D0FF002328
:100B9000237715F0080F12D016F0080F0FD0236836
:100BA0006FF008021A61042323772368DB6913F0CE
:100BB000030F46D02046FFF7BAFF0023237715F036
:100BC000100F12D016F0100F0FD023686FF0100224
:100BD0001A61082323772368DB6913F4407F37D039
:100BE0002046FFF7A4FF0023237715F0010F02D062
:100BF00016F0010F33D115F4025F02D016F0800F0A
:100C000035D115F4807F02D016F0800F37D115F062
:100C1000400F02D016F0400F39D115F0200F02D04E
:100C200016F0200F3BD170BDFFF780FF2046FFF785
:100C30007FFF96E72046FFF779FF2046FFF778FF12
:100C4000A5E72046FFF772FF2046FFF771FFB4E7E4
:100C50002046FFF76BFF2046FFF76AFFC3E72368D4
:100C60006FF001021A612046FFF7A4FDC3E7236875
:100C70006FF402521A61204600F0CDF8C1E72368F4
:100C80006FF480721A61204600F0C6F8BFE723684F
:100C90006FF040021A612046FFF74BFFBDE7236863
:100CA0006FF020021A61204600F0B4F8BBE70000A4
:100CB00070B40368394A904214BF00220122B0F197
:100CC000804F14BF144642F00104ACB9344DA84221
:100CD00014BF00250125334EB0420DD065B905F192
:100CE000804505F58235A84214BF0025012506F58B
:100CF0000066B04200D01DB123F070034D682B4355
:100D000014BB274CA04214BF00240124254DA84247
:100D10001AD0CCB904F1804404F58234A04214BF47
:100D20000024012405F50065A8420DD064B91E4CCD
:100D3000A04214BF0024012405F59A35A84203D02F
:100D400014B91A4CA04203D123F44073CC68234356
:100D500023F080034C6923438C68C4620C6884626E
:100D6000134CA04208BF42F0010262B90E4A904201
:100D700014BF0022012204F57054A04203D012B91E
:100D80000A4A904201D10A690263026842F00402F1
:100D9000026001224261036070BC704700000140A4
:100DA00000080040000400400044014000480140A9
:100DB0000004014060B310B5044690F83D3013B311
:100DC000022384F83D30214651F8040BFFF770FFF1
:100DD000012384F8483084F83E3084F83F3084F8AA
:100DE000403084F8413084F8423084F8433084F84D
:100DF000443084F8453084F8463084F8473084F82D
:100E00003D30002010BD80F83C30FFF745FED7E7AD
:100E100001207047704770477047704770477047B0
:100E20002DE9F84304460368D3F8B06003F5805217
:100E3000D2F86051D2F834714FF0B042D2F8A880A5
:100E4000D2F8E89015F0400F02D017F0400F3FD1D4
:100E500015F0010F02D017F0010F42D115F4804FA9
:100E600024D017F4804F21D0D4F8883043F0080301
:100E7000C4F8883015F4805F3ED0236803F58053B2
:100E8000D3F8602122F46F6222F00D02D204D20C5A
:100E9000C4F88C20D3F8342122F44042C3F8342122
:100EA000E023C4F884302046FFF7BAFA16F4C04FA6
:100EB00030D116F0100F42D116F0200F4DD101F0B5
:100EC00055FA032857D019F4800F61D1BDE8F88393
:100ED00003F5805348F24002C3F86021FFF790FA0F
:100EE000B6E7236803F5805348F20102C3F8602196
:100EF0002046FFF78DFAB1E7236803F58053D3F856
:100F0000602102F4CD42C4F88C204FF4CD42C3F8E6
:100F10006021C8E7D4F8883043F01003C4F8883063
:100F20002368D3F8B830C4F89030E023C4F8843094
:100F30002046FFF775FA0023C4F89030B9E723681C
:100F4000D3F8C03003F06003C4F894302046FFF7B4
:100F500064FF0023C4F89430AEE72368D3F8D030A0
:100F600003F00F03C4F898302046FFF757FF002323
:100F7000C4F89830A3E718F4800FA7D04FF0B0431F
:100F80004FF48002C3F8A8202046FFF748FF9DE7F2
:100F90004FF0B0434FF48002C3F8E8202046FFF73B
:100FA0003EFF93E7D0F88C0070470000002800F067
:100FB000398338B50446036813F0010F25D0944AED
:100FC000136903F03803926A102B15D0182B0FD039
:100FD0006368B3F5803F3FD0002B53D18C4B1A6828
:100FE00022F480321A601A6822F480221A6038E0F3
:100FF00002F00302022AEBD1854B1B6813F4003F79
:1010000003D06368002B00F00F83236813F0020FF6
:1010100000F0A1807E4A1369926A13F038035AD017
:10102000182B55D0E368002B00F0DE8078490A6861
:1010300022F0190213430B6001F0D2F90546744BFC
:101040001B6813F0040F40F0AD8001F0C9F9401B9C
:101050000228F4D90320EEE26D4A136843F480338A
:10106000136063682BB301F0BBF90546684B1B683E
:1010700013F4003FC9D101F0B3F9401B6428F5D93E
:101080000320D8E2B3F5A02F09D0614B1A6822F4EF
:1010900080321A601A6822F480221A60E1E75C4B01
:1010A0001A6842F480221A601A6842F480321A6088
:1010B000D7E701F095F90546554B1B6813F4003F3F
:1010C000A3D001F08DF9401B6428F5D90320B2E2CA
:1010D00012F0030FA6D14E4B1B6813F0040F03D080
:1010E000E368002B00F0A282494A136823F0190339
:1010F000E1680B43136001F073F90546444B1B682C
:1011000013F0040F06D101F06BF9401B0228F5D94A
:10111000032090E201F06AF941F20303984212D8E9
:101120002269402A07D03A494B6823F47C3343EACA
:1011300002334B600FE0364A536823F47C3343F4A8
:101140000033536007E0324A536823F0FE432169BD
:1011500043EA01635360236813F0100F00F08880A6
:101160002B4A136903F03803926A082B56D0182BC8
:1011700050D0E369002B00F0B880254A136843F093
:101180008003136001F02CF90546214B1B6813F412
:10119000807F40F0888001F023F9401B0228F4D9B9
:1011A000032048E201F022F941F20303984212D8E9
:1011B0002269402A07D016494B6823F47C3343EA5E
:1011C00002334B60C7E7124A536823F47C3343F47D
:1011D00000335360BFE70E4A536823F0FE43216992
:1011E00043EA01635360B6E7094A136823F0010339
:1011F000136001F0F5F80546054B1B6813F0040F6A
:10120000A9D001F0EDF8401B0228F5D9032012E225
:101210000044025802F00302012AAAD1A14B1B6824
:1012200013F4807F03D0E369802B40F0018201F04A
:10123000DDF841F20303984212D8226A202A07D02F
:1012400098494B6823F0F84343EA82634B600FE010
:10125000944A536823F0F84343F08043536007E017
:10126000904AD36823F07C53216A43EA0163D36038
:10127000236813F0080F60D06369002B49D0894AB6
:10128000536F43F00103536701F0AAF80546854BFD
:101290005B6F13F0020F50D101F0A2F8401B02283F
:1012A000F5D90320C7E101F0A1F841F20303984208
:1012B00012D8226A202A07D07A494B6823F0F843D3
:1012C00043EA82634B60D3E7764A536823F0F843DE
:1012D00043F080435360CBE7724AD36823F07C53DA
:1012E000216A43EA0163D360C2E76E4A136823F0C0
:1012F0008003136001F074F805466A4B1B6813F411
:10130000807FB5D001F06CF8401B0228F5D903208E
:1013100091E1644A536F23F00103536701F060F8D1
:101320000546604B5B6F13F0020F06D001F058F8D2
:10133000401B0228F5D903207DE1236813F0200F1C
:1013400029D0A3699BB1574A136843F480531360B3
:1013500001F046F80546534B1B6813F4005F1AD1A1
:1013600001F03EF8401B0228F5D9032063E14D4A05
:10137000136823F48053136001F032F80546494B9B
:101380001B6813F4005F06D001F02AF8401B022806
:10139000F5D903204FE1236813F0040F21D1636ACC
:1013A000002B00F047813F4A126902F03802182AE8
:1013B00000F0EE80022B79D03A4A136823F0807354
:1013C000136001F00DF80446364B1B6813F0007FE4
:1013D00000F0DC8001F004F8001B0228F4D903209F
:1013E00029E1314A136843F48073136000F0F8FF79
:1013F00005462D4B1B6813F4807F06D100F0F0FFEB
:10140000401B6428F5D9032015E1A368012B0AD0FD
:101410000BBB244B1A6F22F001021A671A6F22F0DD
:1014200004021A6704E01F4A136F43F001031367B5
:10143000A36833B300F0D4FF05461A4B1B6F13F0BB
:10144000020FACD100F0CCFF401B41F28833984230
:10145000F3D90320EFE0052B09D0124B1A6F22F0CD
:1014600001021A671A6F22F004021A67E0E70D4BB7
:101470001A6F42F004021A671A6F42F001021A67EB
:10148000D6E700F0ADFF0546064B1B6F13F0020FC9
:1014900085D000F0A5FF401B41F288339842F3D974
:1014A0000320C8E00044025800480258694A136803
:1014B00023F08073136000F093FF0546654B1B68B3
:1014C00013F0007F06D000F08BFF401B0228F5D9F7
:1014D0000320B0E05F4B996A5F4A0A40A16AE06A64
:1014E00041EA00110A439A62226B013AC2F30802F0
:1014F000616B0139490289B20A43A16B01390904C0
:1015000001F4FE010A43E16B0139090601F0FE41D5
:101510000A431A63DA6A22F00102DA625A6B6FF345
:10152000CF02A16C42EAC1025A63DA6A22F00C02CD
:10153000216C0A43DA62DA6A22F00202616C0A4321
:10154000DA62DA6A42F48032DA62DA6A42F400324B
:10155000DA62DA6A42F48022DA62DA6A42F001027E
:10156000DA621A6842F080721A6000F039FF0446AD
:10157000384B1B6813F0007F06D100F031FF001BD1
:101580000228F5D9032056E0002054E0002052E064
:10159000304A916A106B012B4ED001F00303A26A0E
:1015A00093424BD1C1F30511E36A994248D1C0F38C
:1015B0000802236B013B9A4244D1C0F34622636B7D
:1015C000013B9A4240D1C0F30642A36B013B9A42D1
:1015D0003CD1C0F30660E36B013B984238D11D4B10
:1015E0005B6BC3F3CC03A26C9A4201D1002022E0D2
:1015F000184AD36A23F00103D36200F0F1FE0546D6
:1016000000F0EEFEA842FBD0124A536B6FF3CF03FB
:10161000A16C43EAC1035363D36A43F00103D3626D
:10162000002008E001207047012004E0012002E0D2
:10163000012000E0002038BD0120FCE70120FAE78E
:101640000120F8E70120F6E70120F4E70120F2E7A6
:101650000120F0E7004402580CFCFFFF754B1B69AA
:1016600003F03803102B00F0DE80182B0FD0002B76
:1016700040F0DB806F4B1B6813F0200F00F0D78029
:101680006C4B1B68C3F3C1036B48D840704710B460
:10169000684B9A6A02F003029C6AC4F30510D96A87
:1016A00001F001015B6BC3F3CC0301FB03F307EE15
:1016B000903AF8EE677A14F47C7F77D0012A4AD00A
:1016C000022A76D0002A40F091805A4B1B6813F012
:1016D000200F23D057490A68C2F3C102564BD340AA
:1016E00007EE103AF8EE476A07EE100AB8EE476ABE
:1016F00086EE867A0B6BC3F3080306EE903AF8EE9B
:10170000666A9FED4E6A67EE867A76EEA77AF7EE06
:10171000006A77EEA67A27EE277A38E007EE100AFD
:10172000F8EE476A9FED466A86EE267A414B1B6BC0
:10173000C3F3080306EE903AF8EE666A9FED3F6A3F
:1017400067EE867A76EEA77AF7EE006A77EEA67AEB
:1017500027EE277A1BE007EE100AF8EE476A9FEDA6
:10176000396A86EE267A334B1B6BC3F3080306EE09
:10177000903AF8EE666A9FED316A67EE867A76EE09
:10178000A77AF7EE006A77EEA67A27EE277A294B3A
:101790001B6BC3F34623013307EE903AF8EE677AEA
:1017A000C7EE276AFCEEE67A17EE900A5DF8044B66
:1017B000704707EE100AF8EE476A9FED236A86EE3F
:1017C000267A1C4B1B6BC3F3080306EE903AF8EE27
:1017D000666A9FED1A6A67EE867A76EEA77AF7EE6A
:1017E000006A77EEA67A27EE277AD0E707EE100A8E
:1017F000F8EE476A9FED136A86EE267A0D4B1B6B57
:10180000C3F3080306EE903AF8EE666A9FED0B6AA2
:1018100067EE867A76EEA77AF7EE006A77EEA67A1A
:1018200027EE277AB3E7094870470948704702480E
:10183000704700BF004402580090D00300000039F8
:101840000024744C0024744A20BCBE4B40787D01B7
:1018500000093D00002800F0328170B50D460446B5
:101860009B4B1B6803F00F038B420BD2984A136803
:1018700023F00F030B431360136803F00F038B4235
:1018800040F01F81236813F0040F0CD02269914BA4
:101890009B6903F070039A4205D98E498B6923F046
:1018A00070031A438A61236813F0080F0CD0626931
:1018B000884BDB6903F070039A4205D98549CB69EF
:1018C00023F070031A43CA61236813F0100F0CD081
:1018D000A269804BDB6903F4E0639A4205D97D4934
:1018E000CB6923F4E0631A43CA61236813F0200F25
:1018F0000CD0E269774B1B6A03F070039A4205D95A
:1019000074490B6A23F070031A430A62236813F0C8
:10191000020F0CD0E2686F4B9B6903F00F039A42F1
:1019200005D96C498B6923F00F031A438A61236838
:1019300013F0010F41D0674A936923F47063A168E3
:101940000B4393616368022B0AD0032B27D0012B32
:101950002CD0604A126812F0040F06D10120ADE0CD
:10196000126812F4003F00F0AE805A490A6922F072
:10197000070213430B6100F033FD0646554B1B690C
:1019800003F038036268B3EBC20F16D000F028FDF5
:10199000801B41F288339842F0D903208EE04D4AF3
:1019A000126812F0007FE0D1012087E0494A1268F6
:1019B00012F4807FD9D1012080E0236813F0020F58
:1019C0000CD0E268434B9B6903F00F039A4205D2A7
:1019D00040498B6923F00F031A438A613C4B1B6813
:1019E00003F00F03AB420AD9394A136823F00F03FF
:1019F0002B431360136803F00F03AB4265D12368D8
:101A000013F0040F0CD02269324B9B6903F0700372
:101A10009A4205D22F498B6923F070031A438A61D9
:101A2000236813F0080F0CD062692A4BDB6903F0BE
:101A300070039A4205D22749CB6923F070031A43F9
:101A4000CA61236813F0100F0CD0A269214BDB6927
:101A500003F4E0639A4205D21E49CB6923F4E063A4
:101A60001A43CA61236813F0200F0CD0E269194BA6
:101A70001B6A03F070039A4205D216490B6A23F0E1
:101A800070031A430A62FFF7E9FD12498B69C3F339
:101A90000323114AD35C03F01F03D8408B6903F082
:101AA0000F03D35C03F01F0320FA03F30B4A136008
:101AB0000B4B18600B4B1868FEF704FF70BD01203C
:101AC00070470120FAE70120F8E70120F6E700BFA0
:101AD00000200052004402589063000808000024CF
:101AE0000C0000240400002408B5FFF7B7FD0B4AE2
:101AF0009369C3F303230A49CB5C03F01F0320FA65
:101B000003F3926902F00F02885C00F01F0023FAD1
:101B100000F0044A1060044A136008BD00440258F3
:101B200090630008080000240C00002408B5FFF7AB
:101B3000DBFF054BDB69C3F30213044AD35C03F0FC
:101B40001F03D84008BD00BF00440258906300083E
:101B500008B5FFF7C9FF054BDB69C3F30223044A4D
:101B6000D35C03F01F03D84008BD00BF00440258F7
:101B7000906300083F230360114B1A6902F00702CB
:101B800042609A6902F4706282609A6902F00F0200
:101B9000C2609A6902F070020261DA6902F07002B2
:101BA0004261DA6902F4E06282611B6A03F0700349
:101BB000C361044B1B6803F00F030B60704700BF49
:101BC000004402580020005208B5FFF78DFF054B76
:101BD0001B6AC3F30213044AD35C03F01F03D8400B
:101BE00008BD00BF004402589063000810B4794B50
:101BF0009A6A9C6AC4F3053CD96AC1F30011DB6B95
:101C0000C3F3CC0301FB03F314F47C3F00F0DD804D
:101C100002F0030207EE903AF8EE677A012A4BD001
:101C2000022A00F09880002A40F0B280694B1B68BD
:101C300013F0200F23D067490A68C2F3C102664B34
:101C4000D34007EE103AF8EE476A07EE10CAB8EE36
:101C5000476A86EE867A8B6BC3F3080306EE903AEA
:101C6000F8EE666A9FED5D6A67EE867A76EEA77A91
:101C7000F7EE006A77EEA67A27EE277A38E007EECD
:101C800010CAF8EE476A9FED566A86EE267A514BE7
:101C90009B6BC3F3080306EE903AF8EE666A9FED7D
:101CA0004F6A67EE867A76EEA77AF7EE006A77EEED
:101CB000A67A27EE277A1BE007EE10CAF8EE476AED
:101CC0009FED486A86EE267A424B9B6BC3F308036E
:101CD00006EE903AF8EE666A9FED406A67EE867A05
:101CE00076EEA77AF7EE006A77EEA67A27EE277AE5
:101CF000384A936BC3F3462307EE903AF8EE677ABF
:101D0000F7EE006A77EEA67A87EE276ABCEEC66A1F
:101D100080ED006A936BC3F3064307EE903AF8EE4A
:101D2000677A77EEA67A87EE276ABCEEC66A80ED00
:101D3000016A936BC3F3066307EE903AF8EE677A95
:101D400077EEA67AC7EE276AFCEEE66AC0ED026A75
:101D50005DF8044B704707EE10CAF8EE476A9FED36
:101D6000226A86EE267A1B4B9B6BC3F3080306EEB2
:101D7000903AF8EE666A9FED196A67EE867A76EE1B
:101D8000A77AF7EE006A77EEA67A27EE277AAFE712
:101D900007EE10CAF8EE476A9FED126A86EE267AC1
:101DA0000C4B9B6BC3F3080306EE903AF8EE666AA1
:101DB0009FED0A6A67EE867A76EEA77AF7EE006AFA
:101DC00077EEA67A27EE277A92E700230360436036
:101DD0008360BDE7004402580090D0030000003942
:101DE0000024744C0024744A20BCBE4B10B4794BC0
:101DF0009A6A9C6AC4F3055CD96AC1F300215B6CE2
:101E0000C3F3CC0301FB03F314F07C7F00F0DD800F
:101E100002F0030207EE903AF8EE677A012A4BD0FF
:101E2000022A00F09880002A40F0B280694B1B68BB
:101E300013F0200F23D067490A68C2F3C102664B32
:101E4000D34007EE103AF8EE476A07EE10CAB8EE34
:101E5000476A86EE867A0B6CC3F3080306EE903A67
:101E6000F8EE666A9FED5D6A67EE867A76EEA77A8F
:101E7000F7EE006A77EEA67A27EE277A38E007EECB
:101E800010CAF8EE476A9FED566A86EE267A514BE5
:101E90001B6CC3F3080306EE903AF8EE666A9FEDFA
:101EA0004F6A67EE867A76EEA77AF7EE006A77EEEB
:101EB000A67A27EE277A1BE007EE10CAF8EE476AEB
:101EC0009FED486A86EE267A424B1B6CC3F30803EB
:101ED00006EE903AF8EE666A9FED406A67EE867A03
:101EE00076EEA77AF7EE006A77EEA67A27EE277AE3
:101EF000384A136CC3F3462307EE903AF8EE677A3C
:101F0000F7EE006A77EEA67A87EE276ABCEEC66A1D
:101F100080ED006A136CC3F3064307EE903AF8EEC7
:101F2000677A77EEA67A87EE276ABCEEC66A80EDFE
:101F3000016A136CC3F3066307EE903AF8EE677A12
:101F400077EEA67AC7EE276AFCEEE66AC0ED026A73
:101F50005DF8044B704707EE10CAF8EE476A9FED34
:101F6000226A86EE267A1B4B1B6CC3F3080306EE2F
:101F7000903AF8EE666A9FED196A67EE867A76EE19
:101F8000A77AF7EE006A77EEA67A27EE277AAFE710
:101F900007EE10CAF8EE476A9FED126A86EE267ABF
:101FA0000C4B1B6CC3F3080306EE903AF8EE666A1E
:101FB0009FED0A6A67EE867A76EEA77AF7EE006AF8
:101FC00077EEA67A27EE277A92E700230360436034
:101FD0008360BDE7004402580090D0030000003940
:101FE0000024744C0024744A20BCBE4BF0B583B06E
:101FF00000236BE085685E000324B44025EA0405F5
:10200000CC68B4402C438460456825EA0C054C68D4
:10201000C4F300149C402C43446069E0DD0808359B
:1020200050F8254003F0070C4FEA8C0C4FF00F0ED0
:102030000EFA0CFE24EA0E0E0C6904FA0CF444EAC3
:102040000E0440F825406BE0092400E0002404FA67
:102050000EF42C430CF1020C694D45F82C404FF066
:10206000B0442568D44325EA02064F6817F4801F60
:1020700001D042EA05064FF0B0452E606D6804EAD3
:1020800005064F6817F4001F01D042EA05064FF01D
:10209000B0456E60D5F8845004EA05064F6817F421
:1020A000003F01D042EA05064FF0B045C5F8846014
:1020B000D5F880502C404E6816F4803F01D042EA9B
:1020C00005044FF0B042C2F8804001330A6832FA8A
:1020D00003F400F092804FF0010C0CFA03FC1CEAB0
:1020E0000202F2D04C6804F00304013C012C81D9B7
:1020F0004C6804F00304032C0CD0C4685D004FF05E
:10210000030C0CFA05FC24EA0C0C8C68AC4044EA85
:102110000C04C4604C6804F00304022C3FF47EAF4E
:1021200004684FEA430E4FF0030C0CFA0EFC24EA4D
:102130000C0C4C6804F0030404FA0EF444EA0C049A
:1021400004604C6814F4403FBFD02E4CD4F8F450D7
:1021500045F00205C4F8F450D4F8F44004F0020449
:102160000194019C4FEA930C0CF10205244C54F8A5
:10217000255003F0030E4FEA8E0E0F2404FA0EF4DE
:1021800025EA0405204CA0423FF460AF04F58064CA
:10219000A04222D004F58064A04220D004F58064DF
:1021A000A0421ED004F58064A0421CD004F58064D7
:1021B000A0421AD004F58064A04218D004F58064CF
:1021C000A04216D004F58064A04214D004F58064C7
:1021D000A0423FF439AF0A2439E7012437E702244B
:1021E00035E7032433E7042431E705242FE70624E9
:1021F0002DE707242BE7082429E703B0F0BD00BF33
:1022000000040058004402580000025838B5044643
:10221000224BDB6803F00703062B07D01F4BDB685C
:1022200003F03F03834236D0012038BD1B4AD368F8
:1022300023F03F030343D36000F0D2F80546174B69
:102240005B6813F4005F07D100F0CAF8431BB3F5D5
:102250007A7FF4D90120E8E72E2C18BF1E2C08D075
:102260002D2C14BF002301231D2C02D00BB90020FC
:10227000DBE700F0B5F80446084BDB6813F4803F59
:1022800007D100F0ADF8001BB0F57A7FF4D901203A
:10229000CBE70020C9E70020C7E700BF004802588D
:1022A000002807DB00F01F02400901239340024A87
:1022B00042F82030704700BF00E100E0002804DB56
:1022C0000901C9B2044B1954704700F00F0009010D
:1022D000C9B2024B1954704700E400E014ED00E06D
:1022E00000B500F00700C0F1070CBCF1040F28BFD7
:1022F0004FF0040C031D062B0FD9C31E4FF0FF3EF9
:102300000EFA0CF021EA000199400EFA03FE22EACF
:102310000E0241EA02005DF804FB0023EEE7000034
:102320000649CB6823F4E0631B041B0C000200F495
:10233000E0600343024A1A43CA60704700ED00E0C0
:102340000000FA0510B50446054BD868C0F302201A
:10235000FFF7C6FF01462046FFF7B0FF10BD00BFE4
:1023600000ED00E008B5FFF79BFF08BD044B1B68BC
:1023700003F0F003702B01D0012070470320704759
:1023800000ED00E010B50320FFF7CAFFFFF766F984
:102390000F498B69C3F303230E4AD35C03F01F0379
:1023A000D8408B6903F00F03D35C03F01F0320FABE
:1023B00003F3094A1360094B18600F20FEF782FAF5
:1023C00010B10124204610BD0446FEF761FAF9E77A
:1023D0000044025890630008080000240C00002408
:1023E000014B1868704700BF40020024014B186879
:1023F000000C70470010005C70B504460368C3F31E
:10240000014503F01F0301269E40FFF7AFFF03289D
:102410000AD0074B03EB05131A68324203D01E6043
:10242000636803B1984770BD024B03EB0513F3E7F4
:10243000C800005888000058026852E8003F23F4A2
:10244000907342E800310029F6D1026802F10803D6
:1024500053E8001F0D4B0B40083242E800310029C1
:10246000F3D1C36E012B06D02023C0F88C3000239B
:10247000C36643677047026852E8003F23F01003C9
:1024800042E800310029F6D1EEE700BFFEFFFFEF82
:102490007047000070B586B0044683680269134334
:1024A00042691343C269134301680868884A0240BD
:1024B0001A430A602268536823F44053E1680B43CF
:1024C0005360A1692268834B9A4201D0236A194361
:1024D0009068814B03400B4393602268D36A23F0DA
:1024E0000F03616A0B43D36223687C4A934221D075
:1024F0007B4A934200F08C807A4A934200F0A2809B
:10250000794A934200F0B580784A934200F0C8803F
:10251000774A934200F0F480764A934200F01981A2
:10252000754A934200F02C816A4A934200F03F8141
:1025300080223BE0714A526D02F03802282A34D8DA
:10254000DFE812F02900330033003300330033009A
:10255000330033004D0133003300330033003300C8
:10256000330033002B0033003300330033003300DB
:10257000330033002D0033003300330033003300C9
:10258000330033002F0033003300330033003300B7
:10259000330033003100012208E0082206E0102257
:1025A00004E0202202E0402200E0802249498B42E0
:1025B00000F02781E069B0F5004F00F0A781202AE4
:1025C00000F2FF81202A00F24982DFE812F01602B1
:1025D0001C02470247021F02470247024702240229
:1025E00047024702470247024702470247022902C1
:1025F0004702470247024702470247024702470293
:102600004702470247024702470247024702350294
:102610003A4A526D02F00702052A11D8DFE812F09B
:102620000600E10008000A000C000E000022BDE7D1
:102630000822BBE71022B9E72022B7E74022B5E71E
:102640008022B3E72D4A526D02F00702052A0ED808
:10265000DFE802F003C90507090B0022A6E70822FC
:10266000A4E71022A2E72022A0E740229EE78022D2
:102670009CE7224A526D02F00702052A0ED8DFE8D5
:1026800002F003B40507090B00228FE708228DE74B
:1026900010228BE7202289E7402287E7802285E706
:1026A000164A526D02F00702052A0ED8DFE802F042
:1026B000039F0507090B002278E7082276E710221E
:1026C00074E7202272E7402270E780226EE700BFA5
:1026D000F369FFCF000C0058FFF4FF110010014018
:1026E0000044004000480040004C004000500040C2
:1026F0000014014000780040007C00400044025873
:102700007D4A526D02F03802282A20D8DFE802F014
:10271000151F1F1F1F1F1F1F711F1F1F1F1F1F1F81
:10272000171F1F1F1F1F1F1F191F1F1F1F1F1F1FC7
:102730001B1F1F1F1F1F1F1F1D00012236E708221E
:1027400034E7102232E7202230E740222EE78022B1
:102750002CE7694A526D02F00702052A0ED8DFE81D
:1027600002F0034A0507090B00221FE708221DE7B4
:1027700010221BE7202219E7402217E7802215E7E5
:102780005D4A526D02F00702052A0ED8DFE802F01A
:1027900003350507090B002208E7082206E7102287
:1027A00004E7202202E7402200E78022FEE602F54D
:1027B0000E32926D02F00702052A0ED8DFE802F011
:1027C000031F0507090B0222F0E60822EEE610229D
:1027D000ECE62022EAE64022E8E68022E6E6042251
:1027E000E4E60422E2E60422E0E60422DEE6042235
:1027F000DCE60422DAE60422D8E60422D6E6042245
:10280000D4E6202A27D8022AC0F01A81023A1E2ACA
:1028100000F21881DFE812F0500016015600160190
:10282000160116015B0016011601160116011601AC
:102830001601160160001601160116011601160197
:1028400016011601160116011601160116011601D0
:10285000160116016C00402A2CD14FF40040626A28
:10286000264B33F81220B0FBF2F3656805EB450107
:10287000994200F2E980B3EB053F00F2E7800026C1
:1028800033463146FDF75CFD090241EA1061000262
:102890006B08C0182A46334641F10001FDF750FD90
:1028A000A0F54072164B9A4200F2D2802368D8609D
:1028B0003046D4E00120D2E0FFF786F90028CED1DF
:1028C0000020CCE003A8FFF791F90498F6E76846EA
:1028D000FFF78CFA0198F1E7074B1B6813F0200F04
:1028E00008D0054B1B68C3F3C1030648D840B6E7C0
:1028F0000548B4E70348B2E700440258786300088B
:10290000FFFC0F000090D00300093D00202A15D8DD
:10291000202A00F29F80DFE802F031379D9D3A9D2A
:102920009D9D3F9D9D9D9D9D9D9D449D9D9D9D9D8E
:102930009D9D9D9D9D9D9D9D9D9D5000402A1BD1CF
:10294000626A4D4B33F81230B0FBF3F06268530803
:1029500003EB4003B3FBF2F3A3F110014FF6EF7268
:10296000914279D89AB222F00F02C3F34203134383
:102970002268D360002072E0012070E0FFF7D6F8F3
:102980000028DDD100206AE0FFF7E2F8F8E703A8AD
:10299000FFF72CF90498F3E76846FFF727FA019848
:1029A000EEE7364B1B6813F0200F08D0334B1B6843
:1029B000C3F3C1033248D840C2E73248C0E73048C9
:1029C000BEE7402A17D14FF40040626A2A4B33F821
:1029D0001230B0FBF3F0636800EB5300B0FBF3F090
:1029E000A0F110024FF6EF739A4242D8236880B2EA
:1029F000D860002033E0012031E0FFF797F800288D
:102A0000E3D100202BE0FFF7A3F8F8E703A8FFF7D6
:102A1000EDF80498F3E76846FFF7E8F90198EEE768
:102A2000164B1B6813F0200F08D0144B1B68C3F320
:102A3000C1031348D840C8E71248C6E71048C4E7A6
:102A400001200CE001200AE0012008E0012006E05E
:102A5000012004E0012002E0012000E00120012328
:102A6000A4F86A30A4F8683000236367A36706B04F
:102A700070BD0120F3E700BF7863000800440258EE
:102A80000090D00300093D00836A13F0080F06D0C0
:102A90000268536823F40043816B0B435360836ADD
:102AA00013F0010F06D00268536823F40033C16AA3
:102AB0000B435360836A13F0020F06D00268536819
:102AC00023F48033016B0B435360836A13F0040FCC
:102AD00006D00268536823F48023416B0B43536094
:102AE000836A13F0100F06D00268936823F48053B2
:102AF000C16B0B439360836A13F0200F06D002680A
:102B0000936823F40053016C0B439360836A13F0C2
:102B1000400F0AD00268536823F48013416C0B43C2
:102B20005360436CB3F5801F0BD0836A13F0800FA2
:102B300006D00268536823F40023C16C0B43536032
:102B400070470268536823F4C003816C0B435360E1
:102B5000EBE72DE9F84305460E4617469946DDF8A2
:102B600020802B68DC6936EA04040CBF01240024B1
:102B7000BC423AD1B8F1FF3FF3D0FFF731FCA0EBF4
:102B80000900404534D8B8F1000F33D02B681A68DB
:102B900012F0040FE5D0B6F1400218BF0122802EDA
:102BA000DFD0002ADDD0DA6912F0080F11D1DA691E
:102BB00012F4006FD5D04FF400621A622846FFF776
:102BC0003BFC2023C5F89030002385F88430032097
:102BD0000CE008241C622846FFF72EFCC5F8904044
:102BE000002385F88430012000E00020BDE8F88350
:102BF0000320FBE70320F9E72DE9F04182B01E46F0
:102C0000D0F88830202B5BD104460D469046002A30
:102C100018BF002901D1012053E00023C0F89030F3
:102C20002123C0F88830FFF7DBFB0746A4F8548067
:102C3000A4F85680A368B3F5805F02D04FF0000877
:102C400016E0236943B34FF0000811E02023C4F8D5
:102C50008830032035E038F8023B2268C3F30803CC
:102C60009362B4F8562092B2013A92B2A4F8562078
:102C7000B4F856309BB293B100963B4600228021B7
:102C80002046FFF766FF0028E0D1002DE3D015F8BD
:102C9000012B23689A62E4E7A8460025E8E700963E
:102CA0003B46002240212046FFF753FF18B920235E
:102CB000C4F8883005E02023C4F88830032000E001
:102CC000022002B0BDE8F08130B583B00446002395
:102CD000C0F89030FFF784FB05462268126812F0B6
:102CE000080F10D123681B6813F0040F28D120238C
:102CF000C4F88830C4F88C300020E066206784F87F
:102D0000840003B030BD6FF07E4300930346002281
:102D10004FF400112046FFF71CFF0028E2D0226884
:102D200052E8003F23F0800342E800310029F6D149
:102D30002023C4F88830002384F884300320E0E79F
:102D40006FF07E4300932B4600224FF48001204613
:102D5000FFF7FFFE0028CAD0226852E8003F23F4A4
:102D6000907342E800310029F6D1226802F108038D
:102D700053E8003F23F00103083242E80031002904
:102D8000F3D12023C4F88C30002384F8843003204E
:102D9000B7E778B310B50446D0F888300BB32423D6
:102DA000C4F888302268136823F001031360A36A13
:102DB000E3B92046FFF76EFB012811D02268536863
:102DC00023F4904353602268936823F02A039360AE
:102DD0002268136843F0010313602046FFF774FF75
:102DE00010BD80F88430FFF753FBD8E72046FFF78B
:102DF0004BFEDEE701207047394BD3F8882042F4C0
:102E00007002C3F888201A6942F010021A61354B2B
:102E10001B6803F00F03062B06D8324A136823F011
:102E20000F0343F0070313602F4B1A6842F00102AF
:102E30001A6000221A6119682C4A0A401A60294B4C
:102E40001B6813F0080F06D0264A136823F00F03FF
:102E500043F007031360244B00229A61DA611A627F
:102E6000234999622349D962234919635A639963B3
:102E7000DA6319645A64196821F4802119601A66AA
:102E80004FF0B042D2F8E43043F48043C2F8E4306B
:102E90001A4B1B686FF30F03B3F1005F03D2184B9B
:102EA0000122C3F80821104BD3F8D43013F4805F0B
:102EB00010D10D4BD3F8D42042F48052C3F8D42063
:102EC000104A43F2D2011160D3F8D42022F4805288
:102ED000C3F8D420024B4FF000629A60704700BFE5
:102EE00000ED00E000200052004402587FEDF6EAB9
:102EF000000202020000FF01800201010010005CDC
:102F00000080005100400052054AD36823F00203BC
:102F1000D360034B5B6813F4005FFAD0704700BFC7
:102F20000048025800F1080343604FF0FF3282600E
:102F3000C36003610023036070470023036170478F
:102F400043684B609A688A605160996008610368C1
:102F500001330360704730B40D68B5F1FF3F11D005
:102F600000F108031C465B681A68AA42FAD9636834
:102F70004B6099608C606160086103680133036095
:102F800030BC70470469F2E70369416882688A606F
:102F9000416851605A68824206D0002202611A6874
:102FA000013A1A601868704782685A60F5E710B5F0
:102FB000044601F0F7FDA26BE36B9A4204D00024B3
:102FC00001F012FE204610BD0124F9E710B50446B9
:102FD00001F0E8FDA36B23B9012401F005FE2046B2
:102FE00010BD0024F9E770B504461546866B026CE7
:102FF0005AB903681BB100200136A66370BD806812
:1030000001F0DAF80023A360F6E76DB9406802F03A
:103010007AFA6368226C13446360A268934219D3FE
:10302000236863602846E7E7C06802F06CFAE3684B
:10303000226C51429B1AE3602268934202D2A36839
:103040000B44E360022D01D00020D5E726B1013EFC
:103050000020D1E72846CFE70020CDE70346026CE9
:103060006AB110B50846D9681144D9609C68A1427C
:1030700001D31968D960D96802F045FA10BD7047CC
:1030800038B5054601F08EFD95F8454064B201E083
:10309000013C64B2002C0ADD6B6A43B105F12400E7
:1030A00000F0DEFF0028F3D001F070F8F0E7FF2316
:1030B00085F8453001F098FD01F074FD95F8444025
:1030C00064B201E0013C64B2002C0ADD2B6943B11B
:1030D00005F1100000F0C4FF0028F3D001F056F80D
:1030E000F0E7FF2385F8443001F07EFD38BD38B5A8
:1030F000E0B10D46044601F055FD2368E26B216CFA
:1031000001FB0230A0600020A0636360013A02FB73
:103110000133E360FF2384F8443084F84530FDB97F
:10312000236963B901F060FD012038BD4FF0500301
:1031300083F31188BFF36F8FBFF34F8FFEE704F166
:10314000100000F08DFF0028ECD04FF0E0234FF08E
:103150008052C3F8042DBFF34F8FBFF36F8FE1E7A9
:1031600004F11000FFF7DEFE04F12400FFF7DAFEA1
:10317000D8E738B51D46049C0B4649B92460E06386
:10318000236401212046FFF7B2FF84F84C5038BD7C
:103190002260F4E740B94FF0500383F31188BFF386
:1031A0006F8FBFF34F8FFEE710B584B01C4683B11D
:1031B0000B1E18BF0123002A08BF43F001038BB97F
:1031C0004FF0500383F31188BFF36F8FBFF34F8F1E
:1031D000FEE74FF0500383F31188BFF36F8FBFF307
:1031E0004F8FFEE7B1FA81F35B09002A18BF43F065
:1031F000010343B94FF0500383F31188BFF36F8F7E
:10320000BFF34F8FFEE750230393039B502B08D04F
:103210004FF0500383F31188BFF36F8FBFF34F8FCD
:10322000FEE7039B012384F8463000949DF8183094
:10323000FFF79FFF204604B010BDF0B585B00192A6
:1032400088B10F461D460446B1B1022D20D1E36B73
:10325000012B1DD04FF0500383F31188BFF36F8F04
:10326000BFF34F8FFEE74FF0500383F31188BFF396
:103270006F8FBFF34F8FFEE7036C002BE5D04FF04D
:10328000500383F31188BFF36F8FBFF34F8FFEE7B7
:1032900000F082FF064658B9019B002B48D04FF042
:1032A000500383F31188BFF36F8FBFF34F8FFEE797
:1032B00000263DE02A4639462046FFF794FE636A21
:1032C0007BB948B14FF0E0234FF08052C3F8042D92
:1032D000BFF34F8FBFF36F8F01F086FC012005B065
:1032E000F0BD04F1240000F0BBFE0028F4D04FF044
:1032F000E0234FF08052C3F8042DBFF34F8FBFF38C
:103300006F8FE9E701F070FC0020E8E702A800F009
:10331000EDFE012619E0002384F8443021E000236B
:1033200084F8453023E02046FFF7AAFE00F070FD48
:1033300001F038FCA26BE36B9A42BBD3022DB9D0EB
:10334000019B002BDED0002EE0D001F04DFC00F000
:10335000C5FC01F027FC94F8442052B2B2F1FF3FC3
:10336000D9D094F8452052B2B2F1FF3FD7D001F046
:103370003BFC01A902A800F0C5FED8B92046FFF722
:1033800016FE0028CFD0019904F1100000F034FEA1
:103390002046FFF775FE00F03BFD0028C8D14FF036
:1033A000E0234FF08052C3F8042DBFF34F8FBFF3DB
:1033B0006F8FBDE72046FFF763FE00F029FD002078
:1033C0008DE72DE9F84390B10F4616461C46054699
:1033D000B1B1022C20D1EB6B012B1DD04FF050036B
:1033E00083F31188BFF36F8FBFF34F8FFEE74FF06A
:1033F000500383F31188BFF36F8FBFF34F8FFEE746
:10340000036C002BE5D04FF0500383F31188BFF31A
:103410006F8FBFF34F8FFEE701F0EAFCEFF31188E7
:103420004FF0500383F31188BFF36F8FBFF34F8FBB
:10343000AA6BEB6B9A4206D3022C04D0002088F3CF
:103440001188BDE8F88395F845904FFA89F9AB6B80
:10345000224639462846FFF7C6FDB9F1FF3F06D0A0
:1034600009F101035BB285F845300120E7E76B6A9B
:103470000BB90120E3E705F1240000F0F1FD18B1DC
:1034800026B101203060DAE70120D8E70120D6E735
:1034900068B170B50C460546036C8BB14FF0500314
:1034A00083F31188BFF36F8FBFF34F8FFEE74FF0A9
:1034B000500383F31188BFF36F8FBFF34F8FFEE785
:1034C0000368EBB101F094FCEFF311864FF0500369
:1034D00083F31188BFF36F8FBFF34F8FAA6BEB6B32
:1034E000934226D995F845305BB20132AA63B3F115
:1034F000FF3F11D001335BB285F84530012019E060
:103500008368002BDED04FF0500383F31188BFF3A4
:103510006F8FBFF34F8FFEE76B6A0BB9012009E095
:1035200005F1240000F09CFD38B144B10120206079
:1035300000E0002086F3118870BD0120FAE7012029
:10354000F8E7F0B585B0019290B10F460446C1B1DD
:1035500000F022FE064600BB019B002B5ED04FF020
:10356000500383F31188BFF36F8FBFF34F8FFEE7D4
:103570004FF0500383F31188BFF36F8FBFF34F8F6A
:10358000FEE7036C002BE3D04FF0500383F3118868
:10359000BFF36F8FBFF34F8FFEE700263EE0394643
:1035A0002046FFF75BFD013DA563236923B901F0C8
:1035B0001BFB012005B0F0BD04F1100000F050FD30
:1035C0000028F4D04FF0E0234FF08052C3F8042DD0
:1035D000BFF34F8FBFF36F8FE9E701F005FB0020CA
:1035E000E8E702A800F082FD012621E0002384F82C
:1035F000443029E0002384F845302BE02046FFF7D3
:103600003FFD00F005FC09E02046FFF739FD00F022
:10361000FFFB2046FFF7DAFC00283FD101F0C2FA99
:10362000A56B002DBBD1019B002BD6D0002ED8D08E
:1036300001F0DAFA00F052FB01F0B4FA94F84430E9
:103640005BB2B3F1FF3FD1D094F845305BB2B3F138
:10365000FF3FCFD001F0C8FA01A902A800F052FD47
:103660000028D1D12046FFF7B1FC0028C6D001992F
:1036700004F1240000F0C0FC2046FFF701FD00F03B
:10368000C7FB0028CAD14FF0E0234FF08052C3F8A7
:10369000042DBFF34F8FBFF36F8FBFE7002089E783
:1036A0000023072B0CD8074A52F833200AB1013304
:1036B000F7E7044A42F8331002EBC3025060704748
:1036C000704700BF4402002470B504460D461646FC
:1036D00001F068FA94F844305BB2B3F1FF3F0DD0CB
:1036E00094F845305BB2B3F1FF3F0BD001F07CFAA8
:1036F000A36B5BB12046FFF7C3FC70BD002384F8C9
:103700004430EDE7002384F84530EFE732462946A0
:1037100004F1240000F088FCECE70000084B1B6873
:103720001B6823B9074B4FF0FF321A607047044BF8
:103730001B68DB68DB685A68024B1A60704700BF81
:10374000F40200248C0200242DE9F04780460D4647
:1037500017469946089EDDF824A00A9C9200A521F0
:10376000206B01F0F7FD236B6FF040423A4403EB0E
:10377000820727F00707002D61D04FF0000CBCF145
:103780000F0F09D815F80C3004EB0C0282F8343016
:1037900013B10CF1010CF2E7002384F84330372E0B
:1037A00000D93726E662E66400252565201DFFF76F
:1037B000C4FB04F11800FFF7C0FB2461C6F1380612
:1037C000A6616462C4F8585284F85C524FF40072E7
:1037D000294604F1580001F0BDFD1B4BE36503F1E0
:1037E00068022266D033636601220023C4E93C23C9
:1037F00043F20E33A4F8F8304AF6CD33A4F8FA3089
:1038000041F23423A4F8FC304EF26D63A4F8FE308C
:103810004DF6EC63A4F800310523A4F802310B2324
:10382000A4F804314A464146384601F08FF9206039
:10383000BAF1000F01D0CAF80040BDE8F0870023BC
:1038400084F83430ABE700BFA013022438B500245D
:1038500007E004EB840293000E481844FFF762FB74
:103860000134372CF5D90C4D2846FFF75BFB0B4C88
:103870002046FFF757FB0A48FFF754FB0948FFF7BC
:1038800051FB0948FFF74EFB084B1D60084B1C60BD
:1038900038BD00BF200300240C030024F8020024DC
:1038A000DC020024C8020024B0020024F402002438
:1038B000F002002410B5044601F074F9224A13689E
:1038C00001331360214B1B685BB1214B1B686BB943
:1038D0001E4B1B68DA6AE36A9A4207D81B4B1C60CE
:1038E00004E01A4B1C601368012B29D0194A136895
:1038F000013313606364E06A174B1B68984201D977
:10390000154B186000EB8000211D144B03EB800069
:10391000FFF716FB01F068F90D4B1B687BB10B4BF1
:103920001B68DA6AE36A9A4209D24FF0E0234FF04B
:103930008052C3F8042DBFF34F8FBFF36F8F10BDBC
:10394000FFF784FFD2E700BFAC0200248007002409
:10395000A002002490020024A402002420030024DA
:1039600010B50446583001F00DFD94F85D3263B196
:10397000012B11D0022B0ED04FF0500383F311888E
:10398000BFF36F8FBFF34F8FFEE7206B01F062F83C
:10399000204601F05FF810BD204601F05BF8FAE721
:1039A0000F4B1B68D3B110B501F0FCF80D4BDB6871
:1039B000DC68201DFFF7E8FA0B4A1368013B13602F
:1039C000074A1368013B136001F00EF92046FFF728
:1039D000C7FF034B1B68002BE6D110BD704700BF2B
:1039E000C4020024C8020024AC02002408B5FFF77A
:1039F000D7FF074B1B68012BF9D94FF0E0234FF09D
:103A00008052C3F8042DBFF34F8FBFF36F8FEEE7E3
:103A10002003002470B504460D46194B1E68194B4F
:103A200018680430FFF7B0FAB4F1FF3F14BF002369
:103A30000123002D08BF00236BB93444114B1B68D0
:103A40005C60A6420ED9104B18680E4B1968043101
:103A5000FFF781FA70BD0B4B196804310B48FFF773
:103A60006FFAF7E70A4B1868064B19680431FFF73D
:103A700072FA084B1B68A342ECD9064B1C60E9E7BD
:103A8000A802002480070024F0020024B0020024D1
:103A9000F40200248C02002430B587B00B9C8CB15A
:103AA0000C9DC5B14FF418750495049DB5F5187FAC
:103AB0001AD04FF0500383F31188BFF36F8FBFF319
:103AC0004F8FFEE74FF0500383F31188BFF36F8FE2
:103AD000BFF34F8FFEE74FF0500383F31188BFF31E
:103AE0006F8FBFF34F8FFEE7049D0C9D2C63022464
:103AF00085F85D4200240394029505AC01940A9C6C
:103B00000094FFF721FE0C98FFF7D4FE059807B04C
:103B100030BD2DE9F04385B00746884614461E4661
:103B2000900000F015FF10B381464FF4187000F0BC
:103B30000FFF0546A8B1C0F83090002380F85D3231
:103B4000039302900D9B01930C9B009333462246F6
:103B500041463846FFF7F8FD2846FFF7ABFE012047
:103B600007E0484600F076FF4FF0FF3001E04FF0ED
:103B7000FF3005B0BDE8F08338B5044601F012F817
:103B800024B3251D2846FFF7FFF9A36A1BB104F1F2
:103B90001800FFF7F9F91F4A1368013313601E4B31
:103BA0001B68A34215D01D4A1368013B13602046D1
:103BB000FFF7D6FEFFF7B2FD01F016F8184B1B68B1
:103BC0001BB1154B1B68A3420CD038BD124B1C68AF
:103BD000D7E729461348FFF7B3F9134A13680133AF
:103BE0001360E9E7114B1B6843B14FF0500383F3B7
:103BF0001188BFF36F8FBFF34F8FFEE74FF0E023C5
:103C00004FF08052C3F8042DBFF34F8FBFF36F8F77
:103C1000DBE700BF9002002480070024AC020024F0
:103C2000A0020024C8020024C4020024840200244C
:103C300010B588B000240594069407AA06A905A823
:103C400000F00AFE059B0293069B01930094234615
:103C5000079A1A491A48FFF71FFF1A4B1860E8B174
:103C600000F062FB01281AD14FF0500383F3118852
:103C7000BFF36F8FBFF34F8F134B1B685833134A3B
:103C80001360134B4FF0FF321A60124B01221A607F
:103C9000114B00221A6001F01FF803E00020B0F180
:103CA000FF3F01D008B010BD4FF0500383F31188DF
:103CB000BFF36F8FBFF34F8FFEE700BF6063000855
:103CC000ED39000888020024800700242000002429
:103CD0008C020024A0020024A8020024024A1368D7
:103CE00001331360704700BF84020024014B186841
:103CF000704700BFA8020024F8B53A4B1B68002BA0
:103D000069D1394B1D6801351D60C5B9374B1B683A
:103D10001B6843B14FF0500383F31188BFF36F8FDB
:103D2000BFF34F8FFEE7314A1168314B18681060BE
:103D30001960304A136801331360FFF7EFFC2E4B14
:103D40001B68AB423DD900272C4B1B68DB6A03EB99
:103D500083039A002A4B9B58012B00D90127294B3A
:103D60001B68002B3CD001273AE001271F4B1B6842
:103D70001B6843B31D4B1B68DB68DC6863689D42AE
:103D800026D3261D3046FFF7FFF8A36A1BB104F1C6
:103D90001800FFF7F9F8E36A1B4A1268934201D949
:103DA000194A136003EB83039A0031461448104408
:103DB000FFF7C6F8E26A114B1B68DB6A9A42D4D25D
:103DC000D4E70027D2E70C4B4FF0FF321A60BBE775
:103DD000094A1360B8E70D4A1368013313600027DE
:103DE0003846F8BD84020024A8020024F40200240E
:103DF000F0020024940200248C0200248007002496
:103E00002003002498020024A40200249C02002421
:103E100038B5354B1B6843B94FF0500383F3118815
:103E2000BFF36F8FBFF34F8FFEE700F0BBFE2E4B4B
:103E30001A68013A1A601B68002B4FD12B4B1B6884
:103E40000BB900244BE00024294B1B681BB3284B03
:103E5000DB68DC6804F11800FFF796F8251D28469A
:103E6000FFF792F8E06A234B1B68984201D9214B77
:103E7000186000EB800029461F4B03EB8000FFF722
:103E80005FF8E26A1D4B1B68DB6A9A42DCD31C4B6D
:103E900001221A60D8E70CB1FFF740FC194B1C68EF
:103EA00084B9174B1C68D4B14FF0E0234FF0805217
:103EB000C3F8042DBFF34F8FBFF36F8F01240EE0C3
:103EC000013C07D0FFF718FF0028F9D00C4B012266
:103ED0001A60F5E70B4B00221A60E2E7002400F0BD
:103EE00083FE204638BD00BF84020024AC020024BB
:103EF000DC020024A4020024200300248007002404
:103F0000980200249C02002410B5A8B10446104B6E
:103F10001B6843B14FF0500383F31188BFF36F8FD9
:103F2000BFF34F8FFEE7FFF7D9FE00212046FFF7D2
:103F300071FDFFF76DFF48B94FF0E0234FF080525D
:103F4000C3F8042DBFF34F8FBFF36F8F10BD00BFB9
:103F500084020024224B1B681BB1224B01221A60F1
:103F60007047204B00221A601F4B1B6803EB830134
:103F70008A001E498A585AB90BB1013BF6E74FF047
:103F8000500383F31188BFF36F8FBFF34F8FFEE7AA
:103F9000084603EB83018A00024451684968516076
:103FA00003EB830C4FEA8C020832024491420FD09B
:103FB00003EB830291000D4A0A445268D1680C4A0F
:103FC000116009490B60136858330A4A136070473F
:103FD000486862469100054A0A445060E8E700BF1D
:103FE0008402002498020024A40200242003002458
:103FF000800700242000002458B110B50C46094A5F
:1040000011681831FEF7A7FF01212046FFF702FDD6
:1040100010BD4FF0500383F31188BFF36F8FBFF3D0
:104020004F8FFEE78007002438B570B10D46144667
:104030000A4A11681831FEF783FF0CB14FF0FF35C3
:1040400021462846FFF7E6FC38BD4FF0500383F3C6
:104050001188BFF36F8FBFF34F8FFEE780070024F7
:1040600038B5C368DC6824B304F118052846FEF7A8
:104070008BFF184B1B682BBB251D2846FEF784FFC2
:10408000E06A154B1B68984201D9134B186000EB8E
:1040900080002946114B03EB8000FEF751FFE26AD6
:1040A0000F4B1B68DB6A9A4211D901200D4B186037
:1040B00038BD4FF0500383F31188BFF36F8FBFF308
:1040C0004F8FFEE729460848FEF73AFFE7E7002052
:1040D000EEE700BF84020024A40200242003002491
:1040E0008007002498020024DC020024034B1B6894
:1040F0000360034B1B684360704700BF94020024B9
:10410000A8020024E0B170B50C46054609B300F0E2
:1041100049FD1C4B19686B68C81A2268B2F1FF3F51
:1041200028D0DFF864C0DCF800C02E68664501D0F6
:104130008B4224D9824215D80023236001241AE03F
:104140004FF0500383F31188BFF36F8FBFF34F8F8E
:10415000FEE74FF0500383F31188BFF36F8FBFF377
:104160004F8FFEE75B1A134423602846FFF7BEFF1C
:10417000002400E0002400F037FD204670BD01243B
:10418000F9E700BFA802002494020024014B012299
:104190001A60704798020024054B1B6833B1054B29
:1041A0001B680BB100207047022070470120704748
:1041B000A00200248402002400283BD038B5044625
:1041C0001E4B1B68834208D04FF0500383F31188C5
:1041D000BFF36F8FBFF34F8FFEE7036D43B94FF00F
:1041E000500383F31188BFF36F8FBFF34F8FFEE748
:1041F000013B0365C16AC26C91421DD00BB1002026
:1042000038BD051D2846FEF7BFFEE06CE062C0F138
:104210003803A3610A4B1B68984201D9084B186008
:1042200000EB80002946074B03EB8000FEF788FE79
:104230000120E5E7002070470020E1E78007002427
:10424000A402002420030024064B1A6813682BB92B
:104250000123036023B9D368186870470023F8E787
:10426000002070478408002408B541600061914235
:104270000CD8D21A83699A4201D3012008BD011DCE
:104280000B4B1868FEF767FE0020F7E79A422CBF39
:1042900000220122994238BF00220AB10120EDE735
:1042A000011D044B1868FEF756FE0020E6E700BF2C
:1042B000800800248408002430B583B000F072FC2C
:1042C000114B1B681BB100F08FFC03B030BD0F4DCC
:1042D0002846FEF727FE0E4C2046FEF723FE0D4B28
:1042E0001D600D4B1C60002300930C4B0C4A1021E9
:1042F0000A20FEF74FFF044B18600028E3D009495D
:10430000FFF7CEF9DFE700BF7C0800249C080024FB
:1043100088080024840800248008002484070024DE
:10432000D40700246863000810B588B0FFF7C4FF05
:10433000124B1B68CBB100240594069407AA06A96A
:1043400005A800F095FA059B0293069B01930223B2
:1043500000932346079A0A490A48FFF79DFB0A4B38
:10436000186010B1012008B010BD4FF0500383F366
:104370001188BFF36F8FBFF34F8FFEE77C080024D7
:10438000706300089146000878080024B8B19C4684
:1043900003461848006858B300B585B000910192F3
:1043A000029305291CDCFFF7F7FE022810D000233A
:1043B0001A4669460F480068FEF73FFF15E04FF0C8
:1043C000500383F31188BFF36F8FBFF34F8FFEE766
:1043D0000023069A694607480068FEF72EFF04E0AE
:1043E000002362466946FEF7ECFF05B05DF804FB6A
:1043F000002070477C08002470B582B01B4B1B68FE
:104400001A6862B3DB681E68DC68251D2846FEF763
:10441000BBFD236A2046984794F8283013F0040F18
:10442000ECD0A36933449E4207D2636024612946DD
:104430000E4B1868FEF78FFDE0E7002100910B4658
:1044400032462046FFF7A2FF0028D7D14FF0500395
:1044500083F31188BFF36F8FBFF34F8FFEE7044ADA
:10446000106802490860136002B070BD840800241F
:104470008008002438B50546FFF738FC0446074B92
:104480001B68834205D800232B60044B1C60204628
:1044900038BDFFF7B1FF01232B60F6E77408002455
:1044A00070B582B006460D4617490968C968CC68E0
:1044B000201DFEF769FD94F828C01CF0040F08D1F8
:1044C0002CF0010C84F828C0236A2046984702B0DB
:1044D00070BDA16933462A4631442046FFF7C4FE29
:1044E0000028F1D0002100910B4632462046FFF70C
:1044F0004DFF0028E8D14FF0500383F31188BFF33C
:104500006F8FBFF34F8FFEE78408002470B582B031
:1045100006460C46FFF7E2FB01A8FFF7ABFF019B45
:104520003BBB0546B04228BF002C19D024B1134A2A
:1045300012681268DAB901242246711B104B186800
:10454000FFF7C2F8FFF764FCA8B94FF0E0234FF083
:104550008052C3F8042DBFF34F8FBFF36F8F0AE073
:10456000FFF756FC29463046FFF79AFF03E01C464A
:10457000E2E7FFF74DFC02B070BD00BF80080024E9
:104580007C08002410B588B002E0049B002B0FDAF1
:10459000002204A93D4B1868FEF7D3FF002872D013
:1045A000049B002BF1DA07990698059B9847ECE7E6
:1045B000069C636913B1201DFEF7E6FC03A8FFF714
:1045C00059FF0246049B092BE2D8DFE803F00505FA
:1045D000052F364E05052F3694F8283043F0010399
:1045E00084F82830059BA16919442046FFF73CFE5A
:1045F0000028CDD0236A2046984794F8283013F03D
:10460000040FC5D0A269002100910B460598024411
:104610002046FFF7BBFE0028BAD14FF0500383F3CA
:104620001188BFF36F8FBFF34F8FFEE794F82830E8
:1046300023F0010384F82830AAE794F8283043F0E7
:10464000010384F828300599A16129B1034601448A
:104650002046FFF709FE9BE74FF0500383F31188D4
:10466000BFF36F8FBFF34F8FFEE794F8283013F03E
:10467000020F04D023F0010384F8283088E7204695
:1046800000F0E8F984E708B010BD00BF7C08002402
:1046900000B583B001A8FFF7D7FD0199FFF736FFFA
:1046A000FFF770FFF6E708B54FF0E0231B69FFF74F
:1046B00073FD012800D108BD00F0E4FAFBE700001B
:1046C000EFF305832BB9064B186828B901221A604D
:1046D00070476FF0050070474FF0FF30704700BF24
:1046E00070130024EFF3058373B90A4B1B68012B89
:1046F0000DD110B50024084BDC77064B02221A605E
:10470000FFF796FA204610BD6FF0050070474FF096
:10471000FF3070477013002400ED00E0F0B587B063
:1047200000240594EFF305840CBB00B3002A35D0B8
:10473000156893692BB11E46013B372B02D9002027
:1047400016E01826536813F0010F40D154698CB15C
:104750004FEA940C936833B1D768B7F5187F02D34A
:10476000176907B184B943B14FF0FF330BB3059814
:1047700007B0F0BD4FF0800CECE7D368A3B9136924
:10478000ABB14FF0FF33F1E70293019700960B4670
:1047900062462946FFF780F90590E8E715460023B1
:1047A00018264FF0800CE1E74FF0FF33DEE70023DF
:1047B000DCE705AB019300960B461FFA8CF2294605
:1047C000FFF7A7F90128D2D000230593CFE70020F7
:1047D000CEE708B50020FFF7CFF9FEE708B5EFF305
:1047E000058333B908B9002008BDFFF78DFB002011
:1047F000FAE76FF00500F7E720B300B583B0EFF3F9
:104800000583A3B10023019301A9FEF741FE01280E
:104810001BD1019898B14FF0E0234FF08052C3F8BC
:10482000042DBFF34F8FBFF36F8F002007E00023ED
:104830001A461946FEF701FD012809D1002003B0F0
:104840005DF804FB6FF0030070476FF00200F6E7BD
:104850006FF00200F3E70000034B0360034B0B60B3
:1048600080231360704700BF10110024100F002434
:10487000034B0360034B0B604FF48073136070476E
:10488000B00C0024B0080024124A12F0070F1ED00A
:10489000D11D21F00701C1F5003313440A460E482B
:1048A0000260002141601344083B23F007030B48DA
:1048B000036059601960991A51601360084B1960C0
:1048C000084B1960084B4FF000421A6070474FF4D4
:1048D0000033E4E7941300248C130024881300248D
:1048E000801300248413002474130024164B1A46EA
:1048F0001B688342FBD3516802EB010C844509D04D
:10490000416800EB010C634509D00360904219D067
:10491000106070474068014451601046F0E710B4E1
:104920000A4C2468A3420BD05B68194441601368A9
:104930001B680360904200D010605DF8044B704724
:104940000460F7E7704700BF8C130024881300242D
:1049500038B50446FFF7C2F9384B1B68B3B1384B82
:104960001B681C4250D1002C50D004F1080214F0F6
:10497000070F02D022F007020832002A55D0314B2F
:104980001B68934253D330490C6804E0FFF77CFF67
:10499000E5E721461C466368934202D22368002B58
:1049A000F7D1264B1B68A34243D00D680835236816
:1049B0000B6063689B1A102B10D9A01810F0070F1A
:1049C00008D04FF0500383F31188BFF36F8FBFF30C
:1049D0004F8FFEE743606260FFF788FF6268194906
:1049E0000B689B1A0B60194909688B4201D2174961
:1049F0000B60134B1B681343636000232360144A4E
:104A000013680133136002E0002500E00025FFF782
:104A1000FFF915F0070F0ED04FF0500383F3118804
:104A2000BFF36F8FBFF34F8FFEE70025EFE7002541
:104A3000EDE70025EBE7284638BD00BF88130024CA
:104A400074130024841300248C1300248013002486
:104A50007C130024002834D038B50446A0F10805A2
:104A600050F8043C174A1268134208D14FF0500323
:104A700083F31188BFF36F8FBFF34F8FFEE750F8BA
:104A8000081C41B14FF0500383F31188BFF36F8FBF
:104A9000BFF34F8FFEE723EA020340F8043CFFF721
:104AA0001DF954F8041C084A13680B441360284687
:104AB000FFF71CFF054A136801331360FFF7A8F9DD
:104AC00038BD704774130024841300247813002425
:104AD00082B0002301930D4B1B68B3F1FF3F08D058
:104AE0004FF0500383F31188BFF36F8FBFF34F8FE5
:104AF000FEE74FF0500383F31188BFF36F8FBFF3CE
:104B00004F8F019B002BFCD002B070471000002497
:104B100008480068006880F308884FF0000080F3C0
:104B2000148862B661B6BFF34F8FBFF36F8F00DF9B
:104B300000BF000008ED00E0DFF80C00016841F460
:104B4000700101607047000088ED00E04FF0807355
:104B500040F8043C21F0010140F8081C054B40F8E6
:104B60000C3C40F8202C6FF0020340F8243C443801
:104B7000704700BFD14A000800000000000000009C
:104B8000074B19680868B0E8F04F80F30988BFF355
:104B90006F8F4FF0000080F311887047AFF30080F3
:104BA000800700244FF0500383F31188BFF36F8F09
:104BB000BFF34F8F0B4A136801331360012B00D0F2
:104BC00070474FF0E023D3F8043D13F0FF0FF7D008
:104BD0004FF0500383F31188BFF36F8FBFF34F8FF4
:104BE000FEE700BF10000024094B1B6843B94FF0DB
:104BF000500383F31188BFF36F8FBFF34F8FFEE72E
:104C0000013B034A13600BB983F31188704700BF5F
:104C10001000002400000000000000000000000060
:104C2000EFF30980BFF36F8F154B1A681EF0100F5A
:104C300008BF20ED108A20E9F04F106009B44FF052
:104C4000500080F31188BFF34F8FBFF36F8FFFF7D2
:104C500081F94FF0000080F3118809BC19680868D9
:104C6000B0E8F04F1EF0100F08BFB0EC108A80F3D0
:104C70000988BFF36F8F7047AFF30080AFF30080F8
:104C80008007002408B54FF0500383F31188BFF369
:104C90006F8FBFF34F8FFFF72FF828B14FF0E0234E
:104CA0004FF08052C3F8042D002383F3118808BD10
:104CB0004FF0E022002313619361054B1B68054907
:104CC000A1FB03139B09013B536107231361704749
:104CD0000C000024D34D62104FF0E023D3F8002DD8
:104CE0003D4B9A421CD04FF0E023D3F8002D3B4BB4
:104CF0009A421ED030B583B0394B1A78D2B20192A5
:104D0000FF221A701B78DBB28DF803309DF8033058
:104D100003F05003334A1370334B07221A601BE031
:104D20004FF0500383F31188BFF36F8FBFF34F8FA2
:104D3000FEE74FF0500383F31188BFF36F8FBFF38B
:104D40004F8FFEE7284A1368013B13609DF803303C
:104D50005B00DBB28DF803309DF8033013F0800F59
:104D6000F0D1214B1B68032B08D04FF0500383F385
:104D70001188BFF36F8FBFF34F8FFEE71B021A4AF4
:104D8000136003F4E0631360019BDBB2144A1370F9
:104D90004FF0E024D4F8203D43F47003C4F8203DE4
:104DA000D4F8203D43F07043C4F8203DFFF780FF66
:104DB00000250E4B1D60FFF7BFFED4F8343F43F0D3
:104DC0004043C4F8343FFFF7A3FEFFF7C3F8FFF7F3
:104DD0007FFE284603B030BD71C20F4170C20F4143
:104DE00000E400E09813022494130224100000242D
:104DF000EFF305830F2B0ED9114A9A5C114B1B78E8
:104E00009A4208D24FF0500383F31188BFF36F8F9B
:104E1000BFF34F8FFEE74FF0E023D3F80C3D03F4D0
:104E2000E063094A1268934208D94FF0500383F3B4
:104E30001188BFF36F8FBFF34F8FFEE7704700BF3E
:104E4000F0E300E0981302249413022410B5034603
:104E50000C4A0D490D48006840B10C4800680344F5
:104E6000521A934206D8094A136010BD0748084CED
:104E70000460F2E700F01AFB0C2303604FF0FF30F0
:104E8000F3E700BF00000220002000009C13022472
:104E9000F014022470B50C461646002506E0AFF368
:104EA0000080214601F8010B01350C46B542F6DBC6
:104EB000304670BD70B50C461646002504E014F867
:104EC000010BFBF7D1FD0135B542F8DB304670BD73
:104ED0004FF0FF3070474FF400534B600020704795
:104EE0000120704700207047DFF838D0FEF70CF83B
:104EF000FDF782FF0C480D490D4A002302E0D4580B
:104F0000C4500433C4188C42F9D30A4A0A4C002313
:104F100001E013600432A242FBD300F0CDFAFBF7AC
:104F2000F3FB704700000220000000247000002402
:104F3000E463000870000024EC140224FEE7000083
:104F4000002310B50446C0E90033C0E90433836090
:104F500081814366C2818361194608225C3000F07A
:104F6000F9F90D4B63620D4BA3620D4BE3620D4BE0
:104F700023630D4B24629C4206D003F168029442E5
:104F800002D0D0339C4205D104F15800BDE8104056
:104F900000F0B6BA10BD00BFA9510008CB510008FF
:104FA0000352000829520008A0130224024A0349B0
:104FB000034800F06BB800BF14000024BD5D00087A
:104FC0002400002441680C4B994210B5044601D0DE
:104FD00000F0F4FEA168094B994202D0204600F08F
:104FE000EDFEE168064B994204D02046BDE8104032
:104FF00000F0E4BE10BD00BFA01302240814022478
:10500000701402240C4B0D4A0D4810B504211A608F
:105010000022FFF795FF0A4B01221C46092103F1EC
:105020006800FFF78DFF04F1D0000222BDE81040B8
:105030001221FFF785BF00BFD8140224AD4F00082E
:10504000A0130224014800F05CBA00BFE11402245E
:10505000014800F057BA00BFE114022410B504461D
:10506000FFF7F0FF236A1BB1BDE81040FFF7F0BF68
:10507000044B2362044B1B68002BF5D1FFF7C2FFE2
:10508000F2E700BFC54F0008D81402242DE9F84309
:105090000746884614460026D4E90195B9F101096E
:1050A00005D52468002CF7D13046BDE8F883AB89DC
:1050B000012B07D9B5F90E30013303D02946384604
:1050C000C04706436835E9E70FB407B5064904ABA6
:1050D000086853F8042B8168019300F045FB03B086
:1050E0005DF804EB04B0704720000024036A70B53B
:1050F000846805460E460BB9FFF7B0FF636EDB0709
:1051000005D4A389980502D4A06D00F0FAF9A3890B
:10511000190702D52369002B35D12146284600F016
:10512000C5F880B34FF0FF35636EDA0705D4A38965
:105130009B0502D4A06D00F0E5F9284670BD002B58
:1051400004DAA269934217DB0A2915D023685A1C96
:1051500022601970A36816F8011F013BA3600029A3
:10516000EDD1002B11DA22460A21284600F060F822
:105170000130D7D00A25D7E72246284600F058F854
:105180000130E7D1CEE7013EE4E723685A1C2260F4
:105190000A221A70EEE70000024B01461868FFF77A
:1051A000A5BF00BF2000002410B50C46B1F90E10B9
:1051B00000F058F90028ABBF636DA3891B1823F4D6
:1051C0008053ACBF6365A38110BD2DE9F0411F463C
:1051D0008B89DB0505460C46164605D5B1F90E1040
:1051E0000223002200F02CF9A389B4F90E1023F455
:1051F0008053A38132463B462846BDE8F04100F08B
:1052000043B910B50C46B1F90E1000F019F9B4F914
:105210000C30421C0BBF23F4805343F48053A38112
:10522000A38118BF606510BDB1F90E1000F09AB8E7
:10523000F8B50E461446054618B1036A0BB9FFF7D8
:105240000DFFA369A360A3891A0701D5236943B998
:105250002146284600F02AF818B14FF0FF373846AB
:10526000F8BD23682269981A6369F6B2834237460B
:1052700005DC2146284600F0A1FD0028EDD1A368F9
:10528000013BA36023685A1C22601E706269431CA4
:105290009A4204D0A389DB07E1D50A2EDFD121464B
:1052A000284600F08BFD0028D9D0D6E738B5284B2A
:1052B000054618680C4618B1036A0BB9FFF7CEFE15
:1052C000B4F90C301A0721D4D80607D409222A6071
:1052D00043F04003A3814FF0FF3030E0590712D56F
:1052E000616B41B104F14403994202D0284600F0B9
:1052F00019F9002363630022B4F90C30626022695B
:10530000226023F0240343F00803A38122693AB901
:105310009A0501D5180603D52146284600F09AFDC6
:10532000B4F90C3013F001020AD00022A2606269C5
:105330005242A261226942B913F08000C8D138BD3F
:10534000990758BF6269A260F4E70020F7E700BF41
:105350002000002402440346934200D1704703F822
:10536000011BF9E738B5064D0023044608462B60BB
:10537000FFF7AEFD431C02D12B6803B1236038BD9B
:10538000DC1402242D4B1B68834270B5044653D0B5
:10539000C3691BB3DB6863B10025E369DB68595956
:1053A000B1B90435802DF8D1E3692046D96800F001
:1053B000B9F8E369196811B1204600F0B3F8E36960
:1053C0009D685DB1294620462D6800F0ABF8F8E7EE
:1053D0000E68204600F0A6F83146E1E7616911B198
:1053E000204600F09FF8E16911B1204600F09AF8DC
:1053F000216B11B1204600F095F8616B11B1204688
:1054000000F090F8A16B11B1204600F08BF8A16C70
:1054100011B1204600F086F8616C11B1204600F011
:1054200081F8E16A11B1204600F07CF8236A1BB1D3
:105430002046BDE87040184770BD00BF2000002422
:1054400038B5074D04460846114600222A601A4620
:10545000FFF748FD431C02D12B6803B1236038BD20
:10546000DC14022438B5074D0446084611460022D4
:105470002A601A46FFF70EFD431C02D12B6803B1C8
:10548000236038BDDC14022438B5074D04460846B5
:10549000114600222A601A46FFF70CFD431C02D178
:1054A0002B6803B1236038BDDC140224014B18685B
:1054B000704700BF2000002470B50D4B0D4D5B1BE5
:1054C0009C100026A64209D100F0ACFE0A4D0B4B01
:1054D0005B1B9C100026A64205D170BD55F8043B0D
:1054E00098470136EEE755F8043B98470136F2E756
:1054F000DC630008DC630008DC630008E06300088C
:105500007047704770470A44914200F1FF3300D161
:10551000704710B511F8014B03F8014F9142F9D1D2
:1055200010BD000038B50546002941D051F8043CB3
:105530000C1F002BB8BFE41800F0E0F81D4A1368F8
:1055400033B9636014602846BDE8384000F0DCB829
:10555000A34208D9206821188B4201BF19685B68F3
:1055600009182160EDE71A465B680BB1A342FAD92E
:1055700011685018A0420BD1206801445018834292
:105580001160E0D118685B68536008441060DAE786
:1055900002D90C232B60D6E7206821188B4204BF68
:1055A00019685B68636004BF091821605460CAE72A
:1055B00038BD00BFE814022470B50F4E0C463168A8
:1055C000054611B900F0A2FC30602146284600F0E3
:1055D0009DFC431C03D14FF0FF34204670BDC41C1A
:1055E00024F00304A042F8D0211A284600F08EFCD3
:1055F0000130F2D1EFE700BFE41402242DE9F843B3
:10560000CD1C25F0030508350C2D38BF0C25002DC9
:10561000064601DBA94204D90C2333600020BDE813
:10562000F883DFF8D48000F069F8D8F800301C4621
:1056300044BB29463046FFF7BFFF431C044658D100
:10564000D8F800402746002F43D1002C4BD02368C8
:105650003946304604EB030900F058FC814542D13D
:1056600021686D1A29463046FFF7A6FF01303AD06F
:1056700023682B442360D8F800305A6862BBC8F80E
:1056800000700FE02268521B20D40B2A17D9611931
:10569000A342256018BF5960636808BFC8F80010AE
:1056A00062514B60304600F02FF804F10B00231DCF
:1056B00020F00700C21A1CBF1B1AA350AFE7626894
:1056C000A3420CBFC8F800205A60EBE72346646889
:1056D000AEE73C467F68B6E71A465B68A342FBD15B
:1056E00000235360DEE70C233360304600F00CF8F3
:1056F00094E70560D6E700BFE81402240148FFF7ED
:1057000000BF00BFE01402240148FFF7FBBE00BF4A
:10571000E01402249368013B002B10B4936008DA74
:105720009469A34201DB0A2903D15DF8044BFFF71A
:105730007FBD1368581C1060197008465DF8044B53
:105740007047F8B506460F461446D518AC4201D14D
:10575000002007E014F8011B3A463046FFF7DAFF55
:10576000431CF3D1F8BD00002DE9F0470D469CB075
:1057700014461F46064618B1036A0BB9FFF76EFCC4
:105780006B6ED90705D4AB899A0502D4A86DFFF7D3
:10579000B8FEAB891B0701D52B699BB9294630465A
:1057A000FFF784FD70B16B6EDC0704D54FF0FF305E
:1057B0001CB0BDE8F087AB899805F7D4A86DFFF75A
:1057C000A1FEF3E70023099320238DF829300397E6
:1057D00030236A4F8DF82A304FF00108234699464E
:1057E00013F8012B0AB1252AF9D1B9EB040A0BD021
:1057F0005346224629463046FFF7A3FF013000F00A
:10580000A480099A5244099299F80030002B00F0C4
:105810009C8000234FF0FF32CDE9052309F10109F7
:10582000049307938DF853301A934C46534814F859
:10583000011B0522FAF734FD049BD0B9D90644BFF9
:1058400020228DF853201A0744BF2B228DF85320B5
:1058500099F800202A2A13D0079A4C4600204FF0CE
:105860000A0C214611F8013B303B092B49D968B994
:1058700013E0C01B08FA00F018430490A146D4E7D7
:10588000039A111D12680391002A01DB079204E0BC
:10589000524243F002030792049323782E2B0AD13D
:1058A00063782A2B32D1039B1A1D1B68039243EAAB
:1058B000E37302340593DFF8D4902178032248463D
:1058C000FAF7EEFC38B1049BA0EB090040228240BD
:1058D00013430134049314F8011B29488DF8281050
:1058E0000622FAF7DDFC00283ED0264818BB039BB1
:1058F000073323F0070308330393099B03440993F9
:105900006CE70CFB02320C460120AAE700230134AD
:10591000059319464FF00A0C204610F8012B303A37
:10592000092A03D9002BC6D00591C4E70CFB01213D
:1059300004460123F0E703AB00932A46124B04A967
:105940003046AFF30080431CD7D16B6ED90705D426
:10595000AB899A0502D4A86DFFF7D4FDAB895B062D
:105960003FF524AF099823E703AB00932A46064B83
:1059700004A9304600F07AF8E5E700BFA06300080C
:10598000AA6300080000000043570008A66300084F
:105990002DE9F047164698468A680B69DDF8209095
:1059A0009342B8BF1346336091F8432007460C4634
:1059B0000AB1013333602368990642BF336802336A
:1059C0003360256815F0060506D104F1190AE3686D
:1059D00032689B1AAB4226DC94F843302268003BC5
:1059E00018BF012392062BD404F1430241463846E6
:1059F000C84701301ED02368226903F00603042B38
:105A000002BFE5683368ED1AA3680CBF25EAE575A7
:105A100000259342C4BF9B1AED1800261A34B542E4
:105A20001AD1002008E00123524641463846C847B3
:105A3000013003D14FF0FF30BDE8F0870135C6E7F4
:105A4000E1185A1C302081F84300224494F8451094
:105A500082F843100233C7E7012322464146384605
:105A6000C8470130E6D00136D9E700002DE9F04300
:105A70000D7E85B0782D90460C9E07460C469946C3
:105A800001F1430207D8622D0AD8002D00F0D7801B
:105A9000582D00F0BC8004F1420684F842503BE0EF
:105AA000A5F16303152BF6D801A151F823F000BF2F
:105AB000095B00081D5B0008975A0008975A000808
:105AC000975A0008975A00081D5B0008975A00086B
:105AD000975A0008975A0008975A0008255C000852
