:020000040810E2
:1000000000800410614310085110100853101008AC
:100010005510100857101008591010080000000063
:100020000000000000000000000000005B1010084D
:100030005D101008000000005F101008611010082B
:10004000FD431008FD431008FD431008FD43100850
:10005000FD431008FD431008FD431008FD43100840
:10006000FD431008FD431008FD431008FD43100830
:10007000FD431008FD431008FD431008FD43100820
:10008000FD431008FD431008FD431008FD43100810
:10009000FD431008FD431008FD431008FD43100800
:1000A000FD431008FD431008FD431008FD431008F0
:1000B000FD431008FD431008FD431008FD431008E0
:1000C000FD431008FD431008FD431008FD431008D0
:1000D000FD431008FD431008FD431008FD431008C0
:1000E000FD431008FD43100800000000FD43100808
:1000F000FD431008FD431008FD431008FD431008A0
:10010000FD431008FD431008FD431008FD4310088F
:10011000FD431008FD431008FD431008FD4310087F
:10012000FD431008FD431008FD431008FD4310086F
:10013000FD431008FD431008FD431008FD4310085F
:10014000FD431008FD4310080000000000000000FF
:10015000FD431008FD431008FD431008FD4310083F
:10016000FD431008FD431008FD431008FD4310082F
:10017000FD431008FD431008FD431008FD4310081F
:10018000FD431008FD431008FD431008FD4310080F
:10019000FD431008FD431008FD431008FD431008FF
:1001A000FD431008FD431008FD431008FD431008EF
:1001B000FD431008FD431008FD431008FD431008DF
:1001C000FD431008FD431008FD431008FD431008CF
:1001D000FD431008FD431008FD431008FD431008BF
:1001E000FD431008FD431008FD431008FD431008AF
:1001F000FD431008FD431008FD431008FD4310089F
:10020000FD431008FD431008FD431008FD4310088E
:10021000FD431008FD431008FD431008FD4310087E
:10022000FD431008FD431008FD43100800000000C6
:10023000FD431008FD431008FD431008FD4310085E
:10024000FD431008FD431008FD431008FD4310084E
:10025000FD431008FD431008FD431008FD4310083E
:10026000FD431008FD431008FD431008FD4310082E
:10027000FD431008FD431008FD431008FD4310081E
:10028000FD431008FD431008FD4310080000000066
:08029000FD431008FD431008B6
:1002A00001F0FF01102A2BDB10F0070F08D010F827
:1002B000013B013A8B422DD010F0070F42B3F6D12B
:1002C000F0B441EA012141EA014122F007047FF044
:1002D00000070023F0E80256083C85EA010586EA9B
:1002E000010685FA47F5A3FA87F586FA47F6A5FAD7
:1002F00087F68EB9EED1F0BC01F0FF0102F00702E3
:1003000032B110F8013B013A83EA010313B1F8D18D
:100310000020704701387047002D06BF354603386E
:10032000073815F0010F07D1013015F4807F02BFA7
:10033000013015F4C03F0130F0BC0138704700BFF8
:1003400080F0004002E000BF81F0004142001FBF8A
:100350005FEA410392EA030F7FEA226C7FEA236C93
:100360006AD04FEA1262D2EB1363C1BFD218414088
:1003700048404140B8BF5B42192B88BF704710F01E
:10038000004F40F4000020F07F4018BF404211F0C1
:10039000004F41F4000121F07F4118BF494292EA29
:1003A000030F3FD0A2F1010241FA03FC10EB0C0055
:1003B000C3F1200301FA03F100F0004302D54942E2
:1003C00060EB4000B0F5000F13D3B0F1807F06D38F
:1003D00040084FEA310102F10102FE2A51D2B1F187
:1003E000004F40EBC25008BF20F0010040EA03007C
:1003F0007047490040EB0000013A28BFB0F5000FFC
:10040000EDD2B0FA80FCACF1080CB2EB0C0200FAB1
:100410000CF0AABF00EBC25052421843BCBFD04000
:100420001843704792F0000F81F4000106BF80F47A
:1004300000000132013BB5E74FEA41037FEA226C3D
:1004400018BF7FEA236C21D092EA030F04D092F008
:10045000000F08BF0846704790EA010F1CBF00203C
:10046000704712F07F4F04D1400028BF40F0004099
:10047000704712F100723CBF00F50000704700F0B9
:10048000004343F0FE4040F4000070477FEA2262E0
:1004900016BF08467FEA23630146420206BF5FEAB1
:1004A000412390EA010F40F4800070474FF00003B1
:1004B00004E000BF10F0004348BF40425FEA000C78
:1004C00008BF704743F0964301464FF000001CE020
:1004D00050EA010208BF70474FF000030AE000BF76
:1004E00050EA010208BF704711F0004302D54042B4
:1004F00061EB41015FEA010C02BF84460146002026
:1005000043F0B64308BFA3F18053A3F50003BCFA40
:100510008CF2083AA3EBC25310DB01FA02FC6344ED
:1005200000FA02FCC2F12002BCF1004F20FA02F2F4
:1005300043EB020008BF20F00100704702F12002E7
:1005400001FA02FCC2F1200250EA4C0021FA02F248
:1005500043EB020008BF20EADC7070474FF0FF0C4D
:100560001CEAD0521EBF1CEAD15392EA0C0F93EA48
:100570000C0F6FD01A4480EA010C400218BF5FEAEA
:1005800041211ED04FF0006343EA501043EA51115D
:10059000A0FB01310CF00040B1F5000F3EBF490057
:1005A00041EAD3715B0040EA010062F17F02FD2A5B
:1005B0001DD8B3F1004F40EBC25008BF20F001003E
:1005C000704790F0000F0CF0004C08BF49024CEA55
:1005D000502040EA51207F3AC2BFD2F1FF0340EAE7
:1005E000C250704740F400004FF00003013A5DDC58
:1005F00012F1190FDCBF00F000407047C2F1000299
:10060000410021FA02F1C2F1200200FA02FC5FEA85
:10061000310040F1000053EA4C0308BF20EADC70CF
:10062000704792F0000F00F0004C02BF400010F441
:10063000000F013AF9D040EA0C0093F0000F01F0EE
:10064000004C02BF490011F4000F013BF9D041EA10
:100650000C018FE70CEAD15392EA0C0F18BF93EA12
:100660000C0F0AD030F0004C18BF31F0004CD8D13C
:1006700080EA010000F00040704790F0000F17BFC3
:1006800090F0004F084691F0000F91F0004F14D009
:1006900092EA0C0F01D142020FD193EA0C0F03D161
:1006A0004B0218BF084608D180EA010000F0004064
:1006B00040F0FE4040F40000704740F0FE4040F43F
:1006C000400070474FF0FF0C1CEAD0521EBF1CEADE
:1006D000D15392EA0C0F93EA0C0F69D0A2EB0302FC
:1006E00080EA010C49024FEA402037D04FF0805396
:1006F00043EA111143EA10130CF000408B4238BF5B
:100700005B0042F17D024FF4000C8B4224BF5B1A68
:1007100040EA0C00B3EB510F24BFA3EB510340EAB6
:100720005C00B3EB910F24BFA3EB910340EA9C0064
:10073000B3EBD10F24BFA3EBD10340EADC001B01D4
:1007400018BF5FEA1C1CE0D1FD2A3FF650AF8B4278
:1007500040EBC25008BF20F0010070470CF0004C85
:100760004CEA50207F32C2BFD2F1FF0340EAC250B0
:10077000704740F400004FF00003013A37E792F071
:10078000000F00F0004C02BF400010F4000F013ACF
:10079000F9D040EA0C0093F0000F01F0004C02BFCA
:1007A000490011F4000F013BF9D041EA0C0195E733
:1007B0000CEAD15392EA0C0F08D142027FF47DAFCC
:1007C00093EA0C0F7FF470AF084676E793EA0C0FBC
:1007D00004D14B023FF44CAF08466EE730F0004CBA
:1007E00018BF31F0004CCAD130F000427FF45CAF4A
:1007F00031F000437FF43CAF5FE700BF42000ED210
:10080000B2F1FE4F0BD34FF09E03B3EB126209D44B
:100810004FEA002343F0004323FA02F070474FF001
:100820000000704712F1610F01D1420202D14FF076
:10083000FF3070474FF00000704700BF53B94AB90E
:10084000002908BF00281CBF4FF0FF314FF0FF30D8
:1008500000F00CB8ADF1080C6DE904CE04F0F6FC24
:10086000DDF804E0DDE9022304B07047704700BF03
:100870000348044B834202D0034B03B1184770472F
:100880006C0000106C000010000000000548064BD2
:100890001B1AD90F01EBA301491002D0034B03B17E
:1008A000184770476C0000106C000010000000003A
:1008B00010B5064C237843B9FFF7DAFF044B13B1A8
:1008C0000448AFF300800123237010BD6C000010BA
:1008D000000000004455100808B5054B1BB1054940
:1008E0000548AFF30080BDE80840FFF7CFBF00BF69
:1008F0000000000070000010445510082DE9F0437E
:1009000089B003AD002403940494059406940794DD
:10091000274BD3F8E02042F00802C3F8E020D3F8D8
:10092000E02002F008020192019AD3F8E02042F0A0
:100930000202C3F8E020D3F8E03003F00203029390
:10094000029BDFF8708022460221404602F029FC1B
:10095000194F224644F20101384602F022FC0126DA
:10096000039604944FF00209CDF8149029464046AE
:1009700002F0FCFACDF80C900496059406942946F2
:10098000404602F0F3FA039604960594069429462D
:10099000384602F0EBFA4FF4804303930496059433
:1009A00006942946384602F0E1FA09B0BDE8F08322
:1009B00000440258000C02580004025882B072B67B
:1009C00010E0009B01330093009A0C4B9A42F8DD33
:1009D0000B4B4FF080429A6100230193019A074B21
:1009E0009A4206DD064B4FF480429A610023009341
:1009F000EAE7019B01330193F0E700BF1FA1070065
:100A00000004025800B59DB04C22002109A803F053
:100A100011FE2022002101A803F00CFE042002F0A8
:100A2000DFFB00230093284BDA6A22F00102DA622E
:100A3000DB6A03F001030093244A936923F44043E3
:100A400043F400439361936903F440430093009B94
:100A50001E4B9B6913F4005FFAD002230993012215
:100A60000C9240220D9212930022139204211491B1
:100A70001C21159116930521179118930C23199396
:100A80001A924FF480631B9309A800F0CDFBB8B90C
:100A90003F230193032302930023039304934023F2
:100AA0000593502206924FF4806207920893042126
:100AB0000DEB010001F022F820B91DB05DF804FB38
:100AC000FFF77CFFFFF77AFF000400580048025848
:100AD00000B589B01D4BD3F8E82042F00102C3F8FD
:100AE000E820D3F8E83003F001030093009B0023D3
:100AF0000493059306930793019302930393144879
:100B00004FF080420260436083604FF0FF32C2606A
:100B10000361836102F03CFD90B94FF4805304936C
:100B200004A90B4802F070FD60B900230193039300
:100B300001A9074802F004FE30B909B05DF804FBD2
:100B4000FFF73CFFFFF73AFFFFF738FF004402587A
:100B50001C01001008B51548154B03604FF4E13334
:100B6000436000238360C36003610C2242618361A0
:100B7000C36103624362836203F068FB70B90021C2
:100B80000A4802F072FE58B90021084802F092FEAD
:100B900040B9064802F04AFE30B908BDFFF70EFF23
:100BA000FFF70CFFFFF70AFFFFF708FF88000010B0
:100BB000004C0040F0B585B0B84AD2F8E03043F0C0
:100BC0000203C2F8E0300023009302E0009B0133EF
:100BD0000093009A42F20F739A42F7DDB04B1A6805
:100BE00022F003021A601A6842F001021A601A68C1
:100BF00022F040521A601A6842F080521A600021B6
:100C000018E0019B01330193019AA64B9A42F8DD4B
:100C1000A34B4FF480329A614FF080429A610023D7
:100C2000029302E0029B01330293029A9D4B9A4287
:100C3000F8DD0131012908DC994B01229A614FF45A
:100C400080429A6100230193DEE702F037FBFFF751
:100C5000D9FE954B4FF001629A60FFF74FFEFFF708
:100C600037FFFFF777FF8D4CD4F8E03043F0007387
:100C7000C4F8E030D4F8E03003F000730393039B32
:100C800001F0A4F8E36913F0400F00D04000874B57
:100C9000A3FB00239B0C864A904200D9013B854D63
:100CA0002A689362002454620121284602F0F2FB74
:100CB000284602F0ABFB0CE0794D0123AB61C82064
:100CC00002F05AFB4FF48033AB61C82002F054FBB2
:100CD0000134012CF0DD4FF4FA7002F04DFB704C42
:100CE0004FF48043A3614FF47A7002F045FB4FF05C
:100CF0008043A3614FF4FA7002F03EFB02F036FB32
:100D0000064618E06C4D01220221284602F049FAFD
:100D1000634C0123A3614FF4FA7002F02DFB002213
:100D20000221284602F03DFA4FF48033A3614FF4CC
:100D3000FA7002F021FB02F019FB801B41F28733AD
:100D40009842DFD94FF47A7002F016FB00240FE0CE
:100D5000534D4FF48043AB614FF4FA7002F00CFB3B
:100D60004FF08043AB614FF4FA7002F005FB0134A1
:100D7000012CEDDD4FF4FA7002F0FEFA02F0F6FA03
:100D8000044608E0464B01229A614FF080429A6186
:100D9000322002F0F1FA02F0E9FA001B41F2873347
:100DA00098420DD80121444802F0F4F90128E9D015
:100DB0003B4B4FF480329A614FF480429A61E7E7EF
:100DC000374B4FF480329A614FF080429A6141F282
:100DD000883002F0D1FA0024022C10DC304D4FF4A0
:100DE0008043AB614FF4FA7002F0C6FA4FF08043D3
:100DF000AB614FF4FA7002F0BFFA0134ECE74FF444
:100E0000FA7002F0B9FA00242646254615E00121C1
:100E1000294802F0BFF9074601284FD0204F4FF470
:100E20008043BB614FF4967002F0A6FA4FF0804306
:100E3000BB61C82002F0A0FA0134092C5FDC00225B
:100E400002211D4802F0ADF91A4B1A6800235362C3
:100E5000536A012BFCD901220221174802F0A1F9A3
:100E6000144B1A6800235362536A092BFCD90022E1
:100E70000221114802F095F90E4B1B685F6A0121AF
:100E80000D4802F087F90028C1D10A4B1B685B6A44
:100E9000DB1B47F230529342F1D9B8E700440258C5
:100EA00000040258BFC62D0000ED00E083DE1B43A6
:100EB0003F420F001C010010000C0258594B1B68E8
:100EC0005D6A0121584802F065F9012807D1554BA8
:100ED0001B685B6A5B1B46F290529342F1D9514BFF
:100EE0001B685E6A761B514D0123AB614FF496700F
:100EF00002F042FA4FF48033AB613D4699E74FF47C
:100F00007A7002F039FA25B9484B4FF480429A6161
:100F1000FEE73A23B6FBF3F64FF060531E60012460
:100F20005C60BFF34F8F204602F042F9002120465B
:100F300002F04EF955E00127002412E01427FBE7E8
:100F40003A4D0123AB61962002F016FA4FF480333C
:100F5000AB61962002F010FA3146354803F014FBDD
:100F60000134A742ECD840F2DC5002F005FA00222E
:100F700002212D4802F015F92A4B1A68002353620A
:100F8000536A012BFCD901220221274802F009F9FA
:100F9000244B1A6800235362536A092BFCD90022A0
:100FA0000221214802F0FDF81E4B1B685C6A0121FA
:100FB0001D4802F0EFF838B91A4B1B685B6A1B1B1F
:100FC00047F230529342F2D90121174802F0E2F879
:100FD00001280CD04FF060531E6001225A60BFF30D
:100FE0004F8F002EA7D0142EA8D83746A4E70D4B5C
:100FF0001B685C6A01210C4802F0CCF8012807D17B
:10100000084B1B685B6A1B1B46F290529342F1D956
:10101000044B1B685E6A361B064BA3FB063676093B
:10102000D8E700BF1C010010000C02580004025851
:101030005C55100809CB3D8D10B514464FF47A73FA
:1010400092B2024803F034F8204610BD8800001028
:10105000FEE7FEE7FEE7FEE7FEE7704770477047F2
:1010600008B502F077F908BD82B0074BD3F8F42039
:1010700042F00202C3F8F420D3F8F43003F0020384
:101080000193019B02B07047004402580368B3F11A
:10109000804F00D0704782B0074BD3F8E82042F071
:1010A0000102C3F8E820D3F8E83003F0010301930C
:1010B000019B02B0704700BF0044025810B5B8B0A1
:1010C0000446002133913491359136913791C022F5
:1010D00002A803F0AFFA22681B4B9A4201D038B045
:1010E00010BD02220023CDE9022302A800F09AFFDE
:1010F00030BB164BD3F8E82042F40022C3F8E820B6
:10110000D3F8E82002F400220092009AD3F8E020FD
:1011100042F00102C3F8E020D3F8E03003F001030D
:101120000193019B032333930223349300233593CC
:1011300036930823379333A9054801F017FFCEE70C
:10114000FFF73CFCD5E700BF004C004000440258CC
:1011500000000258002808DB0901C9B200F1604014
:1011600000F5614080F80013704700F00F0009019E
:10117000C9B2014B1954704714ED00E000B500F0FE
:101180000700C0F1070CBCF1040F28BF4FF0040C9E
:10119000031D062B0FD9C31E4FF0FF3E0EFA0CF0B5
:1011A00021EA000199400EFA03FE22EA0E0241EA0A
:1011B00002005DF804FB0023EEE70000074AD36855
:1011C00023F4E0631B041B0C000200F4E060034303
:1011D00043F0BF6343F40033D360704700ED00E099
:1011E00010B50446054BD868C0F30220FFF7C6FFD0
:1011F00001462046FFF7AEFF10BD00BF00ED00E046
:101200000138B0F1807F0BD24FF0E0235861054ADE
:10121000F02182F823100020986107221A6170479C
:101220000120704700ED00E0002800F03B8338B556
:101230000446036813F0010F25D0944A136903F0A4
:101240003803926A102B15D0182B0FD06368B3F5B2
:10125000803F3FD0002B53D18C4B1A6822F4803250
:101260001A601A6822F480221A6038E002F0030241
:10127000022AEBD1854B1B6813F4003F03D063684F
:10128000002B00F01183236813F0020F00F0A180FF
:101290007E4A1369926A13F038035AD0182B55D03E
:1012A000E368002B00F0DE8078490A6822F019021A
:1012B00013430B6002F05AF80546744B1B6813F099
:1012C000040F40F0AD8002F051F8401B0228F4D921
:1012D0000320F0E26D4A136843F4803313606368BF
:1012E0002BB302F043F80546684B1B6813F4003F2C
:1012F000C9D102F03BF8401B6428F5D90320DAE29B
:10130000B3F5A02F09D0614B1A6822F480321A601D
:101310001A6822F480221A60E1E75C4B1A6842F4F2
:1013200080221A601A6842F480321A60D7E702F00D
:101330001DF80546554B1B6813F4003FA3D002F07F
:1013400015F8401B6428F5D90320B4E212F0030F0E
:10135000A6D14E4B1B6813F0040F03D0E368002B9B
:1013600000F0A482494A136823F01903E1680B4393
:10137000136001F0FBFF0546444B1B6813F0040F9C
:1013800006D101F0F3FF401B0228F5D9032092E2B9
:1013900002F006F841F20303984212D82269402A6B
:1013A00007D03A494B6823F47C3343EA02334B605D
:1013B0000FE0364A536823F47C3343F40033536020
:1013C00007E0324A536823F0FE43216943EA016390
:1013D0005360236813F0100F00F088802B4A1369C4
:1013E00003F03803926A082B56D0182B50D0E369CB
:1013F000002B00F0B880254A136843F08003136087
:1014000001F0B4FF0546214B1B6813F4807F40F0C8
:10141000888001F0ABFF401B0228F4D903204AE288
:1014200001F0BEFF41F20303984212D82269402A1C
:1014300007D016494B6823F47C3343EA02334B60F0
:10144000C7E7124A536823F47C3343F400335360F4
:10145000BFE70E4A536823F0FE43216943EA016364
:101460005360B6E7094A136823F00103136001F0E3
:101470007DFF0546054B1B6813F0040FA9D001F052
:1014800075FF401B0228F5D9032014E200440258DE
:1014900002F00302012AAAD1A14B1B6813F4807F3A
:1014A00003D0E369802B40F0038201F079FF41F221
:1014B0000303984212D8226A202A07D098494B6821
:1014C00023F0F84343EA82634B600FE0944A536889
:1014D00023F0F84343F08043536007E0904AD36819
:1014E00023F07C53216A43EA0163D360236813F03D
:1014F000080F60D06369002B49D0894A536F43F0CD
:101500000103536701F032FF0546854B5B6F13F013
:10151000020F50D101F02AFF401B0228F5D9032009
:10152000C9E101F03DFF41F20303984212D8226A5B
:10153000202A07D07A494B6823F0F84343EA8263B4
:101540004B60D3E7764A536823F0F84343F0804377
:101550005360CBE7724AD36823F07C53216A43EA95
:101560000163D360C2E76E4A136823F080031360FF
:1015700001F0FCFE05466A4B1B6813F4807FB5D072
:1015800001F0F4FE401B0228F5D9032093E1644AE0
:10159000536F23F00103536701F0E8FE0546604BEB
:1015A0005B6F13F0020F06D001F0E0FE401B022833
:1015B000F5D903207FE1236813F0200F29D0A36918
:1015C0009BB1574A136843F48053136001F0CEFE79
:1015D0000546534B1B6813F4005F1AD101F0C6FE99
:1015E000401B0228F5D9032065E14D4A136823F416
:1015F0008053136001F0BAFE0546494B1B6813F493
:10160000005F06D001F0B2FE401B0228F5D903208E
:1016100051E1236813F0040F21D1636A002B00F01D
:1016200049813F4A126902F03802182A00F0F0801E
:10163000022B79D03A4A136823F08073136001F0CB
:1016400095FE0446364B1B6813F0007F00F0DE80E9
:1016500001F08CFE001B0228F4D903202BE1314A53
:10166000136843F48073136001F080FE05462D4B30
:101670001B6813F4807F06D101F078FE401B6428BC
:10168000F5D9032017E1A368012B0AD00BBB244B2B
:101690001A6F22F001021A671A6F22F004021A6709
:1016A00004E01F4A136F43F001031367A36833B3C9
:1016B00001F05CFE05461A4B1B6F13F0020FACD114
:1016C00001F054FE401B41F288339842F3D90320C5
:1016D000F1E0052B09D0124B1A6F22F001021A67B4
:1016E0001A6F22F004021A67E0E70D4B1A6F42F0FE
:1016F00004021A671A6F42F001021A67D6E701F076
:1017000035FE0546064B1B6F13F0020F85D001F026
:101710002DFE401B41F288339842F3D90320CAE0E2
:1017200000440258004802586A4A136823F0807344
:10173000136001F01BFE0546664B1B6813F0007F2B
:1017400006D001F013FE401B0228F5D90320B2E0B9
:10175000604B9A6A22F47C7222F00302A16AE06A6A
:1017600041EA00110A439A62226B013AC2F308026D
:10177000616B0139490289B20A43A16B013909043D
:1017800001F4FE010A43E16B0139090601F0FE4153
:101790000A431A63DA6A22F00102DA625A6B6FF3C3
:1017A000CF02A16C42EAC1025A63DA6A22F00C024B
:1017B000216C0A43DA62DA6A22F00202616C0A439F
:1017C000DA62DA6A42F48032DA62DA6A42F40032C9
:1017D000DA62DA6A42F48022DA62DA6A42F00102FC
:1017E000DA621A6842F080721A6001F0BFFD0446A6
:1017F000384B1B6813F0007F06D101F0B7FD001BCA
:101800000228F5D9032056E0002054E0002052E0E1
:10181000304A916A106B012B4ED001F00303A26A8B
:1018200093424BD1C1F30511E36A994248D1C0F309
:101830000802236B013B9A4244D1C0F34622636BFA
:10184000013B9A4240D1C0F30642A36B013B9A424E
:101850003CD1C0F30660E36B013B984238D11D4B8D
:101860005B6BC3F3CC03A26C9A4201D1002022E04F
:10187000184AD36A23F00103D36201F077FD0546CD
:1018800001F074FDA842FBD0124A536B6FF3CF03F3
:10189000A16C43EAC1035363D36A43F00103D362EB
:1018A000002008E001207047012004E0012002E050
:1018B000012000E0002038BD0120FCE70120FAE70C
:1018C0000120F8E70120F6E70120F4E70120F2E724
:1018D0000120F0E700440258F8B5814B1B6903F082
:1018E0003803102B00F0F480182B0FD0002B40F0A1
:1018F000F2807B4B1B6813F0200F00F0EE80784BDA
:101900001B68C3F3C103774CDC40E2E0744B9D6A73
:1019100005F003059C6AC4F30514D86A00F00100C1
:101920005B6BC3F3CC0303FB00F0FEF7BFFD064681
:10193000002C00F0CE80012D56D0022D00F08480C6
:10194000002D40F0A380664B1B6813F0200F29D0B8
:10195000634F3B68C3F3C1036248D840FEF7A6FD5E
:1019600005462046FEF7A2FD01462846FEF7AAFEE0
:101970000446386BC0F30800FEF798FD05464FF0AB
:1019800064513046FEF7EAFD01462846FEF7DEFCCC
:101990004FF07E51FEF7DAFC01462046FEF7DEFDF1
:1019A000044642E02046FEF781FD01464E48FEF720
:1019B00089FE04464A4B186BC0F30800FEF776FD1B
:1019C00005464FF064513046FEF7C8FD01462846F3
:1019D000FEF7BCFC4FF07E51FEF7B8FC01462046F6
:1019E000FEF7BCFD044620E02046FEF75FFD014601
:1019F0003E48FEF767FE0446394B186BC0F30800FB
:101A0000FEF754FD05464FF064513046FEF7A6FD43
:101A100001462846FEF79AFC4FF07E51FEF796FCF1
:101A200001462046FEF79AFD04462D4B1B6BC3F37F
:101A30004623581CFEF73AFD01462046FEF742FEBB
:101A4000FEF7DCFE044644E02046FEF72FFD01468B
:101A50002748FEF737FE0446214B186BC0F30800F9
:101A6000FEF724FD05464FF064513046FEF776FD43
:101A700001462846FEF76AFC4FF07E51FEF766FCF1
:101A800001462046FEF76AFD0446CEE72046FEF7F3
:101A90000DFD01461548FEF715FE0446104B186B68
:101AA000C0F30800FEF702FD05464FF064513046D2
:101AB000FEF754FD01462846FEF748FC4FF07E51E4
:101AC000FEF744FC01462046FEF748FD0446ACE71D
:101AD000084C2046F8BD084CFBE7024CF9E700BF74
:101AE000004402580090D0030024744C0024744A2F
:101AF00020BCBE4B40787D0100093D00002800F06D
:101B0000318170B50D4604469A4B1B6803F00F03F4
:101B10008B420BD2974A136823F00F030B431360D9
:101B2000136803F00F038B4240F01E81236813F00B
:101B3000040F0CD02269904B9B6903F070039A420A
:101B400005D98D498B6923F070031A438A61236894
:101B500013F0080F0CD06269874BDB6903F0700348
:101B60009A4205D98449CB6923F070031A43CA61AC
:101B7000236813F0100F0CD0A2697F4BDB6903F4CC
:101B8000E0639A4205D97C49CB6923F4E0631A43A8
:101B9000CA61236813F0200F0CD0E269764B1B6AF0
:101BA00003F070039A4205D973490B6A23F070035E
:101BB0001A430A62236813F0020F0CD0E2686E4BDE
:101BC0009B6903F00F039A4205D96B498B6923F097
:101BD0000F031A438A61236813F0010F41D0664A4C
:101BE000936923F47063A1680B4393616368022BCC
:101BF0000AD0032B27D0012B2CD05F4A126812F099
:101C0000040F06D10120ACE0126812F4003F00F08E
:101C1000AD8059490A6922F0070213430B6101F0B4
:101C2000A5FB0646544B1B6903F038036268B3EB0F
:101C3000C20F16D001F09AFB801B41F28833984204
:101C4000F0D903208DE04C4A126812F0007FE0D1F9
:101C5000012086E0484A126812F4807FD9D1012021
:101C60007FE0236813F0020F0CD0E268424B9B69BF
:101C700003F00F039A4205D23F498B6923F00F030B
:101C80001A438A613B4B1B6803F00F03AB420AD92E
:101C9000384A136823F00F032B431360136803F0D3
:101CA0000F03AB4264D1236813F0040F0CD02269F8
:101CB000314B9B6903F070039A4205D22E498B6920
:101CC00023F070031A438A61236813F0080F0CD0C5
:101CD0006269294BDB6903F070039A4205D22649F9
:101CE000CB6923F070031A43CA61236813F0100F05
:101CF0000CD0A269204BDB6903F4E0639A4205D261
:101D00001D49CB6923F4E0631A43CA61236813F0C9
:101D1000200F0CD0E269184B1B6A03F070039A4243
:101D200005D215490B6A23F070031A430A62FFF7C4
:101D3000D3FD11498B69C3F30323104AD35C03F02D
:101D40001F03D8408B6903F00F03D35C03F01F031C
:101D5000D8400B4B18600B4B18600B4B186801F008
:101D600085FA70BD012070470120FAE70120F8E7ED
:101D70000120F6E700200052004402589455100854
:101D8000080000100C0000100400001008B5FFF758
:101D9000A3FD0A498B69C3F30323094AD35C03F00B
:101DA0001F03D8408B6903F00F03D35C03F01F03BC
:101DB000D840044B1860044B186008BD004402581A
:101DC00094551008080000100C00001008B5FFF72B
:101DD000DDFF054BDB69C3F30213044AD35C03F058
:101DE0001F03D84008BD00BF004402589455100896
:101DF00008B5FFF7CBFF054BDB69C3F30223044AA9
:101E0000D35C03F01F03D84008BD00BF0044025854
:101E100094551008404B9B6A03F00303032B79D0C1
:101E200070B505460E463C4A136823F08063136084
:101E300001F09CFA0446384B1B6813F0006F06D083
:101E400001F094FA031B022BF5D9032070BD324B2D
:101E50009A6A22F47C32296842EA01329A626A68FC
:101E6000013AC2F30802A9680139490289B20A435A
:101E7000E9680139090401F4FE010A4329690139BD
:101E8000090601F0FE410A439A63DA6A22F0C002B1
:101E900069690A43DA62DA6A22F02002A9690A4310
:101EA000DA62DA6A22F01002DA62DA6B6FF3CF02DA
:101EB000E96942EAC102DA63DA6A42F01002DA62E0
:101EC000C6B91A46DB6A43F40023D362124A136888
:101ED00043F08063136001F049FA04460E4B1B681F
:101EE00013F0006F14D101F041FA001B0228F5D95C
:101EF0000320ABE7012E05D0074AD36A43F4001351
:101F0000D362E3E7044AD36A43F48013D362DDE784
:101F100000209BE70120704700440258404B9B6A19
:101F200003F00303032B79D070B505460E463C4AF7
:101F3000136823F08053136001F018FA0446384BFD
:101F40001B6813F0005F06D001F010FA031B022B90
:101F5000F5D9032070BD324B9A6A22F07C72296851
:101F600042EA01529A626A68013AC2F30802A96819
:101F70000139490289B20A43E9680139090401F4C7
:101F8000FE010A4329690139090601F0FE410A43AD
:101F90001A64DA6A22F4406269690A43DA62DA6A28
:101FA00022F40072A9690A43DA62DA6A22F48072C2
:101FB000DA625A6C6FF3CF02E96942EAC1025A64ED
:101FC000DA6A42F48072DA62C6B91A46DB6A43F40E
:101FD0008003D362124A136843F08053136001F008
:101FE000C5F904460E4B1B6813F0005F14D101F0D5
:101FF000BDF9001B0228F5D90320ABE7012E05D05F
:10200000074AD36A43F08073D362E3E7044AD36A92
:1020100043F40003D362DDE700209BE70120704713
:1020200000440258F8B50446036813F0006F30D03E
:10203000836EB3F5001F26D00ED8ABB1B3F5801F69
:1020400007D102210830FFF7E5FE054695B12E467F
:1020500021E0012635461EE0B3F5401F01D10025E1
:1020600008E00126354616E09A4AD36A43F4003365
:10207000D3620025974A136D23F44013A16E0B43DE
:102080001365002607E002212830FFF747FF0546C9
:10209000DCE700263546236813F4807F14D0A36D57
:1020A000042B31D8DFE803F0032229080800894A0D
:1020B000D36A43F40033D3624DBB864A136D23F0D9
:1020C0000703A16D0B431365236813F4007F3FD012
:1020D000E36D802B2ED01FD833B3402B19D10021B4
:1020E00004F10800FFF796FE054629E0002104F1FF
:1020F0000800FFF78FFE0546DEE7002104F1280007
:10210000FFF70CFF0546D7E701263546DCE72E46EC
:10211000DAE7012635461BE0C02B11D0B3F5807FEE
:102120000ED00126354613E06A4AD36A43F40033E1
:10213000D36205E0002104F12800FFF7EFFE054619
:10214000DDB9644A136D23F4E073E16D0B4313654D
:10215000236813F4806F33D0D4F8A830B3F5800F20
:102160001FD00FD8BBB1B3F5001F08D1002104F177
:102170000800FFF74FFE054619E02E46E8E7012666
:1021800035461DE0B3F5C00F11D0B3F5000F0ED0EA
:102190000126354614E04F4AD36A43F40033D36234
:1021A00005E0002104F12800FFF7B8FE0546E5B977
:1021B000484A936D23F46003D4F8A8100B43936549
:1021C000236813F4006F34D0D4F8AC30B3F1007F3F
:1021D0001FD00FD8BBB1B3F1807F08D1002104F12B
:1021E0000800FFF717FE054619E02E46E8E701262E
:1021F00035461EE0B3F1407F11D0B3F1806F0ED0B1
:102200000126354615E0334AD36A43F40033D362DE
:1022100005E0002104F12800FFF780FE0546002DAF
:1022200033D12C4A936D23F0E063D4F8AC100B4308
:102230009365236813F0007F13D0E36C202B2ED01E
:1022400028D833B1102B22D1224AD36A43F4003369
:10225000D3625DBB1F4AD36C23F03003E16C0B43A8
:10226000D364236813F4805F46D0236EB3F5005F18
:1022700032D020D843B3B3F5805F19D1002104F1E7
:102280000800FFF7C7FD05462CE02E46D1E70126E2
:102290003546E6E7302BDCD001263546E1E7022162
:1022A00004F10800FFF7B6FD0546D2E72E46D8E751
:1022B0000126354620E0B3F5405F13D0B3F5804FDB
:1022C00010D00126354617E0024AD36A43F40033A2
:1022D000D36207E000440258002104F12800FFF710
:1022E0001DFE05463DB9704A136D23F4E043216E8F
:1022F0000B43136500E02E46236813F4005F17D0EC
:10230000636EB3F5003F4FD042D843B1B3F5803F81
:102310003BD1012104F10800FFF77CFD0546002DAB
:1023200049D1614A136D23F4E023616E0B431365B9
:10233000236813F4804F19D0D4F8B030B3F1005FA4
:102340004AD03DD843B1B3F1805F36D1012104F1C9
:102350000800FFF75FFD0546002D44D1524A936DFA
:1023600023F0E043D4F8B0100B439365236813F4D3
:10237000004F47D0236FB3F1805F36D0B3F1005FD9
:102380004BD0BBB3012635463CE001263546CFE7AE
:10239000B3F5802FC3D0B3F5A02FC0D0B3F5403F25
:1023A000BDD001263546C3E7012104F12800FFF71F
:1023B000B5FD0546B3E72E46BAE701263546D5E713
:1023C000B3F1804FC8D0B3F1A04FC5D0B3F1405F97
:1023D000C2D001263546C9E7012104F12800FFF7E4
:1023E0009DFD0546B8E72E46C0E72F4AD36A43F461
:1023F0000033D362C5B92C4A136D23F04053216FCB
:102400000B431365236813F0807F1CD0A36C032B50
:1024100044D8DFE803F0100B3C10012104F1080060
:10242000FFF7F8FC0546E5E72E46EBE71E4AD36AC0
:1024300043F40033D362A5BB1B4AD36C23F00303E0
:10244000A16C0B43D364236813F4800F2ED123684F
:1024500013F0010F00F0A780E36F282B00F2A1809A
:10246000DFE803F08F9F9F9F9F9F9F9F899F9F9F64
:102470009F9F9F9F989F9F9F9F9F9F9F8F9F9F9F83
:102480009F9F9F9F8F9F9F9F9F9F9F9F8F00022136
:1024900004F10800FFF7BEFC0546CCE701263546EF
:1024A000D1E72E46CFE700BF004402585A4A1368CE
:1024B00043F48073136000F059FF0746564B1B68C6
:1024C00013F4807F05D100F051FFC01B6428F5D9BB
:1024D0000325002D4BD1514B1B6FD4F8B420534032
:1024E00013F4407F0CD04D4B1A6F22F44072196FD9
:1024F00041F480311967196F21F4803119671A6727
:10250000D4F8B430B3F5807F15D095BBD4F8B4308F
:1025100003F44072B2F5407F1ED0404A136923F4A1
:102520007C5313613D490B6FD4F8B420C2F30B0206
:1025300013430B678BE700F019FF0746374B1B6F00
:1025400013F0020FE1D100F011FFC01B41F28833FC
:102550009842F3D90325D8E730490A6922F47C521E
:10256000C3F3171323F0300313430B61DAE72E464E
:102570006DE72E466BE7012104F10800FFF74AFCE6
:102580000546E5B9254A536D23F03803E16F0B4347
:10259000536508E0012104F12800FFF7BFFC054660
:1025A000EFE701263546236813F0020F17D0A36F1B
:1025B000052B2CD8DFE803F00B05240B0B0B2E4664
:1025C000F1E7012104F10800FFF724FC05460DBBEB
:1025D000124A536D23F00703A16F0B435365236821
:1025E00013F0040F2DD0D4F89430052B00F20C8199
:1025F000DFE813F01C00160003011C001C001C0087
:10260000012104F12800FFF789FC0546DFE70126D8
:102610003546E4E72E46E2E70048025800440258F7
:10262000012104F10800FFF7F5FB0546002D40F0FD
:10263000EE80B64A936D23F00703D4F894100B4351
:102640009365236813F0200F1DD0D4F89030B3F1B8
:10265000005F00F0F08000F2DF804BB1B3F1805FEB
:1026600040F0D780002104F10800FFF7D3FB0546B6
:10267000002D40F0E780A54A536D23F0E043D4F8E5
:1026800090100B435365236813F0400F1DD0D4F80E
:102690009C30B3F5006F00F0E98000F2D8804BB1B8
:1026A000B3F5806F40F0D080002104F10800FFF7FF
:1026B000B1FB0546002D40F0E080944A936D23F471
:1026C000E053D4F89C100B439365236813F0800FFC
:1026D0001DD0D4F8A030B3F5804F00F0E28000F2B6
:1026E000D1804BB1B3F5005F40F0C980002104F107
:1026F0000800FFF78FFB0546002D40F0D980834A84
:10270000936D23F46043D4F8A0100B4393652368C2
:1027100013F0080F0DD0D4F88430B3F5805F00F0CB
:10272000C9807A4A536D23F44053D4F884100B4384
:102730005365236813F0100F0DD0D4F89830B3F51B
:10274000807F00F0C180714A936D23F44073D4F808
:1027500098100B439365236813F4002F1CD0D4F812
:10276000A430B3F5803F00F0B980B3F5003F08D046
:10277000002B40F0BA80002104F10800FFF74AFB6B
:102780000546002D40F0B480604A936D23F4403339
:10279000D4F8A4100B439365236813F4802F1CD046
:1027A000D4F88830B3F5001F00F0A480B3F5401FC3
:1027B00008D0B3F5801F40F0A480544AD36A43F494
:1027C0000033D362002D40F09F80504A536D23F4B4
:1027D0004013D4F888100B435365236813F4803FEB
:1027E00000F0AC80236D002B00F09280B3F5803FA9
:1027F00000F09C8001263546A0E0012104F128006C
:10280000FFF78CFB054611E70126354619E72E46F2
:1028100017E70126354636E7B3F1804F3FF428AF7E
:10282000B3F1A04F3FF424AFB3F1405F3FF420AFCA
:102830000126354627E7022104F12800FFF76EFB49
:10284000054615E72E461EE7012635463DE7B3F55A
:10285000805F3FF42FAFB3F5A05F3FF42BAFB3F52C
:10286000406F3FF427AF012635462EE7022104F1E1
:102870002800FFF753FB05461CE72E4625E70126F7
:10288000354644E7B3F5004F3FF436AFB3F5204F7C
:102890003FF432AFB3F5C04F3FF42EAF01263546BB
:1028A00035E7022104F12800FFF738FB054623E74E
:1028B0002E462CE7022104F12800FFF72FFB002809
:1028C0003FF42FAF01262CE7022104F12800FFF787
:1028D00025FB00283FF437AF012634E7022104F13D
:1028E0002800FFF71BFB05464BE70126354653E75B
:1028F0002E4651E7012104F12800FFF70FFB0546A2
:1029000060E70126354668E72E4666E70044025830
:10291000704AD36A43F40033D36275B96D4AD36CFD
:1029200023F48033216D0B43D36407E0022104F1CB
:102930000800FFF76FFA0546EFE72E46236813F00D
:10294000005F11D1236813F4003F28D0D4F8803001
:10295000B3F5807F14D010D9B3F5007F15D0B3F54F
:10296000407F12D001261AE0022104F12800FFF76F
:10297000D5FA0028E6D00126E4E733B101260EE0BF
:10298000544AD36A43F40033D362002D69D1514ACB
:10299000536D23F44073D4F880100B4353652368C0
:1029A00013F4801F06D04B4A136D23F00043616F70
:1029B0000B431365236813F0805F07D0454A136902
:1029C00023F48043D4F8B8100B431361236813F445
:1029D000001F06D03F4A136D23F08073E16E0B4356
:1029E0001365236813F0804F09D03A4B1A6922F41B
:1029F00000421A611A69D4F8BC100A431A612368AC
:102A0000002B06DA334AD36C23F04053616D0B433D
:102A1000D364236813F4000F07D02E4A536D23F4B8
:102A20004003D4F88C100B435365636813F0010F17
:102A300019D1636813F0020F1ED1636813F0040FFD
:102A400023D1636813F0080F28D1636813F0100FC7
:102A50002DD1636813F0200F32D106B10126304624
:102A6000F8BD2E469BE7002104F10800FFF7D2F9DC
:102A70000028DED00646DCE7012104F10800FFF75C
:102A8000C9F90028D9D00646D7E7022104F1080089
:102A9000FFF7C0F90028D4D00646D2E7002104F1A0
:102AA0002800FFF73BFA0028CFD00646CDE70121EA
:102AB00004F12800FFF732FA0028CAD00646C8E71A
:102AC000022104F12800FFF729FA0028C5D00126C9
:102AD000C5E700BF0044025808B5FFF757F9054B9A
:102AE0001B6AC3F30213044AD35C03F01F03D840EC
:102AF00008BD00BF00440258945510082DE9F0416C
:102B00000446874B9E6A9D6AC5F30535D86AC0F3B3
:102B10000010DB6BC3F3CC0303FB00F0FDF7C6FC36
:102B2000002D00F0F78006F003060746012E59D06D
:102B3000022E00F0AB80002E40F0CA80784B1B685C
:102B400013F0200F2CD0DFF8D881D8F80030C3F371
:102B5000C1037448D840FDF7A9FC06462846FDF796
:102B6000A5FC01463046FDF7ADFD0546D8F8380016
:102B7000C0F30800FDF79AFC06464FF06451384652
:102B8000FDF7ECFC01463046FDF7E0FB4FF07E51CF
:102B9000FDF7DCFB01462846FDF7E0FC054642E078
:102BA0002846FDF783FC01465F48FDF78BFD05468F
:102BB0005B4B986BC0F30800FDF778FC06464FF0BE
:102BC00064513846FDF7CAFC01463046FDF7BEFBAE
:102BD0004FF07E51FDF7BAFB01462846FDF7BEFCDB
:102BE000054620E02846FDF761FC01464F48FDF709
:102BF00069FD05464A4B986BC0F30800FDF756FC8B
:102C000006464FF064513846FDF7A8FC01463046B1
:102C1000FDF79CFB4FF07E51FDF798FB01462846DF
:102C2000FDF79CFC05463E4EB06BC0F34620FDF719
:102C30003DFC4FF07E51FDF789FB01462846FDF72C
:102C400041FDFDF7DBFD2060B06BC0F30640FDF7F2
:102C50002DFC4FF07E51FDF779FB01462846FDF72C
:102C600031FDFDF7CBFD6060B06BC0F30660FDF792
:102C70001DFC4FF07E51FDF769FB01462846FDF72C
:102C800021FDFDF7BBFDA060BDE8F0812846FDF702
:102C90000DFC01462648FDF715FD0546204B986BB7
:102CA000C0F30800FDF702FC06464FF064513846B9
:102CB000FDF754FC01463046FDF748FB4FF07E51CE
:102CC000FDF744FB01462846FDF748FC0546AAE708
:102CD0002846FDF7EBFB01461448FDF7F3FC0546DB
:102CE0000F4B986BC0F30800FDF7E0FB06464FF072
:102CF00064513846FDF732FC01463046FDF726FBAD
:102D00004FF07E51FDF722FB01462846FDF726FCD9
:102D1000054688E7002323606360A360B4E700BF33
:102D2000004402580090D0030024744C0024744ADC
:102D300020BCBE4B2DE9F0410446874B9E6A9D6A3C
:102D4000C5F30555D86AC0F300205B6CC3F3CC0310
:102D500003FB00F0FDF7AAFB002D00F0F78006F062
:102D600003060746012E59D0022E00F0AB80002E3C
:102D700040F0CA80784B1B6813F0200F2CD0DFF88E
:102D8000D881D8F80030C3F3C1037448D840FDF7A8
:102D90008DFB06462846FDF789FB01463046FDF7C8
:102DA00091FC0546D8F84000C0F30800FDF77EFB13
:102DB00006464FF064513846FDF7D0FB01463046D9
:102DC000FDF7C4FA4FF07E51FDF7C0FA01462846E0
:102DD000FDF7C4FB054642E02846FDF767FB0146C8
:102DE0005F48FDF76FFC05465B4B186CC0F30800AD
:102DF000FDF75CFB06464FF064513846FDF7AEFB2D
:102E000001463046FDF7A2FA4FF07E51FDF79EFADB
:102E100001462846FDF7A2FB054620E02846FDF7BF
:102E200045FB01464F48FDF74DFC05464A4B186CE3
:102E3000C0F30800FDF73AFB06464FF064513846F0
:102E4000FDF78CFB01463046FDF780FA4FF07E51CE
:102E5000FDF77CFA01462846FDF780FB05463E4E0D
:102E6000306CC0F34620FDF721FB4FF07E51FDF79B
:102E70006DFA01462846FDF725FCFDF7BFFC2060F2
:102E8000306CC0F30640FDF711FB4FF07E51FDF7AB
:102E90005DFA01462846FDF715FCFDF7AFFC6060C2
:102EA000306CC0F30660FDF701FB4FF07E51FDF77B
:102EB0004DFA01462846FDF705FCFDF79FFCA06092
:102EC000BDE8F0812846FDF7F1FA01462648FDF7F6
:102ED000F9FB0546204B186CC0F30800FDF7E6FA35
:102EE00006464FF064513846FDF738FB0146304640
:102EF000FDF72CFA4FF07E51FDF728FA01462846DF
:102F0000FDF72CFB0546AAE72846FDF7CFFA014658
:102F10001448FDF7D7FB05460F4B186CC0F30800AB
:102F2000FDF7C4FA06464FF064513846FDF716FB2C
:102F300001463046FDF70AFA4FF07E51FDF706FADA
:102F400001462846FDF70AFB054688E70023236073
:102F50006360A360B4E700BF004402580090D00350
:102F60000024744C0024744A20BCBE4B70B582B05F
:102F700000236EE085685E000324B44025EA040562
:102F8000CC68B4402C438460456825EA0C054C6845
:102F9000C4F300149C402C4344606DE0DD08083508
:102FA00050F8254003F0070C4FEA8C0C4FF00F0E41
:102FB0000EFA0CFE24EA0E0E0C6904FA0CF444EA34
:102FC0000E0440F825406FE0092400E0002404FAD4
:102FD0000EF42C430CF1020C6B4D45F82C404FF0D5
:102FE000B0442568D44325EA0206D1F804C01CF495
:102FF000801F01D042EA05064FF0B0452E606D6893
:1030000004EA0506D1F804C01CF4001F01D042EA0E
:1030100005064FF0B0456E60D5F8C45004EA0506C9
:10302000D1F804C01CF4003F01D042EA05064FF07D
:10303000B045C5F8C460D5F8C0502C404E6816F4B1
:10304000803F01D042EA05044FF0B042C2F8C040D0
:1030500001330A6832FA03F400F093804FF0010C58
:103060000CFA03FC1CEA0202F2D04C6804F00304E0
:10307000013C012C7FF67EAF4C6804F00304032C66
:103080000CD0C4685D004FF0030C0CFA05FC24EA78
:103090000C0C8C68AC4044EA0C04C4604C6804F02E
:1030A0000304022C3FF47AAF04684FEA430E4FF05A
:1030B000030C0CFA0EFC24EA0C0C4C6804F003041C
:1030C00004FA0EF444EA0C0404604C6814F4403F23
:1030D000BED02E4CD4F8F45045F00205C4F8F4509C
:1030E000D4F8F44004F002040194019C4FEA930CDC
:1030F0000CF10205244C54F8255003F0030E4FEA5E
:103100008E0E0F2404FA0EF425EA0405204CA0428A
:103110003FF45CAF04F58064A04222D004F58064E3
:10312000A04220D004F58064A0421ED004F5806443
:10313000A0421CD004F58064A0421AD004F580643B
:10314000A04218D004F58064A04216D004F5806433
:10315000A04214D004F58064A0423FF435AF0A24A5
:1031600035E7012433E7022431E703242FE7042461
:103170002DE705242BE7062429E7072427E7082461
:1031800025E702B070BD00BF00040058004402589B
:10319000000002580369194201D001207047002045
:1031A00070470AB18161704709048161704700006E
:1031B0002030054B53F82020044B9A4201D00120C7
:1031C00070470020704700BF006402580001008073
:1031D00041F48071014B43F820107047006402589D
:1031E00038B50446204BDB6803F00703062B07D0F5
:1031F0001D4BDB6803F03F03834233D0012038BD11
:10320000194AD36823F03F030343D36000F0AEF8BC
:103210000546154B5B6813F4005F07D100F0A6F874
:10322000431BB3F57A7FF4D90120E8E71E2C07D0C1
:103230002E2C05D01D2C03D02D2C01D00020DEE734
:1032400000F094F80446084BDB6813F4803F07D184
:1032500000F08CF8001BB0F57A7FF4D90120CEE79E
:103260000020CCE70020CAE700480258104B1B782A
:103270000BB90120704710B504464FF47A70B0FBCB
:10328000F3F30C4A1068B0FBF3F0FDF7B9FF68B92F
:103290000F2C01D901200AE0002221464FF0FF3017
:1032A000FDF79EFF044B1C60002000E0012010BDD4
:1032B000000000100C0000100400001010B582B0D7
:1032C0001F4CD4F8D83043F48043C4F8D830D4F835
:1032D000D83003F480430193019B1A4AD2F800349A
:1032E0006FF3132343F40143C2F80034D2F80034DF
:1032F00043F00103C2F800340320FDF75FFFFEF73F
:10330000EBFAA369C3F303230F4AD35C03F01F0353
:10331000D840A36903F00F03D35C03F01F03D84028
:103320000A4B18600A4B18600020FFF79FFF18B186
:103330000124204602B010BD0446FDF795FEF8E7D3
:103340000044025800400240945510080800001044
:103350000C000010034B1B78034A11680B441360E8
:10336000704700BF0000001068010010014B186892
:10337000704700BF6801001038B50446FFF7F6FF3C
:103380000546B4F1FF3F02D0044B1B781C44FFF705
:10339000EDFF401BA042FAD338BD00BF0000001073
:1033A000014B1868000C70470010005C10B4036AF1
:1033B000046A24F001040462846924F0F00C4CEAED
:1033C000021223F00A030B438261036210BC7047B0
:1033D00010B4036A046A24F010040462846924F4BB
:1033E000704C4CEA023223F0A00343EA01138261DD
:1033F000036210BC7047836823F4401323F070030A
:103400000B4343F0070383607047000090F83D30A2
:10341000012B35D1022380F83D3003681B4A9342CB
:1034200020D0B3F1804F1DD0A2F57C42934219D039
:1034300002F58062934215D002F58062934211D06A
:1034400002F5784293420DD0A2F56C42934209D026
:1034500002F59432934205D01A6842F001021A60D4
:103460000020704799680A4A0A40062A0AD0B2F535
:10347000803F09D01A6842F001021A6000207047AC
:103480000120704700207047002070470000014075
:103490000700010090F83C30012B0ED0012380F88A
:1034A0003C30022280F83D200268516180F83D30B6
:1034B000002380F83C301846704702207047000017
:1034C0000368324A904212D0B0F1804F0FD0A2F57B
:1034D0007C4290420BD002F58062904207D002F508
:1034E0008062904203D002F57842904203D123F0EB
:1034F00070034A681343254A90421ED0B0F1804FB2
:103500001BD0A2F57C42904217D002F58062904217
:1035100013D002F5806290420FD002F578429042BB
:103520000BD002F57052904207D002F580629042B3
:1035300003D002F58062904203D123F44073CA683D
:10354000134323F080034A6913438A68C2620A68FE
:1035500082620E4A90420FD002F5806290420BD0F8
:1035600002F57052904207D002F58062904203D07B
:1035700002F58062904201D10A690263026842F05A
:1035800004020260012242610360704700000140B2
:1035900060B310B5044690F83D3013B3022384F8AD
:1035A0003D30214651F8040BFFF78AFF012384F8D0
:1035B000483084F83E3084F83F3084F8403084F856
:1035C000413084F8423084F8433084F8443084F841
:1035D000453084F8463084F8473084F83D30002088
:1035E00010BD80F83C30FDF751FDD7E70120704752
:1035F00010B4846824F47F4C42EA03220A4342EA6E
:103600000C02826010BC704790F83C30012B00F037
:103610008F8010B50446012380F83C30022380F8E7
:103620003D3002689068434B034093600B68702BF9
:1036300055D031D8502B6CD01FD8402B0AD1CA6836
:1036400049682068FFF7B2FE40212068FFF7D3FEEB
:10365000002029E068D8202B03D00AD80BB1102B0A
:1036600005D119462068FFF7C6FE00201CE00120A6
:103670001AE0302BF5D0012016E0602B0AD1CA6881
:1036800049682068FFF7A4FE60212068FFF7B3FEB9
:10369000002009E0012007E0B3F5005F2CD00AD834
:1036A000B3F5805F42D10020012384F83D30002330
:1036B00084F83C3010BD204A9342D2D007D8B3F5ED
:1036C000801FCED0B3F1101FCBD00120ECE71B4AF6
:1036D0009342C6D010329342C3D00120E4E7CB68B6
:1036E0004A6889682068FFF783FF2268936843F07F
:1036F000770393600020D7E7CB684A688968206821
:10370000FFF776FF2268936843F4804393600020BC
:10371000CAE7CA6849682068FFF748FE5021206858
:10372000FFF769FE0020BFE70120BDE70120BBE7EE
:10373000022070478800CEFF2000100030001000EB
:1037400090F83C20012A46D030B40346012280F88C
:103750003C20022280F83D200068426884681F4DAA
:10376000A84203D005F58065A84203D122F4700277
:103770004D682A4322F070020D682A4342601A689D
:10378000164882421AD0B2F1804F17D0A0F57C4083
:10379000824213D000F5806082420FD000F5806035
:1037A00082420BD000F57840824207D0A0F56C40F1
:1037B000824203D000F59430824204D124F0800488
:1037C000896821439160012283F83D20002083F81D
:1037D0003C0030BC70470220704700BF0000014031
:1037E000436E2BB90123A0F86A30A0F86830704707
:1037F00030B403689A68C2F342629968490F094D70
:103800006B5C1B01084C615C93FBF1F3A0F86A3020
:10381000AB5C1B01A25C93FBF2F3A0F8683030BCF8
:10382000704700BF745510086C55100890F884302C
:10383000012B18D0012380F884302423C0F888306D
:1038400003681A68196821F00101196022F000521A
:103850000023436601680A602022C0F8882080F8AF
:103860008430184670470220704738B590F884308D
:10387000012B1DD00446012380F884302423C0F896
:10388000883003681D681A6822F001021A60026815
:10389000936823F0604319439160FFF7A1FF236809
:1038A0001D602023C4F88830002084F8840038BDCF
:1038B0000220FCE738B590F88430012B1DD0044677
:1038C000012380F884302423C0F8883003681D6801
:1038D0001A6822F001021A600268936823F060639C
:1038E00019439160FFF77CFF23681D602023C4F813
:1038F0008830002084F8840038BD0220FCE702688C
:1039000052E8003F23F4907342E800310029F6D1D9
:10391000026802F1080353E8003F23F0805323F0CC
:103920000103083242E800310029F1D1C36E012BB6
:1039300006D02023C0F88C300023C366436770474D
:10394000026852E8003F23F0100342E800310029EA
:10395000F6D1EEE770B586B004468368026913437A
:1039600042691343C269134301680868894A0240E7
:103970001A430A602268536823F44053E1680B43FA
:103980005360A1692268844B9A4201D0236A19438B
:10399000936823F06E4323F430630B4393602268F3
:1039A000D36A23F00F03616A0B43D36223687B4A17
:1039B000934221D07A4A934200F08C80794A934214
:1039C00000F0A280784A934200F0B580774A934293
:1039D00000F0C880764A934200F0F280754A934224
:1039E00000F01781744A934200F02A816A4A934298
:1039F00000F03D8180223BE0704A526D02F03802B7
:103A0000282A34D8DFE812F02900330033003300CD
:103A100033003300330033004B01330033003300F5
:103A200033003300330033002B0033003300330006
:103A300033003300330033002D00330033003300F4
:103A400033003300330033002F00330033003300E2
:103A500033003300330033003100012208E0082234
:103A600006E0102204E0202202E0402200E0802252
:103A700049498B4200F02581E069B0F5004F00F024
:103A8000A581202A00F2FD81202A00F24782DFE88A
:103A900012F014021A02450245021D0245024502B7
:103AA0004502220245024502450245024502450201
:103AB00045022702450245024502450245024502EC
:103AC00045024502450245024502450245024502BE
:103AD00045023302394A526D02F00702052A11D815
:103AE000DFE812F00600DF0008000A000C000E00FC
:103AF0000022BDE70822BBE71022B9E72022B7E782
:103B00004022B5E78022B3E72C4A526D02F007024B
:103B1000052A0ED8DFE802F003C70507090B0022CB
:103B2000A6E70822A4E71022A2E72022A0E740226D
:103B30009EE780229CE7214A526D02F00702052A87
:103B40000ED8DFE802F003B20507090B00228FE769
:103B500008228DE710228BE7202289E7402287E7A1
:103B6000802285E7154A526D02F00702052A0ED819
:103B7000DFE802F0039D0507090B002278E7082221
:103B800076E7102274E7202272E7402270E7802255
:103B90006EE700BFF369FFCF000C00580010014032
:103BA0000044004000480040004C004000500040ED
:103BB0000014014000780040007C0040004402589E
:103BC0007D4A526D02F03802282A20D8DFE802F040
:103BD000151F1F1F1F1F1F1F711F1F1F1F1F1F1FAD
:103BE000171F1F1F1F1F1F1F191F1F1F1F1F1F1FF3
:103BF0001B1F1F1F1F1F1F1F1D00012238E7082248
:103C000036E7102234E7202232E7402230E78022D4
:103C10002EE7694A526D02F00702052A0ED8DFE846
:103C200002F0034A0507090B002221E708221FE7DB
:103C300010221DE720221BE7402219E7802217E708
:103C40005D4A526D02F00702052A0ED8DFE802F045
:103C500003350507090B00220AE7082208E71022AE
:103C600006E7202204E7402202E7802200E702F56F
:103C70000E32926D02F00702052A0ED8DFE802F03C
:103C8000031F0507090B0222F2E60822F0E61022C4
:103C9000EEE62022ECE64022EAE68022E8E6042274
:103CA000E6E60422E4E60422E2E60422E0E6042258
:103CB000DEE60422DCE60422DAE60422D8E6042268
:103CC000D6E6202A27D8022AC0F01A81023A1E2AF4
:103CD00000F21881DFE812F05000160156001601BC
:103CE000160116015B0016011601160116011601D8
:103CF00016011601600016011601160116011601C3
:103D000016011601160116011601160116011601FB
:103D1000160116016C00402A2CD14FF40040626A53
:103D2000264B33F81220B0FBF2F3656805EB450132
:103D3000994200F2E980B3EB053F00F2E7800026EC
:103D400033463146FCF77AFD090241EA1061000270
:103D50006B08C0182A46334641F10001FCF76EFD9E
:103D6000A0F54072164B9A4200F2D2802368D860C8
:103D70003046D4E00120D2E0FEF7AEFE0028CED1DE
:103D80000020CCE003A8FEF7B9FE0498F6E76846E9
:103D9000FEF7D0FF0198F1E7074B1B6813F0200FE7
:103DA00008D0054B1B68C3F3C1030648D840B6E7EB
:103DB0000548B4E70348B2E7004402587C551008B0
:103DC000FFFC0F000090D00300093D00202A15D809
:103DD000202A00F29F80DFE802F031379D9D3A9D56
:103DE0009D9D3F9D9D9D9D9D9D9D449D9D9D9D9DBA
:103DF0009D9D9D9D9D9D9D9D9D9D5000402A1BD1FB
:103E0000626A4D4B33F81230B0FBF3F0626853082E
:103E100003EB4003B3FBF2F3A3F110014FF6EF7293
:103E2000914279D89AB222F00F02C3F342031343AE
:103E30002268D360002072E0012070E0FDF7C6FF29
:103E40000028DDD100206AE0FDF7D2FFF8E703A8E3
:103E5000FEF754FE0498F3E76846FEF76BFF0198FF
:103E6000EEE7364B1B6813F0200F08D0334B1B686E
:103E7000C3F3C1033248D840C2E73248C0E73048F4
:103E8000BEE7402A17D14FF40040626A2A4B33F84C
:103E90001230B0FBF3F0636800EB5300B0FBF3F0BB
:103EA000A0F110024FF6EF739A4242D8236880B215
:103EB000D860002033E0012031E0FDF787FF0028C3
:103EC000E3D100202BE0FDF793FFF8E703A8FEF70E
:103ED00015FE0498F3E76846FEF72CFF0198EEE71D
:103EE000164B1B6813F0200F08D0144B1B68C3F34C
:103EF000C1031348D840C8E71248C6E71048C4E7D2
:103F000001200CE001200AE0012008E0012006E089
:103F1000012004E0012002E0012000E00120012353
:103F2000A4F86A30A4F8683000236367A36706B07A
:103F300070BD0120F3E700BF7C5510080044025813
:103F40000090D00300093D00836A13F0080F06D0EB
:103F50000268536823F40043816B0B435360836A08
:103F600013F0010F06D00268536823F40033C16ACE
:103F70000B435360836A13F0020F06D00268536844
:103F800023F48033016B0B435360836A13F0040FF7
:103F900006D00268536823F48023416B0B435360BF
:103FA000836A13F0100F06D00268936823F48053DD
:103FB000C16B0B439360836A13F0200F06D0026835
:103FC000936823F40053016C0B439360836A13F0EE
:103FD000400F0AD00268536823F48013416C0B43EE
:103FE0005360436CB3F5801F0BD0836A13F0800FCE
:103FF00006D00268536823F40023C16C0B4353605E
:1040000070470268536823F4C003816C0B4353600C
:10401000EBE72DE9F84305460E4617469946DDF8CD
:1040200020802B68DC6936EA04040CBF01240024DC
:10403000BC4236D1B8F1FF3FF3D0FFF797F9A0EBC0
:104040000900404530D8B8F1000F2FD02B681A680E
:1040500012F0040FE5D0802EE3D0402EE1D0DA69D3
:1040600012F0080F11D1DA6912F4006FD9D04FF4B1
:1040700000621A622846FFF742FC2023C5F8903000
:10408000002385F8843003200CE008241C622846B5
:10409000FFF735FCC5F89040002385F884300120F7
:1040A00000E00020BDE8F8830320FBE70320F9E7E8
:1040B0002DE9F04182B01E46D0F88830202B5AD12D
:1040C00004460D469046002959D00AB9012053E014
:1040D0000023C0F890302123C0F88830FFF746F95C
:1040E0000746A4F85480A4F85680A368B3F5805F0F
:1040F00002D04FF0000816E0236943B34FF00008E8
:1041000011E02023C4F88830032035E038F8023B62
:104110002268C3F308039362B4F8562092B2013ABE
:1041200092B2A4F85620B4F856309BB293B10096E0
:104130003B46002280212046FFF76BFF0028E0D19C
:10414000002DE3D015F8012B23689A62E4E7A84616
:104150000025E8E700963B46002240212046FFF775
:1041600058FF18B92023C4F8883005E02023C4F88C
:104170008830032000E0022002B0BDE8F081012079
:10418000FAE730B583B004460023C0F89030FFF75B
:10419000EDF805462268126812F0080F10D1236866
:1041A0001B6813F0040F28D12023C4F88830C4F80A
:1041B0008C300020E066206784F8840003B030BDB6
:1041C0006FF07E430093034600224FF40011204617
:1041D000FFF71FFF0028E2D0226852E8003F23F0DB
:1041E000800342E800310029F6D12023C4F888304A
:1041F000002384F884300320E0E76FF07E430093CF
:104200002B4600224FF480012046FFF702FF0028D2
:10421000CAD0226852E8003F23F4907342E800318C
:104220000029F6D1226802F1080353E8003F23F089
:104230000103083242E800310029F3D12023C4F8F9
:104240008C30002384F884300320B7E778B310B5AE
:104250000446D0F888300BB32423C4F88830226891
:10426000136823F001031360A36AE3B92046FFF744
:1042700071FB012811D02268536823F490435360E6
:104280002268936823F02A0393602268136843F03E
:10429000010313602046FFF774FF10BD80F88430DF
:1042A000FCF70CFFD8E72046FFF74EFEDEE70120C3
:1042B00070470000024A136943F01003136170470E
:1042C00000ED00E0054AD36823F00203D360034BFE
:1042D0005B6813F4005FFAD0704700BF00480258D3
:1042E00010B503460C4A0D490D48006840B10C4812
:1042F00000680344521A934206D8094A136010BD5D
:104300000748084C0460F2E700F0E2F90C23036070
:104310004FF0FF30F3E700BF0080041000080000FA
:104320006C010010C002001070B50C461646002546
:1043300006E0AFF30080214601F8010B01350C4681
:10434000B542F6DB304670BD4FF0FF3070474FF49A
:1043500000534B60002070470120704700207047D9
:104360004FF001601C490860BFF34F8FBFF36F8FA0
:104370001A48016841F470010160BFF34F8FBFF329
:104380006F8F1748016841F4E0210160DFF854D0D5
:10439000FFF798FFFFF78EFF4FF001600E490860AE
:1043A000BFF34F8FBFF36F8F0F481049104A0023A0
:1043B00002E0D458C4500433C4188C42F9D30D4AD7
:1043C0000D4C002301E013600432A242FBD300F045
:1043D00085F9FCF7EFFB704708ED00E088ED00E0A1
:1043E00024ED00E000800410000000106C000010BC
:1043F000E85510086C000010BC02001000BEFDE77C
:10440000002310B50446C0E90033C0E904338360DB
:1044100081814366C2818361194608225C3000F0C5
:1044200009F90D4B63620D4BA3620D4BE3620D4B1B
:1044300023630D4B24629C4206D003F16802944230
:1044400002D0D0339C4205D104F15800BDE81040A1
:1044500000F068B910BD00BFAD451008CF45100889
:10446000074610082D46100870010010024A034943
:10447000034800F06BB800BF10000010B94F1008DF
:104480002000001041680C4B994210B5044601D041
:1044900000F092FDA168094B994202D0204600F03D
:1044A0008BFDE168064B994204D02046BDE81040E0
:1044B00000F082BD10BD00BF70010010D8010010D7
:1044C000400200100C4B0D4A0D4810B504211A6033
:1044D0000022FFF795FF0A4B01221C46092103F138
:1044E0006800FFF78DFF04F1D0000222BDE8104004
:1044F0001221FFF785BF00BFA80200106D4410080D
:1045000070010010014800F00EB900BFB1020010A8
:10451000014800F009B900BFB102001010B504460F
:10452000FFF7F0FF236A1BB1BDE81040FFF7F0BFB3
:10453000044B2362044B1B68002BF5D1FFF7C2FF2D
:10454000F2E700BF85441008A80200102DE9F843E7
:104550000746884614460026D4E90195B9F10109B9
:1045600005D52468002CF7D13046BDE8F883AB8927
:10457000012B07D9B5F90E30013303D0294638464F
:10458000C04706436835E9E70FB407B5064904ABF1
:10459000086853F8042B8168019300F0E7F903B031
:1045A0005DF804EB04B070471C00001010B50C4619
:1045B000B1F90E1000F068F80028ABBF636DA38955
:1045C0001B1823F48053ACBF6365A38110BD2DE994
:1045D000F0411F468B89DB0505460C46164605D57E
:1045E000B1F90E100223002200F03CF8A389B4F9BF
:1045F0000E1023F48053A38132463B462846BDE883
:10460000F04100F053B810B50C46B1F90E1000F0AF
:1046100029F8B4F90C30421C0BBF23F4805343F447
:104620008053A381A38118BF606510BDB1F90E103E
:1046300000F008B802440346934200D1704703F8E3
:10464000011BF9E738B5064D0023044608462B60E8
:10465000FFF77AFE431C02D12B6803B1236038BDFB
:10466000AC02001038B5074D04460846114600223A
:104670002A601A46FFF772FE431C02D12B6803B171
:10468000236038BDAC02001038B5074D044608461B
:10469000114600222A601A46FFF746FE431C02D14B
:1046A0002B6803B1236038BDAC02001038B5074D4C
:1046B00004460846114600222A601A46FCF7BCFC54
:1046C000431C02D12B6803B1236038BDAC0200103B
:1046D000014B1868704700BF1C00001070B50D4BEF
:1046E0000D4D5B1B9C100026A64209D100F02AFF4D
:1046F0000A4D0B4B5B1B9C100026A64205D170BDDA
:1047000055F8043B98470136EEE755F8043B9847C7
:104710000136F2E7E0551008E0551008E0551008A2
:10472000E4551008704770477047000038B50546DB
:10473000002941D051F8043C0C1F002BB8BFE418ED
:1047400000F0E0F81D4A136833B96360146028462E
:10475000BDE8384000F0DCB8A34208D92068211831
:104760008B4201BF19685B6809182160EDE71A46A2
:104770005B680BB1A342FAD911685018A0420BD163
:1047800020680144501883421160E0D118685B68CA
:10479000536008441060DAE702D90C232B60D6E797
:1047A000206821188B4204BF19685B68636004BFEE
:1047B000091821605460CAE738BD00BFB802001074
:1047C00070B50F4E0C463168054611B900F0AEFCCD
:1047D00030602146284600F0A9FC431C03D14FF06D
:1047E000FF34204670BDC41C24F00304A042F8D05E
:1047F000211A284600F09AFC0130F2D1EFE700BF01
:10480000B40200102DE9F843CD1C25F0030508354E
:104810000C2D38BF0C25002D064601DBA94204D91A
:104820000C2333600020BDE8F883DFF8D48000F06B
:1048300069F8D8F800301C4644BB29463046FFF7DB
:10484000BFFF431C044658D1D8F800402746002F2C
:1048500043D1002C4BD023683946304604EB030982
:1048600000F064FC814542D121686D1A294630462A
:10487000FFF7A6FF01303AD023682B442360D8F815
:1048800000305A6862BBC8F800700FE02268521B03
:1048900020D40B2A17D96119A342256018BF59608B
:1048A000636808BFC8F8001062514B60304600F0E2
:1048B0002FF804F10B00231D20F00700C21A1CBFC3
:1048C0001B1AA350AFE76268A3420CBFC8F80020D0
:1048D0005A60EBE723466468AEE73C467F68B6E77C
:1048E0001A465B68A342FBD100235360DEE70C232A
:1048F0003360304600F00CF894E70560D6E700BF5F
:10490000B80200100148FFF70EBF00BFB002001050
:104910000148FFF709BF00BFB00200109368013BD8
:10492000002B10B4936007DA9469A34201DB0A29D3
:1049300002D110BC00F068BB1368581C10601970DD
:10494000084610BC7047F8B506460F461446D51801
:10495000AC4201D1002007E014F8011B3A46304672
:10496000FFF7DCFF431CF3D1F8BD00002DE9F04751
:104970000D469CB014461F46064618B1036A0BB993
:10498000FFF7CCFD6B6ED90705D4AB899A0502D42D
:10499000A86DFFF7C8FEAB891B0701D52B699BB932
:1049A0002946304600F06EFB70B16B6EDC0704D513
:1049B0004FF0FF301CB0BDE8F087AB899805F7D405
:1049C000A86DFFF7B1FEF3E70023099320238DF8CC
:1049D0002930039730236A4F8DF82A304FF00108B1
:1049E0002346994613F8012B0AB1252AF9D1B9EBD0
:1049F000040A0BD05346224629463046FFF7A3FF50
:104A0000013000F0A480099A5244099299F80030CC
:104A1000002B00F09C8000234FF0FF32CDE90523EE
:104A200009F10109049307938DF853301A934C460A
:104A3000534814F8011B0522FBF732FC049BD0B944
:104A4000D90644BF20228DF853201A0744BF2B22D9
:104A50008DF8532099F800202A2A13D0079A4C4643
:104A600000204FF00A0C214611F8013B303B092B86
:104A700049D968B913E0C01B08FA00F01843049044
:104A8000A146D4E7039A111D12680391002A01DBA5
:104A9000079204E0524243F0020307920493237802
:104AA0002E2B0AD163782A2B32D1039B1A1D1B6847
:104AB000039243EAE37302340593DFF8C890217848
:104AC00003224846FBF7ECFB38B1049BA0EB09003E
:104AD0004022824013430134049314F8011B2A48F6
:104AE0008DF828100622FBF7DBFB00283ED0274874
:104AF00018BB039B073323F0070308330393099B79
:104B0000034409936CE70CFB02320C460120AAE730
:104B100000230134059319464FF00A0C204610F883
:104B2000012B303A092A03D9002BC6D00591C4E7DE
:104B30000CFB012104460123F0E703AB00932A4656
:104B4000134B04A93046AFF30080431CD7D16B6EE2
:104B5000D90705D4AB899A0502D4A86DFFF7E4FD07
:104B6000AB895B063FF524AF099823E703AB0093BD
:104B70002A46074B04A9304600F07AF8E5E700BF63
:104B8000A4551008AA551008AE55100800000000E2
:104B9000474910082DE9F047164698468A680B6980
:104BA000DDF820909342B8BF1346336091F843205C
:104BB00007460C460AB1013333602368990642BFA9
:104BC000336802333360256815F0060506D104F119
:104BD000190AE36832689B1AAB4226DC94F843302A
:104BE0002268003B18BF012392062BD404F1430234
:104BF00041463846C84701301ED02368226903F079
:104C00000603042B02BFE5683368ED1AA3680CBFE6
:104C100025EAE57500259342C4BF9B1AED180026CE
:104C20001A34B5421AD1002008E001235246414609
:104C30003846C847013003D14FF0FF30BDE8F08758
:104C40000135C6E7E1185A1C302081F843002244A0
:104C500094F8451082F843100233C7E70123224637
:104C600041463846C8470130E6D00136D9E7000052
:104C70002DE9F0430D7E85B0782D90460C9E0746B9
:104C80000C46994601F1430207D8622D0AD8002D3F
:104C900000F0D780582D00F0BC8004F1420684F863
:104CA00042503BE0A5F16303152BF6D801A151F862
:104CB00023F000BF0D4D1008214D10089B4C10082B
:104CC0009B4C10089B4C10089B4C1008214D100861
:104CD0009B4C10089B4C10089B4C10089B4C1008D8
:104CE000294E10084B4D1008DB4D10089B4C100846
:104CF0009B4C10084B4E10089B4C10084B4D100855
:104D00009B4C10089B4C1008E34D100833681A1D8B
:104D10001B68326004F1420684F842300123A1E0AE
:104D200033682068191D3160060601D51D6803E04F
:104D30004506FBD5B3F90050002D03DA2D236D4253
:104D400084F843305B480A2311E021683368080681
:104D500053F8045B02D4490648BFADB23360237EEA
:104D600054486F2B5CD10823002184F843106668F7
:104D7000A660002E05DB21682E4321F0040121608E
:104D800050D01646B5FBF3F103FB115C10F80CC0D4
:104D900006F801CDAC4663450D46F3D9082B0BD17F
:104DA0002368DB0708D5236961689942DEBF302399
:104DB00006F8013C06F1FF36921B2261CDF8009007
:104DC000434603AA21463846FFF7E4FE01304ED1A0
:104DD0004FF0FF3005B0BDE8F083236843F02003B7
:104DE00023603548782584F845502368316813F0EE
:104DF000800F51F8045B03D113F0400F18BFADB220
:104E00003160D90744BF43F0200323601DB1102354
:104E1000AAE72848E7E7236823F020032360F6E7A2
:104E20000A23A1E71646B9E7336825686169181DAA
:104E300030602E061B6801D5196002E06806FBD5BC
:104E40001980002323611646B8E733681A1D3260C3
:104E50001E68626800213046FBF722FA08B1801B09
:104E6000606063682361002384F84330A6E7236908
:104E7000324641463846C8470130A9D023689B07CF
:104E800013D4E068039B9842B8BF1846A2E70123F9
:104E9000324641463846C847013099D00135E3686B
:104EA00003995B1AAB42F2DCEBE7002504F119062B
:104EB000F5E700BFB5551008C6551008B1F90C202C
:104EC000F8B5160705460C4651D44B68002B02DC9A
:104ED0000B6C002B49DDE66A002E46D0002312F44D
:104EE00080522F682B6031D0626DA389590705D598
:104EF0006368D21A636B0BB1236CD21A0023E66A83
:104F0000216A2846B047421CB4F90C3006D1296802
:104F10001D2945D8274ACA40D60741D500226260DC
:104F2000D9042269226004D5421C01D12B6803B93F
:104F30006065616B2F60C1B104F14403994202D0F6
:104F40002846FFF7F3FB002363630EE0216A012389
:104F50002846B0470246501CC7D12B68002BC4D04E
:104F60001D2B01D0162B19D12F6000201DE00F69D9
:104F7000002FFAD093070E6808BF4B690F6018BF67
:104F80000023F61B8B60002EEFDD216AD4F828C0C9
:104F900033463A462846E047002807DCB4F90C308F
:104FA00043F04003A3814FF0FF30F8BD0744361AA9
:104FB000E9E700BF0100402038B50B6905460C4603
:104FC00013B90025284638BD18B1036A0BB9FFF79D
:104FD000A5FAB4F90C30002BF3D0626ED00704D4DC
:104FE000990502D4A06DFFF79EFB28462146FFF7E6
:104FF00065FF636EDA070546E4D4A3899B05E1D417
:10500000A06DFFF791FBDDE7F8B50E4614460546A7
:1050100018B1036A0BB9FFF781FAA369A360A389EA
:105020001A0701D5236943B92146284600F02AF81A
:1050300018B14FF0FF373846F8BD23682269981A37
:105040006369F6B28342374605DC21462846FFF7FE
:10505000B3FF0028EDD1A368013BA36023685A1C6D
:1050600022601E706269431C9A4204D0A389DB0748
:10507000E1D50A2EDFD121462846FFF79DFF002803
:10508000D9D0D6E738B5284B054618680C4618B174
:10509000036A0BB9FFF742FAB4F90C301A0721D4AE
:1050A000D80607D409222A6043F04003A3814FF0B9
:1050B000FF3030E0590712D5616B41B104F1440370
:1050C000994202D02846FFF731FB00236363002298
:1050D000B4F90C3062602269226023F0240343F0AB
:1050E0000803A38122693AB99A0501D5180603D5A8
:1050F0002146284600F04EF8B4F90C3013F00102B6
:105100000AD00022A26062695242A261226942B9B9
:1051100013F08000C8D138BD990758BF6269A260FA
:10512000F4E70020F7E700BF1C00001038B5064D7B
:105130000023044608462B60FFF7D2F8431C02D137
:105140002B6803B1236038BDAC02001070B50C466B
:10515000B1F90E10002996B015461E460ADAA1894B
:1051600011F0800113D14FF48062002031602A6079
:1051700016B070BD6A4600F047F80028EFDB0199D1
:1051800001F47041A1F5005359425941EBE7002168
:105190004022EAE78B8973B59E0705460C4607D582
:1051A00004F14703236023610123636102B070BDF2
:1051B00001AB6A46FFF7CAFF009E28463146FFF75B
:1051C00021FBB4F90C3038B99A05EFD423F003036E
:1051D00043F00203A381E3E743F08003A381019B33
:1051E0002060C4E90406002BE0D0B4F90E10284674
:1051F00000F01CF80028D9D0A38923F0030343F062
:105200000103A381D2E7000038B5074D002304460F
:10521000084611462B60FFF79AF8431C02D12B6811
:1052200003B1236038BD00BFAC02001038B5064D95
:105230000023044608462B60FFF78EF8431C02D17A
:105240002B6803B1236038BDAC0200102DE9F04794
:10525000089D0F4604468C46002B48D18A421646CC
:1052600061D9B2FA82F34BB1C3F1200201FA03FC17
:1052700020FA02F29E4042EA0C0C9C404FEA164E85
:10528000B7B2BCFBFEF1220C0EFB11CC42EA0C4281
:1052900001FB07F0904209D9B21801F1FF3C80F000
:1052A000EE80904240F2EB8002393244121AA4B2EE
:1052B000B2FBFEF00EFB102244EA024400FB07F7AB
:1052C000A74209D9341900F1FF3280F0DA80A742F1
:1052D00040F2D7803444023840EA0140E41B002108
:1052E0001DB1DC400023C5E90043BDE8F0878B42D7
:1052F00006D90DB1C5E9000100210846BDE8F087D7
:10530000B3FA83F1002948D1BB4202D3824200F2B2
:105310000781841A67EB030201209446002DE4D034
:10532000C5E9004CE1E7002A00F09280B2FA82F36E
:10533000002B40F0A8808A1A4FEA164E1FFA86FC0E
:105340000121200CB2FBFEF70EFB172240EA0242BD
:105350000CFB07F0904207D9B21807F1FF3802D2D0
:10536000904200F2E2804746121AA4B2B2FBFEF06D
:105370000EFB102244EA02440CFB00FCA44507D9B2
:10538000341900F1FF3202D2A44500F2CB8010465E
:10539000A4EB0C0440EA0740A2E7C1F120068B40D1
:1053A00022FA06FC4CEA030C07FA01F420FA06F391
:1053B000F7404FEA1C49234300FA01F81FFA8CFE1C
:1053C000B7FBF9F01C0C09FB107744EA074400FB1B
:1053D0000EF7A74202FA01F20AD91CEB040400F10D
:1053E000FF3A80F09B80A74240F2988002386444E4
:1053F000E41B9FB2B4FBF9F309FB134447EA0444EE
:1054000003FB0EFEA64509D91CEB040403F1FF378C
:1054100080F08280A6457FD9023B644443EA004085
:10542000A4EB0E04A0FB02E7BC427346B94663D36B
:1054300060D05DB1B8EB030264EB090404FA06F630
:1054400022FA01F31E43CC40C5E9006400214CE779
:105450006208480842EAC1710B0C43EA00438AB271
:1054600042EA0342B3FBF6F1E407B4463746B646D8
:105470001F23B0FBF6F0D21B41EA004161E7614611
:1054800014E7104628E7C3F1200120FA01F29E40FC
:1054900027FA01F19F403A434FEA164E1FFA86FC65
:1054A000B1FBFEF70EFB1710110C41EA004107FBA0
:1054B0000CF8884504FA03F43AD9711807F1FF3063
:1054C00001D288451FD8A1EB0801B1FBFEF808FB0B
:1054D0000CF70EFB181192B242EA0142BA422FD2E7
:1054E000B21808F1FF31C6D2BA42C4D2A8F1020103
:1054F0003244C0E7F0459CD2BEEB020367EB0C07D9
:105500000138B94695E7A6EB08084144B81EB1FB3F
:10551000FEF808FB0CF7DCE73B467FE7504667E701
:105520000846FBE63444023832E7023F32441BE7C8
:10553000A1EB08013846B1FBFEF808FB0CF7C8E701
:10554000414698E7F8B500BFF8BC08BC9E467047D6
:0C555000F8B500BFF8BC08BC9E467047D0
:10555C004C45442041434345534F20256C750A006C
:10556C000804020408010101010101030701000004
:10557C00010002000400060008000A000C001000E4
:10558C002000400080000001000000000102030424
:10559C000102030406070809232D302B2000686C38
:1055AC004C0065666745464700303132333435363A
:1055BC003738394142434445460030313233343573
:0C55CC00363738396162636465660000A0
:0855D800C8ACFF7F01000000D8
:0455E000D9081008CE
:0455E400B1081008F2
:1055E80001000000100000000090D0030090D003DC
:1055F80000000000030000007001001020000010EF
:105608000000000070010010D801001040020010D6
:105618000000000000000000000000000000000082
:105628000000000000000000000000000000000072
:105638000000000000000000000000000000000062
:0C56480000000000000000000000000056
:04000005081043613B
:00000001FF
