:020000040800F2
:1000000000000220252600089D0500089F05000825
:10001000A1050008A3050008A505000800000000D0
:10002000000000000000000000000000A70500081C
:10003000A905000800000000AB050008AD05000898
:100040007926000879260008792600087926000814
:100050007926000879260008792600087926000804
:1000600079260008792600087926000879260008F4
:1000700079260008792600087926000879260008E4
:1000800079260008792600087926000879260008D4
:1000900079260008792600087926000879260008C4
:1000A00079260008792600087926000879260008B4
:1000B00079260008792600087926000879260008A4
:1000C0007926000879260008792600087926000894
:1000D0007926000879260008792600087926000884
:1000E000792600087926000800000000792600081B
:1000F0007926000879260008792600087926000864
:100100007926000879260008792600087926000853
:100110007926000879260008792600087926000843
:100120007926000879260008792600087926000833
:100130007926000879260008792600087926000823
:100140007926000879260008000000000000000061
:100150007926000879260008792600087926000803
:1001600079260008792600087926000879260008F3
:1001700079260008792600087926000879260008E3
:1001800079260008792600087926000879260008D3
:1001900079260008792600087926000879260008C3
:1001A00079260008792600087926000879260008B3
:1001B00079260008792600087926000879260008A3
:1001C0007926000879260008792600087926000893
:1001D0007926000879260008792600087926000883
:1001E0007926000879260008792600087926000873
:1001F0007926000879260008792600087926000863
:100200007926000879260008792600087926000852
:100210007926000879260008792600087926000842
:1002200079260008792600087926000800000000D9
:100230007926000879260008792600087926000822
:100240007926000879260008792600087926000812
:100250007926000879260008792600087926000802
:1002600079260008792600087926000879260008F2
:1002700079260008792600087926000879260008E2
:100280007926000879260008792600080000000079
:08029000792600087926000818
:1002A00001F0FF01102A2BDB10F0070F08D010F827
:1002B000013B013A8B422DD010F0070F42B3F6D12B
:1002C000F0B441EA012141EA014122F007047FF044
:1002D00000070023F0E80256083C85EA010586EA9B
:1002E000010685FA47F5A3FA87F586FA47F6A5FAD7
:1002F00087F68EB9EED1F0BC01F0FF0102F00702E3
:1003000032B110F8013B013A83EA010313B1F8D18D
:100310000020704701387047002D06BF354603386E
:10032000073815F0010F07D1013015F4807F02BFA7
:10033000013015F4C03F0130F0BC0138704700BFF8
:1003400053B94AB9002908BF00281CBF4FF0FF313C
:100350004FF0FF3000F00CB8ADF1080C6DE904CEA1
:1003600003F016F9DDF804E0DDE9022304B070477C
:10037000704700BF0348044B834202D0034B03B1D4
:10038000184770476C0000206C000020000000003F
:100390000548064B1B1AD90F01EBA301491002D0E7
:1003A000034B03B1184770476C0000206C0000201D
:1003B0000000000010B5064C237843B9FFF7DAFFC0
:1003C000044B13B10448AFF300800123237010BD28
:1003D0006C000020000000008838000808B5054BBC
:1003E0001BB105490548AFF30080BDE80840FFF7A1
:1003F000CFBF00BF00000000700000208838000858
:1004000010B514464FF47A7392B2024801F038FFE7
:10041000204610BD8800002072B6FEE708B50B48E4
:100420000B4B03604FF4E133436000238360C360F0
:1004300003610C2242618361C36103624362836290
:1004400001F0EBFF00B908BDFFF7E6FF88000020D0
:100450000048004000B59DB04C22002109A802F0E0
:1004600017FB2022002101A802F012FB042001F05A
:100470005DFA00230093284BDA6A22F00102DA6267
:10048000DB6A03F001030093244A936923F4404399
:1004900043F400439361936903F440430093009B4A
:1004A0001E4B9B6913F4005FFAD0022309930122CB
:1004B0000C9240220D921293002213920421149167
:1004C0001C21159116930521179118930C2319934C
:1004D0001A924FF480631B9309A800F021F9B8B970
:1004E0003F230193032302930023039304934023A8
:1004F0000593502206924FF48062079208930421DC
:100500000DEB010000F060FD20B91DB05DF804FBAB
:10051000FFF782FFFFF780FF0004005800480258F1
:1005200010B501F075FAFFF795FFFFF777FF174851
:1005300002F0D0F900240EE00134132C08D94FF05A
:1005400060535A681B682146114802F05BF9002489
:10055000322001F09DFABFF34F8FBFF34F8F4FF062
:1005600060530C4AC2F85C32BFF34F8FBFF36F8FFA
:100570005B68002BE0D04FF06053196800225A608E
:10058000BFF34F8F044802F03DF9D5E7A0380008CB
:10059000F038000800ED00E0CC380008FEE7FEE788
:1005A000FEE7FEE7FEE770477047704708B501F0C9
:1005B0005DFA08BD82B0074BD3F8F42042F0020286
:1005C000C3F8F420D3F8F43003F002030193019B45
:1005D00002B070470044025800B589B0002303936D
:1005E00004930593069307930268164B9A4202D030
:1005F00009B05DF804FB144BD3F8E82042F48022E4
:10060000C3F8E820D3F8E82002F480220192019A8E
:10061000D3F8E02042F00802C3F8E020D3F8E0303D
:1006200003F008030293029B4FF4407303930223E9
:100630000493032306930723079303A9034801F0B8
:1006400065F8D5E70048004000440258000C025805
:10065000002804DB0901C9B2044B1954704700F0AB
:100660000F000901C9B2024B1954704700E400E0C1
:1006700014ED00E000B500F00700C0F1070CBCF17C
:10068000040F28BF4FF0040C031D062B0FD9C31E07
:100690004FF0FF3E0EFA0CF021EA000199400EFAED
:1006A00003FE22EA0E0241EA02005DF804FB002389
:1006B000EEE700000649CB6823F4E0631B041B0C43
:1006C000000200F4E0600343024A1A43CA60704724
:1006D00000ED00E00000FA0510B50446054BD868AF
:1006E000C0F30220FFF7C6FF01462046FFF7B0FF28
:1006F00010BD00BF00ED00E00138B0F1807F0BD2EB
:100700004FF0E0235861054AF02182F823100020C1
:10071000986107221A6170470120704700ED00E0E0
:10072000002800F0398338B50446036813F0010F40
:1007300025D0944A136903F03803926A102B15D020
:10074000182B0FD06368B3F5803F3FD0002B53D1F7
:100750008C4B1A6822F480321A601A6822F48022C4
:100760001A6038E002F00302022AEBD1854B1B68C5
:1007700013F4003F03D06368002B00F00F8323685D
:1007800013F0020F00F0A1807E4A1369926A13F001
:1007900038035AD0182B55D0E368002B00F0DE80C8
:1007A00078490A6822F0190213430B6001F06AF9D4
:1007B0000546744B1B6813F0040F40F0AD8001F048
:1007C00061F9401B0228F4D90320EEE26D4A136858
:1007D00043F48033136063682BB301F053F905468B
:1007E000684B1B6813F4003FC9D101F04BF9401B63
:1007F0006428F5D90320D8E2B3F5A02F09D0614BC6
:100800001A6822F480321A601A6822F480221A6070
:10081000E1E75C4B1A6842F480221A601A6842F4DD
:1008200080321A60D7E701F02DF90546554B1B6859
:1008300013F4003FA3D001F025F9401B6428F5D93B
:100840000320B2E212F0030FA6D14E4B1B6813F047
:10085000040F03D0E368002B00F0A282494A13681A
:1008600023F01903E1680B43136001F00BF905460F
:10087000444B1B6813F0040F06D101F003F9401B31
:100880000228F5D9032090E201F016F941F20303A2
:10089000984212D82269402A07D03A494B6823F47B
:1008A0007C3343EA02334B600FE0364A536823F44B
:1008B0007C3343F40033536007E0324A536823F03B
:1008C000FE43216943EA01635360236813F0100F6C
:1008D00000F088802B4A136903F03803926A082BD2
:1008E00056D0182B50D0E369002B00F0B880254A71
:1008F000136843F08003136001F0C4F80546214BF0
:100900001B6813F4807F40F0888001F0BBF8401B27
:100910000228F4D9032048E201F0CEF841F20303A3
:10092000984212D82269402A07D016494B6823F40E
:100930007C3343EA02334B60C7E7124A536823F41F
:100940007C3343F400335360BFE70E4A536823F00F
:10095000FE43216943EA01635360B6E7094A13681D
:1009600023F00103136001F08DF80546054B1B6869
:1009700013F0040FA9D001F085F8401B0228F5D927
:10098000032012E20044025802F00302012AAAD115
:10099000A14B1B6813F4807F03D0E369802B40F0E8
:1009A000018201F089F841F20303984212D8226AC9
:1009B000202A07D098494B6823F0F84343EA826322
:1009C0004B600FE0944A536823F0F84343F08043B0
:1009D000536007E0904AD36823F07C53216A43EACE
:1009E0000163D360236813F0080F60D06369002BA4
:1009F00049D0894A536F43F00103536701F042F82D
:100A00000546854B5B6F13F0020F50D101F03AF8A9
:100A1000401B0228F5D90320C7E101F04DF841F24F
:100A20000303984212D8226A202A07D07A494B68D9
:100A300023F0F84343EA82634B60D3E7764A536876
:100A400023F0F84343F080435360CBE7724AD36806
:100A500023F07C53216A43EA0163D360C2E76E4A04
:100A6000136823F08003136001F00CF805466A4B0D
:100A70001B6813F4807FB5D001F004F8401B0228F6
:100A8000F5D9032091E1644A536F23F001035367C2
:100A900000F0F8FF0546604B5B6F13F0020F06D0C5
:100AA00000F0F0FF401B0228F5D903207DE1236808
:100AB00013F0200F29D0A3699BB1574A136843F460
:100AC0008053136000F0DEFF0546534B1B6813F4A0
:100AD000005F1AD100F0D6FF401B0228F5D9032091
:100AE00063E14D4A136823F48053136000F0CAFF9A
:100AF0000546494B1B6813F4005F06D000F0C2FFA7
:100B0000401B0228F5D903204FE1236813F0040F9E
:100B100021D1636A002B00F047813F4A126902F03D
:100B20003802182A00F0EE80022B79D03A4A136876
:100B300023F08073136000F0A5FF0446364B1B685A
:100B400013F0007F00F0DC8000F09CFF001B022807
:100B5000F4D9032029E1314A136843F48073136008
:100B600000F090FF05462D4B1B6813F4807F06D1E3
:100B700000F088FF401B6428F5D9032015E1A36825
:100B8000012B0AD00BBB244B1A6F22F001021A670B
:100B90001A6F22F004021A6704E01F4A136F43F031
:100BA00001031367A36833B300F06CFF05461A4BCB
:100BB0001B6F13F0020FACD100F064FF401B41F239
:100BC00088339842F3D90320EFE0052B09D0124B6C
:100BD0001A6F22F001021A671A6F22F004021A67D4
:100BE000E0E70D4B1A6F42F004021A671A6F42F0E9
:100BF00001021A67D6E700F045FF0546064B1B6F5A
:100C000013F0020F85D000F03DFF401B41F2883306
:100C10009842F3D90320C8E0004402580048025823
:100C2000694A136823F08073136000F02BFF0546B8
:100C3000654B1B6813F0007F06D000F023FF401BBC
:100C40000228F5D90320B0E05F4B996A5F4A0A4059
:100C5000A16AE06A41EA00110A439A62226B013AF2
:100C6000C2F30802616B0139490289B20A43A16BE0
:100C70000139090401F4FE010A43E16B0139090657
:100C800001F0FE410A431A63DA6A22F00102DA62D5
:100C90005A6B6FF3CF02A16C42EAC1025A63DA6A5F
:100CA00022F00C02216C0A43DA62DA6A22F00202B4
:100CB000616C0A43DA62DA6A42F48032DA62DA6A32
:100CC00042F40032DA62DA6A42F48022DA62DA6AE4
:100CD00042F00102DA621A6842F080721A6000F093
:100CE000D1FE0446384B1B6813F0007F06D100F09C
:100CF000C9FE001B0228F5D9032056E0002054E06D
:100D0000002052E0304A916A106B012B4ED001F066
:100D10000303A26A93424BD1C1F30511E36A9942DE
:100D200048D1C0F30802236B013B9A4244D1C0F37F
:100D30004622636B013B9A4240D1C0F30642A36B4B
:100D4000013B9A423CD1C0F30660E36B013B984201
:100D500038D11D4B5B6BC3F3CC03A26C9A4201D11B
:100D6000002022E0184AD36A23F00103D36200F086
:100D700089FE054600F086FEA842FBD0124A536B5E
:100D80006FF3CF03A16C43EAC1035363D36A43F00B
:100D90000103D362002008E001207047012004E035
:100DA000012002E0012000E0002038BD0120FCE726
:100DB0000120FAE70120F8E70120F6E70120F4E737
:100DC0000120F2E70120F0E7004402580CFCFFFF8D
:100DD000754B1B6903F03803102B00F0DE80182BD5
:100DE0000FD0002B40F0DB806F4B1B6813F0200FFF
:100DF00000F0D7806C4B1B68C3F3C1036B48D8402D
:100E0000704710B4684B9A6A02F003029C6AC4F3FC
:100E10000510D96A01F001015B6BC3F3CC0301FB40
:100E200003F307EE903AF8EE677A14F47C7F77D0FC
:100E3000012A4AD0022A76D0002A40F091805A4BEB
:100E40001B6813F0200F23D057490A68C2F3C10270
:100E5000564BD34007EE103AF8EE476A07EE100AF9
:100E6000B8EE476A86EE867A0B6BC3F3080306EE8C
:100E7000903AF8EE666A9FED4E6A67EE867A76EEF5
:100E8000A77AF7EE006A77EEA67A27EE277A38E09F
:100E900007EE100AF8EE476A9FED466A86EE267A5C
:100EA000414B1B6BC3F3080306EE903AF8EE666AFB
:100EB0009FED3F6A67EE867A76EEA77AF7EE006AD4
:100EC00077EEA67A27EE277A1BE007EE100AF8EEF7
:100ED000476A9FED396A86EE267A334B1B6BC3F364
:100EE000080306EE903AF8EE666A9FED316A67EE07
:100EF000867A76EEA77AF7EE006A77EEA67A27EE84
:100F0000277A294B1B6BC3F34623013307EE903A34
:100F1000F8EE677AC7EE276AFCEEE67A17EE900ADB
:100F20005DF8044B704707EE100AF8EE476A9FED34
:100F3000236A86EE267A1C4B1B6BC3F3080306EE6E
:100F4000903AF8EE666A9FED1A6A67EE867A76EE58
:100F5000A77AF7EE006A77EEA67A27EE277AD0E72F
:100F600007EE100AF8EE476A9FED136A86EE267ABE
:100F70000D4B1B6BC3F3080306EE903AF8EE666A5E
:100F80009FED0B6A67EE867A76EEA77AF7EE006A37
:100F900077EEA67A27EE277AB3E709487047094823
:100FA00070470248704700BF004402580090D003C9
:100FB000000000390024744C0024744A20BCBE4B4D
:100FC00040787D0100093D00002800F0328170B5B5
:100FD0000D4604469B4B1B6803F00F038B420BD25C
:100FE000984A136823F00F030B431360136803F050
:100FF0000F038B4240F01F81236813F0040F0CD0C5
:101000002269914B9B6903F070039A4205D98E497E
:101010008B6923F070031A438A61236813F0080F69
:101020000CD06269884BDB6903F070039A4205D9E2
:101030008549CB6923F070031A43CA61236813F012
:10104000100F0CD0A269804BDB6903F4E0639A4275
:1010500005D97D49CB6923F4E0631A43CA6123684B
:1010600013F0200F0CD0E269774B1B6A03F070037A
:101070009A4205D974490B6A23F070031A430A6235
:10108000236813F0020F0CD0E2686F4B9B6903F0EA
:101090000F039A4205D96C498B6923F00F031A4359
:1010A0008A61236813F0010F41D0674A936923F4E2
:1010B0007063A1680B4393616368022B0AD0032B12
:1010C00027D0012B2CD0604A126812F0040F06D1F1
:1010D0000120ADE0126812F4003F00F0AE805A49E2
:1010E0000A6922F0070213430B6100F0CBFC0646AD
:1010F000554B1B6903F038036268B3EBC20F16D07F
:1011000000F0C0FC801B41F288339842F0D90320E4
:101110008EE04D4A126812F0007FE0D1012087E096
:10112000494A126812F4807FD9D1012080E02368F7
:1011300013F0020F0CD0E268434B9B6903F00F03DE
:101140009A4205D240498B6923F00F031A438A6102
:101150003C4B1B6803F00F03AB420AD9394A1368B2
:1011600023F00F032B431360136803F00F03AB420C
:1011700065D1236813F0040F0CD02269324B9B69B0
:1011800003F070039A4205D22F498B6923F0700354
:101190001A438A61236813F0080F0CD062692A4B46
:1011A000DB6903F070039A4205D22749CB6923F02B
:1011B00070031A43CA61236813F0100F0CD0A269A0
:1011C000214BDB6903F4E0639A4205D21E49CB69E7
:1011D00023F4E0631A43CA61236813F0200F0CD094
:1011E000E269194B1B6A03F070039A4205D2164953
:1011F0000B6A23F070031A430A62FFF7E9FD1249F4
:101200008B69C3F30323114AD35C03F01F03D84057
:101210008B6903F00F03D35C03F01F0320FA03F381
:101220000B4A13600B4B18600B4B186800F0C8FB9F
:1012300070BD012070470120FAE70120F8E7012086
:10124000F6E700BF00200052004402582C39000885
:10125000080000200C0000200400002008B5FFF763
:10126000B7FD0B4A9369C3F303230A49CB5C03F030
:101270001F0320FA03F3926902F00F02885C00F06A
:101280001F0023FA00F0044A1060044A136008BDEE
:10129000004402582C390008080000200C000020EF
:1012A00008B5FFF7DBFF054BDB69C3F30213044A04
:1012B000D35C03F01F03D84008BD00BF00440258B0
:1012C0002C39000808B5FFF7C9FF054BDB69C3F3EC
:1012D0000223044AD35C03F01F03D84008BD00BFBB
:1012E000004402582C39000808B5FFF7B7FF054B3A
:1012F0001B6AC3F30213044AD35C03F01F03D840F4
:1013000008BD00BF004402582C39000810B4794BC6
:101310009A6A9C6AC4F3053CD96AC1F30011DB6B7D
:10132000C3F3CC0301FB03F314F47C3F00F0DD8036
:1013300002F0030207EE903AF8EE677A012A4BD0EA
:10134000022A00F09880002A40F0B280694B1B68A6
:1013500013F0200F23D067490A68C2F3C102664B1D
:10136000D34007EE103AF8EE476A07EE10CAB8EE1F
:10137000476A86EE867A8B6BC3F3080306EE903AD3
:10138000F8EE666A9FED5D6A67EE867A76EEA77A7A
:10139000F7EE006A77EEA67A27EE277A38E007EEB6
:1013A00010CAF8EE476A9FED566A86EE267A514BD0
:1013B0009B6BC3F3080306EE903AF8EE666A9FED66
:1013C0004F6A67EE867A76EEA77AF7EE006A77EED6
:1013D000A67A27EE277A1BE007EE10CAF8EE476AD6
:1013E0009FED486A86EE267A424B9B6BC3F3080357
:1013F00006EE903AF8EE666A9FED406A67EE867AEE
:1014000076EEA77AF7EE006A77EEA67A27EE277ACD
:10141000384A936BC3F3462307EE903AF8EE677AA7
:10142000F7EE006A77EEA67A87EE276ABCEEC66A08
:1014300080ED006A936BC3F3064307EE903AF8EE33
:10144000677A77EEA67A87EE276ABCEEC66A80EDE9
:10145000016A936BC3F3066307EE903AF8EE677A7E
:1014600077EEA67AC7EE276AFCEEE66AC0ED026A5E
:101470005DF8044B704707EE10CAF8EE476A9FED1F
:10148000226A86EE267A1B4B9B6BC3F3080306EE9B
:10149000903AF8EE666A9FED196A67EE867A76EE04
:1014A000A77AF7EE006A77EEA67A27EE277AAFE7FB
:1014B00007EE10CAF8EE476A9FED126A86EE267AAA
:1014C0000C4B9B6BC3F3080306EE903AF8EE666A8A
:1014D0009FED0A6A67EE867A76EEA77AF7EE006AE3
:1014E00077EEA67A27EE277A92E70023036043601F
:1014F0008360BDE7004402580090D003000000392B
:101500000024744C0024744A20BCBE4B10B4794BA8
:101510009A6A9C6AC4F3055CD96AC1F300215B6CCA
:10152000C3F3CC0301FB03F314F07C7F00F0DD80F8
:1015300002F0030207EE903AF8EE677A012A4BD0E8
:10154000022A00F09880002A40F0B280694B1B68A4
:1015500013F0200F23D067490A68C2F3C102664B1B
:10156000D34007EE103AF8EE476A07EE10CAB8EE1D
:10157000476A86EE867A0B6CC3F3080306EE903A50
:10158000F8EE666A9FED5D6A67EE867A76EEA77A78
:10159000F7EE006A77EEA67A27EE277A38E007EEB4
:1015A00010CAF8EE476A9FED566A86EE267A514BCE
:1015B0001B6CC3F3080306EE903AF8EE666A9FEDE3
:1015C0004F6A67EE867A76EEA77AF7EE006A77EED4
:1015D000A67A27EE277A1BE007EE10CAF8EE476AD4
:1015E0009FED486A86EE267A424B1B6CC3F30803D4
:1015F00006EE903AF8EE666A9FED406A67EE867AEC
:1016000076EEA77AF7EE006A77EEA67A27EE277ACB
:10161000384A136CC3F3462307EE903AF8EE677A24
:10162000F7EE006A77EEA67A87EE276ABCEEC66A06
:1016300080ED006A136CC3F3064307EE903AF8EEB0
:10164000677A77EEA67A87EE276ABCEEC66A80EDE7
:10165000016A136CC3F3066307EE903AF8EE677AFB
:1016600077EEA67AC7EE276AFCEEE66AC0ED026A5C
:101670005DF8044B704707EE10CAF8EE476A9FED1D
:10168000226A86EE267A1B4B1B6CC3F3080306EE18
:10169000903AF8EE666A9FED196A67EE867A76EE02
:1016A000A77AF7EE006A77EEA67A27EE277AAFE7F9
:1016B00007EE10CAF8EE476A9FED126A86EE267AA8
:1016C0000C4B1B6CC3F3080306EE903AF8EE666A07
:1016D0009FED0A6A67EE867A76EEA77AF7EE006AE1
:1016E00077EEA67A27EE277A92E70023036043601D
:1016F0008360BDE7004402580090D0030000003929
:101700000024744C0024744A20BCBE4BF0B583B056
:1017100000236BE085685E000324B44025EA0405DD
:10172000CC68B4402C438460456825EA0C054C68BD
:10173000C4F300149C402C43446069E0DD08083584
:1017400050F8254003F0070C4FEA8C0C4FF00F0EB9
:101750000EFA0CFE24EA0E0E0C6904FA0CF444EAAC
:101760000E0440F825406BE0092400E0002404FA50
:101770000EF42C430CF1020C694D45F82C404FF04F
:10178000B0442568D44325EA02064F6817F4801F49
:1017900001D042EA05064FF0B0452E606D6804EABC
:1017A00005064F6817F4001F01D042EA05064FF006
:1017B000B0456E60D5F8845004EA05064F6817F40A
:1017C000003F01D042EA05064FF0B045C5F88460FD
:1017D000D5F880502C404E6816F4803F01D042EA84
:1017E00005044FF0B042C2F8804001330A6832FA73
:1017F00003F400F092804FF0010C0CFA03FC1CEA99
:101800000202F2D04C6804F00304013C012C81D99F
:101810004C6804F00304032C0CD0C4685D004FF046
:10182000030C0CFA05FC24EA0C0C8C68AC4044EA6E
:101830000C04C4604C6804F00304022C3FF47EAF37
:1018400004684FEA430E4FF0030C0CFA0EFC24EA36
:101850000C0C4C6804F0030404FA0EF444EA0C0483
:1018600004604C6814F4403FBFD02E4CD4F8F450C0
:1018700045F00205C4F8F450D4F8F44004F0020432
:101880000194019C4FEA930C0CF10205244C54F88E
:10189000255003F0030E4FEA8E0E0F2404FA0EF4C7
:1018A00025EA0405204CA0423FF460AF04F58064B3
:1018B000A04222D004F58064A04220D004F58064C8
:1018C000A0421ED004F58064A0421CD004F58064C0
:1018D000A0421AD004F58064A04218D004F58064B8
:1018E000A04216D004F58064A04214D004F58064B0
:1018F000A0423FF439AF0A2439E7012437E7022434
:1019000035E7032433E7042431E705242FE70624D1
:101910002DE707242BE7082429E703B0F0BD00BF1B
:1019200000040058004402580000025838B504462C
:10193000224BDB6803F00703062B07D01F4BDB6845
:1019400003F03F03834236D0012038BD1B4AD368E1
:1019500023F03F030343D36000F094F80546174B90
:101960005B6813F4005F07D100F08CF8431BB3F5FC
:101970007A7FF4D90120E8E72E2C18BF1E2C08D05E
:101980002D2C14BF002301231D2C02D00BB90020E5
:10199000DBE700F077F80446084BDB6813F4803F80
:1019A00007D100F06FF8001BB0F57A7FF4D9012061
:1019B000CBE70020C9E70020C7E700BF0048025876
:1019C000104B1B780BB90120704710B504464FF43B
:1019D0007A70B0FBF3F30C4A1068B0FBF3F0FEF73B
:1019E0008BFE68B90F2C01D901200AE000222146A4
:1019F0004FF0FF30FEF770FE044B1C60002000E04B
:101A0000012010BD000000200C0000200400002078
:101A100010B50320FEF74EFEFFF7DAF90F498B6988
:101A2000C3F303230E4AD35C03F01F03D8408B6932
:101A300003F00F03D35C03F01F0320FA03F3094AFA
:101A40001360094B18600020FFF7BAFF10B10124A2
:101A5000204610BD0446FEF7ADFDF9E700440258EC
:101A60002C390008080000200C000020034B1B78D4
:101A7000034A11680B441360704700BF0000002048
:101A80001C010020014B1868704700BF1C0100209A
:101A900038B50446FFF7F6FF0546B4F1FF3F02D024
:101AA000044B1B781C44FFF7EDFF401BA042FAD308
:101AB00038BD00BF00000020014B1868000C7047C3
:101AC0000010005C026852E8003F23F4907342E883
:101AD00000310029F6D1026802F1080353E8001F23
:101AE0000D4B0B40083242E800310029F3D1C36EA0
:101AF000012B06D02023C0F88C300023C366436737
:101B00007047026852E8003F23F0100342E80031BA
:101B10000029F6D1EEE700BFFEFFFFEF70B586B0FB
:101B2000044683680269134342691343C26913433D
:101B300001680868884A02401A430A6022685368AC
:101B400023F44053E1680B435360A1692268834B3F
:101B50009A4201D0236A19439068814B03400B439A
:101B600093602268D36A23F00F03616A0B43D36248
:101B700023687C4A934221D07B4A934200F08C80B8
:101B80007A4A934200F0A280794A934200F0B580ED
:101B9000784A934200F0C880774A934200F0F4807C
:101BA000764A934200F01981754A934200F02C81E5
:101BB0006A4A934200F03F8180223BE0714A526DB5
:101BC00002F03802282A34D8DFE812F02900330066
:101BD0003300330033003300330033004D01330052
:101BE0003300330033003300330033002B00330065
:101BF0003300330033003300330033002D00330053
:101C00003300330033003300330033002F00330040
:101C1000330033003300330033003300310001223E
:101C200008E0082206E0102204E0202202E0402220
:101C300000E0802249498B4200F02781E069B0F53D
:101C4000004F00F0A781202A00F2FF81202A00F235
:101C50004982DFE812F016021C02470247021F0207
:101C6000470247024702240247024702470247024F
:101C7000470247024702290247024702470247023A
:101C8000470247024702470247024702470247020C
:101C900047024702470235023A4A526D02F00702F4
:101CA000052A11D8DFE812F00600E10008000A005A
:101CB0000C000E000022BDE70822BBE71022B9E7A6
:101CC0002022B7E74022B5E78022B3E72D4A526DC4
:101CD00002F00702052A0ED8DFE802F003C9050763
:101CE000090B0022A6E70822A4E71022A2E720227F
:101CF000A0E740229EE780229CE7224A526D02F034
:101D00000702052A0ED8DFE802F003B40507090B25
:101D100000228FE708228DE710228BE7202289E737
:101D2000402287E7802285E7164A526D02F00702BB
:101D3000052A0ED8DFE802F0039F0507090B0022F1
:101D400078E7082276E7102274E7202272E7402223
:101D500070E780226EE700BFF369FFCF000C0058E8
:101D6000FFF4FF1100100140004400400048004013
:101D7000004C00400050004000140140007800403A
:101D8000007C0040004402587D4A526D02F0380247
:101D9000282A20D8DFE802F0151F1F1F1F1F1F1F52
:101DA000711F1F1F1F1F1F1F171F1F1F1F1F1F1FF9
:101DB000191F1F1F1F1F1F1F1B1F1F1F1F1F1F1F3D
:101DC0001D00012236E7082234E7102232E72022E4
:101DD00030E740222EE780222CE7694A526D02F05C
:101DE0000702052A0ED8DFE802F0034A0507090BAF
:101DF00000221FE708221DE710221BE7202219E717
:101E0000402217E7802215E75D4A526D02F0070273
:101E1000052A0ED8DFE802F003350507090B00227A
:101E200008E7082206E7102204E7202202E7402202
:101E300000E78022FEE602F50E32926D02F0070204
:101E4000052A0ED8DFE802F0031F0507090B02225E
:101E5000F0E60822EEE61022ECE62022EAE6402236
:101E6000E8E68022E6E60422E4E60422E2E6042232
:101E7000E0E60422DEE60422DCE60422DAE60422BE
:101E8000D8E60422D6E60422D4E6202A27D8022A5D
:101E9000C0F01A81023A1E2A00F21881DFE812F01F
:101EA0005000160156001601160116015B001601BE
:101EB0001601160116011601160116016000160121
:101EC000160116011601160116011601160116015A
:101ED0001601160116011601160116016C00402AA2
:101EE0002CD14FF40040626A264B33F81220B0FB2D
:101EF000F2F3656805EB4501994200F2E980B3EB26
:101F0000053F00F2E780002633463146FEF718FA17
:101F1000090241EA106100026B08C0182A463346E4
:101F200041F10001FEF70CFAA0F54072164B9A42FF
:101F300000F2D2802368D8603046D4E00120D2E09D
:101F4000FFF7D2F90028CED10020CCE003A8FFF79C
:101F5000DDF90498F6E76846FFF7D8FA0198F1E74B
:101F6000074B1B6813F0200F08D0054B1B68C3F309
:101F7000C1030648D840B6E70548B4E70348B2E7CE
:101F80000044025814390008FFFC0F000090D003F1
:101F900000093D00202A15D8202A00F29F80DFE8A2
:101FA00002F031379D9D3A9D9D9D3F9D9D9D9D9D3C
:101FB0009D9D449D9D9D9D9D9D9D9D9D9D9D9D9DAA
:101FC0009D9D5000402A1BD1626A4D4B33F8123060
:101FD000B0FBF3F06268530803EB4003B3FBF2F38A
:101FE000A3F110014FF6EF72914279D89AB222F024
:101FF0000F02C3F3420313432268D360002072E050
:10200000012070E0FFF74CF90028DDD100206AE0E4
:10201000FFF758F9F8E703A8FFF778F90498F3E712
:102020006846FFF773FA0198EEE7364B1B6813F02A
:10203000200F08D0334B1B68C3F3C1033248D8408C
:10204000C2E73248C0E73048BEE7402A17D14FF414
:102050000040626A2A4B33F81230B0FBF3F0636839
:1020600000EB5300B0FBF3F0A0F110024FF6EF735A
:102070009A4242D8236880B2D860002033E0012021
:1020800031E0FFF70DF90028E3D100202BE0FFF746
:1020900019F9F8E703A8FFF739F90498F3E7684658
:1020A000FFF734FA0198EEE7164B1B6813F0200F88
:1020B00008D0144B1B68C3F3C1031348D840C8E7CA
:1020C0001248C6E71048C4E701200CE001200AE0EE
:1020D000012008E0012006E0012004E0012002E0E8
:1020E000012000E001200123A4F86A30A4F8683040
:1020F00000236367A36706B070BD0120F3E700BF4C
:1021000014390008004402580090D00300093D0033
:10211000836A13F0080F06D00268536823F4004363
:10212000816B0B435360836A13F0010F06D0026882
:10213000536823F40033C16A0B435360836A13F07E
:10214000020F06D00268536823F48033016B0B43FF
:102150005360836A13F0040F06D00268536823F4B7
:102160008023416B0B435360836A13F0100F06D03A
:102170000268936823F48053C16B0B439360836AB6
:1021800013F0200F06D00268936823F40053016C0B
:102190000B439360836A13F0400F0AD002685368C0
:1021A00023F48013416C0B435360436CB3F5801FE1
:1021B0000BD0836A13F0800F06D00268536823F4B3
:1021C0000023C16C0B43536070470268536823F4CB
:1021D000C003816C0B435360EBE72DE9F8430546E0
:1021E0000E4617469946DDF820802B68DC6936EAF2
:1021F00004040CBF01240024BC423AD1B8F1FF3FD3
:10220000F3D0FFF73FFCA0EB0900404534D8B8F10C
:10221000000F33D02B681A6812F0040FE5D0B6F126
:10222000400218BF0122802EDFD0002ADDD0DA69FB
:1022300012F0080F11D1DA6912F4006FD5D04FF403
:1022400000621A622846FFF73DFC2023C5F8903053
:10225000002385F8843003200CE008241C62284603
:10226000FFF730FCC5F89040002385F8843001204A
:1022700000E00020BDE8F8830320FBE70320F9E736
:102280002DE9F04182B01E46D0F88830202B5BD17A
:1022900004460D469046002A18BF002901D10120AE
:1022A00053E00023C0F890302123C0F88830FFF7B6
:1022B000E9FB0746A4F85480A4F85680A368B3F558
:1022C000805F02D04FF0000816E0236943B34FF05F
:1022D000000811E02023C4F88830032035E038F8E6
:1022E000023B2268C3F308039362B4F8562092B20B
:1022F000013A92B2A4F85620B4F856309BB293B18A
:1023000000963B46002280212046FFF766FF00280A
:10231000E0D1002DE3D015F8012B23689A62E4E7A1
:10232000A8460025E8E700963B46002240212046CB
:10233000FFF753FF18B92023C4F8883005E02023A5
:10234000C4F88830032000E0022002B0BDE8F0812C
:1023500030B583B004460023C0F89030FFF792FBFD
:1023600005462268126812F0080F10D123681B6816
:1023700013F0040F28D12023C4F88830C4F88C301F
:102380000020E066206784F8840003B030BD6FF061
:102390007E430093034600224FF400112046FFF7CE
:1023A0001CFF0028E2D0226852E8003F23F080039F
:1023B00042E800310029F6D12023C4F888300023F8
:1023C00084F884300320E0E76FF07E4300932B46CF
:1023D00000224FF480012046FFF7FFFE0028CAD0FC
:1023E000226852E8003F23F4907342E8003100294C
:1023F000F6D1226802F1080353E8003F23F00103FD
:10240000083242E800310029F3D12023C4F88C308F
:10241000002384F884300320B7E778B310B504466E
:10242000D0F888300BB32423C4F8883022681368AE
:1024300023F001031360A36AE3B92046FFF76EFBA4
:10244000012811D02268536823F490435360226816
:10245000936823F02A0393602268136843F0010312
:1024600013602046FFF774FF10BD80F88430FEF73C
:10247000B3F8D8E72046FFF74BFEDEE701207047B0
:10248000374BD3F8882042F47002C3F888201A69C9
:1024900042F010021A61334B1B6803F00F03062B46
:1024A00006D8304A136823F00F0343F00703136084
:1024B0002D4B1A6842F001021A6000221A61196855
:1024C0002A4A0A401A60274B1B6813F0080F06D0EF
:1024D000244A136823F00F0343F007031360224BD1
:1024E00000229A61DA611A62214999622149D9620E
:1024F000214919635A639963DA6319645A64196844
:1025000021F4802119601A664FF0B042D2F8E4300D
:1025100043F48043C2F8E430184B1B686FF30F0399
:10252000B3F1005F03D2164B0122C3F808210E4B12
:10253000D3F8D43013F4805F10D10B4BD3F8D420F0
:1025400042F48052C3F8D4200E4A43F2D201116003
:10255000D3F8D42022F48052C3F8D420704700BFAF
:1025600000ED00E000200052004402587FEDF6EA42
:10257000000202020000FF01800201010010005C65
:102580000080005100400052054AD36823F0020346
:10259000D360034B5B6813F4005FFAD0704700BF51
:1025A0000048025810B503460C4A0D490D48006812
:1025B00040B10C4800680344521A934206D8094AB5
:1025C000136010BD0748084C0460F2E700F0AEFA53
:1025D0000C2303604FF0FF30F3E700BF0000022040
:1025E00000040000200100207002002070B50C469D
:1025F0001646002506E0AFF30080214601F8010BE6
:1026000001350C46B542F6DB304670BD4FF0FF3069
:1026100070474FF400534B60002070470120704713
:1026200000207047DFF838D0FFF7AEFFFFF728FF34
:102630000C480D490D4A002302E0D458C45004331D
:10264000C4188C42F9D30A4A0A4C002301E01360F3
:102650000432A242FBD300F06FFAFDF761FF70472E
:1026600000000220000000206C00002080390008DB
:102670006C00002070020020FEE70000002310B56F
:102680000446C0E90033C0E90433836081814366B6
:10269000C2818361194608225C3000F0F9F90D4BC4
:1026A00063620D4BA3620D4BE3620D4B23630D4B35
:1026B00024629C4206D003F16802944202D0D033D7
:1026C0009C4205D104F15800BDE8104000F058BA12
:1026D00010BD00BFE5280008072900083F290008B1
:1026E0006529000824010020024A0349034800F03C
:1026F0006BB800BF1000002021340008200000202B
:1027000041680C4B994210B5044601D000F088FE98
:10271000A168094B994202D0204600F081FEE16891
:10272000064B994204D02046BDE8104000F078BE28
:1027300010BD00BF240100208C010020F401002006
:102740000C4B0D4A0D4810B504211A600022FFF70A
:1027500095FF0A4B01221C46092103F16800FFF78F
:102760008DFF04F1D0000222BDE810401221FFF7D6
:1027700085BF00BF5C020020E9260008240100207C
:10278000014800F0FEB900BF65020020014800F0DA
:10279000F9B900BF6502002010B50446FFF7F0FF4D
:1027A000236A1BB1BDE81040FFF7F0BF044B236262
:1027B000044B1B68002BF5D1FFF7C2FFF2E700BF07
:1027C000012700085C0200202DE9F84307468846EF
:1027D00014460026D4E90195B9F1010905D524680C
:1027E000002CF7D13046BDE8F883AB89012B07D91F
:1027F000B5F90E30013303D029463846C0470643A9
:102800006835E9E70FB407B5064904AB086853F823
:10281000042B8168019300F0D9FA03B05DF804EB52
:1028200004B070471C000020036A70B58468054638
:102830000E460BB9FFF7B0FF636EDB0705D4A38923
:10284000980502D4A06D00F09CF9A389190702D560
:102850002369002B35D12146284600F0C5F880B306
:102860004FF0FF35636EDA0705D4A3899B0502D4C8
:10287000A06D00F087F9284670BD002B04DAA2692C
:10288000934217DB0A2915D023685A1C226019705D
:10289000A36816F8011F013BA3600029EDD1002BAE
:1028A00011DA22460A21284600F060F80130D7D01C
:1028B0000A25D7E72246284600F058F80130E7D12C
:1028C000CEE7013EE4E723685A1C22600A221A7010
:1028D000EEE70000024B01461868FFF7A5BF00BFF6
:1028E0001C00002010B50C46B1F90E1000F0FAF8EB
:1028F0000028ABBF636DA3891B1823F48053ACBFC2
:102900006365A38110BD2DE9F0411F468B89DB056E
:1029100005460C46164605D5B1F90E1002230022D5
:1029200000F0CEF8A389B4F90E1023F48053A381EC
:1029300032463B462846BDE8F04100F0E5B810B508
:102940000C46B1F90E1000F0BBF8B4F90C30421C83
:102950000BBF23F4805343F48053A381A38118BF9A
:10296000606510BDB1F90E1000F09AB8F8B50E46CA
:102970001446054618B1036A0BB9FFF70DFFA369AA
:10298000A360A3891A0701D5236943B921462846C4
:1029900000F02AF818B14FF0FF373846F8BD236829
:1029A0002269981A6369F6B28342374605DC2146EC
:1029B000284600F035FD0028EDD1A368013BA36057
:1029C00023685A1C22601E706269431C9A4204D01C
:1029D000A389DB07E1D50A2EDFD12146284600F086
:1029E0001FFD0028D9D0D6E738B5284B0546186812
:1029F0000C4618B1036A0BB9FFF7CEFEB4F90C30E0
:102A00001A0721D4D80607D409222A6043F04003CC
:102A1000A3814FF0FF3030E0590712D5616B41B10F
:102A200004F14403994202D0284600F0ADF8002397
:102A300063630022B4F90C3062602269226023F0E3
:102A4000240343F00803A38122693AB99A0501D50A
:102A5000180603D52146284600F02EFDB4F90C30A7
:102A600013F001020AD00022A26062695242A26100
:102A7000226942B913F08000C8D138BD990758BF08
:102A80006269A260F4E70020F7E700BF1C000020A5
:102A900002440346934200D1704703F8011BF9E753
:102AA00038B5064D0023044608462B60FFF7AEFDFF
:102AB000431C02D12B6803B1236038BD60020020A3
:102AC00038B5074D04460846114600222A601A46CA
:102AD000FFF7A6FD431C02D12B6803B1236038BD6C
:102AE0006002002038B5074D044608461146002212
:102AF0002A601A46FFF77AFD431C02D12B6803B106
:102B0000236038BD6002002038B5074D04460846F2
:102B1000114600222A601A46FDF772FC431C02D1BE
:102B20002B6803B1236038BD60020020014B186898
:102B3000704700BF1C00002070B50D4B0D4D5B1B96
:102B40009C100026A64209D100F09EFE0A4D0B4BB8
:102B50005B1B9C100026A64205D170BD55F8043BB6
:102B600098470136EEE755F8043B98470136F2E7FF
:102B70007839000878390008783900087C3900086D
:102B8000704770477047000038B50546002941D0AE
:102B900051F8043C0C1F002BB8BFE41800F0E0F81B
:102BA0001D4A136833B9636014602846BDE8384095
:102BB00000F0DCB8A34208D9206821188B4201BF7D
:102BC00019685B6809182160EDE71A465B680BB16C
:102BD000A342FAD911685018A0420BD120680144D1
:102BE000501883421160E0D118685B685360084454
:102BF0001060DAE702D90C232B60D6E72068211891
:102C00008B4204BF19685B68636004BF09182160C8
:102C10005460CAE738BD00BF6C02002070B50F4E8B
:102C20000C463168054611B900F0A2FC306021461F
:102C3000284600F09DFC431C03D14FF0FF34204692
:102C400070BDC41C24F00304A042F8D0211A284609
:102C500000F08EFC0130F2D1EFE700BF68020020E7
:102C60002DE9F843CD1C25F0030508350C2D38BFA0
:102C70000C25002D064601DBA94204D90C23336044
:102C80000020BDE8F883DFF8D48000F069F8D8F8B8
:102C900000301C4644BB29463046FFF7BFFF431CAB
:102CA000044658D1D8F800402746002F43D1002CC5
:102CB0004BD023683946304604EB030900F058FC3A
:102CC000814542D121686D1A29463046FFF7A6FF9B
:102CD00001303AD023682B442360D8F800305A687A
:102CE00062BBC8F800700FE02268521B20D40B2A88
:102CF00017D96119A342256018BF5960636808BFDE
:102D0000C8F8001062514B60304600F02FF804F113
:102D10000B00231D20F00700C21A1CBF1B1AA35072
:102D2000AFE76268A3420CBFC8F800205A60EBE727
:102D300023466468AEE73C467F68B6E71A465B68A0
:102D4000A342FBD100235360DEE70C2333603046FF
:102D500000F00CF894E70560D6E700BF6C02002095
:102D60000148FFF70EBF00BF640200200148FFF7D3
:102D700009BF00BF640200209368013B002B10B420
:102D8000936008DA9469A34201DB0A2903D15DF854
:102D9000044BFFF7EBBD1368581C10601970084610
:102DA0005DF8044B7047F8B506460F461446D51833
:102DB000AC4201D1002007E014F8011B3A4630462E
:102DC000FFF7DAFF431CF3D1F8BD00002DE9F0470F
:102DD0000D469CB014461F46064618B1036A0BB94F
:102DE000FFF7DAFC6B6ED90705D4AB899A0502D4DC
:102DF000A86DFFF7C6FEAB891B0701D52B699BB9F0
:102E000029463046FFF7F0FD70B16B6EDC0704D544
:102E10004FF0FF301CB0BDE8F087AB899805F7D4C0
:102E2000A86DFFF7AFFEF3E70023099320238DF889
:102E30002930039730236A4F8DF82A304FF001086C
:102E40002346994613F8012B0AB1252AF9D1B9EB8B
:102E5000040A0BD05346224629463046FFF7A3FF0B
:102E6000013000F0A480099A5244099299F8003088
:102E7000002B00F09C8000234FF0FF32CDE90523AA
:102E800009F10109049307938DF853301A934C46C6
:102E9000534814F8011B0522FDF702FA049BD0B930
:102EA000D90644BF20228DF853201A0744BF2B2295
:102EB0008DF8532099F800202A2A13D0079A4C46FF
:102EC00000204FF00A0C214611F8013B303B092B42
:102ED00049D968B913E0C01B08FA00F01843049000
:102EE000A146D4E7039A111D12680391002A01DB61
:102EF000079204E0524243F00203079204932378BE
:102F00002E2B0AD163782A2B32D1039B1A1D1B6802
:102F1000039243EAE37302340593DFF8D4902178F7
:102F200003224846FDF7BCF938B1049BA0EB090029
:102F30004022824013430134049314F8011B2948B2
:102F40008DF828100622FDF7ABF900283ED0264860
:102F500018BB039B073323F0070308330393099B34
:102F6000034409936CE70CFB02320C460120AAE7EC
:102F700000230134059319464FF00A0C204610F83F
:102F8000012B303A092A03D9002BC6D00591C4E79A
:102F90000CFB012104460123F0E703AB00932A4612
:102FA000124B04A93046AFF30080431CD7D16B6E9F
:102FB000D90705D4AB899A0502D4A86DFFF7E2FDC5
:102FC000AB895B063FF524AF099823E703AB009379
:102FD0002A46064B04A9304600F07AF8E5E700BF20
:102FE0003C3900084639000800000000A72D000801
:102FF000423900082DE9F047164698468A680B6961
:10300000DDF820909342B8BF1346336091F8432017
:1030100007460C460AB1013333602368990642BF64
:10302000336802333360256815F0060506D104F1D4
:10303000190AE36832689B1AAB4226DC94F84330E5
:103040002268003B18BF012392062BD404F14302EF
:1030500041463846C84701301ED02368226903F034
:103060000603042B02BFE5683368ED1AA3680CBFA2
:1030700025EAE57500259342C4BF9B1AED1800268A
:103080001A34B5421AD1002008E0012352464146C5
:103090003846C847013003D14FF0FF30BDE8F08714
:1030A0000135C6E7E1185A1C302081F8430022445C
:1030B00094F8451082F843100233C7E701232246F3
:1030C00041463846C8470130E6D00136D9E700000E
:1030D0002DE9F0430D7E85B0782D90460C9E074675
:1030E0000C46994601F1430207D8622D0AD8002DFB
:1030F00000F0D780582D00F0BC8004F1420684F81F
:1031000042503BE0A5F16303152BF6D801A151F81D
:1031100023F000BF6D31000881310008FB3000084A
:10312000FB300008FB300008FB300008813100084C
:10313000FB300008FB300008FB300008FB300008C3
:1031400089320008AB3100083B320008FB30000830
:10315000FB300008AB320008FB300008AB31000840
:10316000FB300008FB3000084332000833681A1DAA
:103170001B68326004F1420684F842300123A1E06A
:1031800033682068191D3160060601D51D6803E00B
:103190004506FBD5B3F90050002D03DA2D236D420F
:1031A00084F843305B480A2311E02168336808063D
:1031B00053F8045B02D4490648BFADB23360237EA6
:1031C00054486F2B5CD10823002184F843106668B3
:1031D000A660002E05DB21682E4321F0040121604A
:1031E00050D01646B5FBF3F103FB115C10F80CC090
:1031F00006F801CDAC4663450D46F3D9082B0BD13B
:103200002368DB0708D5236961689942DEBF302354
:1032100006F8013C06F1FF36921B2261CDF80090C2
:10322000434603AA21463846FFF7E4FE01304ED15B
:103230004FF0FF3005B0BDE8F083236843F0200372
:1032400023603548782584F845502368316813F0A9
:10325000800F51F8045B03D113F0400F18BFADB2DB
:103260003160D90744BF43F0200323601DB1102310
:10327000AAE72848E7E7236823F020032360F6E75E
:103280000A23A1E71646B9E7336825686169181D66
:1032900030602E061B6801D5196002E06806FBD578
:1032A0001980002323611646B8E733681A1D32607F
:1032B0001E68626800213046FCF7F2FF08B1801BEF
:1032C000606063682361002384F84330A6E72369C4
:1032D000324641463846C8470130A9D023689B078B
:1032E00013D4E068039B9842B8BF1846A2E70123B5
:1032F000324641463846C847013099D00135E36827
:1033000003995B1AAB42F2DCEBE7002504F11906E6
:10331000F5E700BF4D3900085E390008B1F90C200F
:103320002DE9F041160705460C4651D44B68002B99
:1033300002DC0B6C002B49DDE66A002E46D0002330
:1033400012F480522F682B6031D0626DA389590727
:1033500005D56368D21A636B0BB1236CD21A0023B4
:10336000E66A216A2846B047421CB4F90C3006D1FF
:1033700029681D2946D8294ACA40D60742D50022C5
:103380006260D9042269226004D5421C01D12B68F5
:1033900003B96065616B2F60C1B104F144039942C8
:1033A00002D02846FFF7F0FB002363630EE0216A9A
:1033B00001232846B0470246501CC7D12B68002B7A
:1033C000C4D01D2B01D0162B1AD12F6000201EE077
:1033D0000F69002FFAD093070E6808BF4B690F6082
:1033E00018BF0023A6EB07088B60B8F1000FEDDDD6
:1033F000216AA66A43463A462846B047002808DCB8
:10340000B4F90C3043F04003A3814FF0FF30BDE826
:10341000F0810744A8EB0008E7E700BF0100402067
:1034200038B50B6905460C4613B90025284638BD4A
:1034300018B1036A0BB9FFF7AFF9B4F90C30002BE0
:10344000F3D0626ED00704D4990502D4A06DFFF7C3
:1034500098FB28462146FFF761FF636EDA070546B1
:10346000E4D4A3899B05E1D4A06DFFF78BFBDDE7D6
:1034700070B50C46B1F90E10002996B015461E46DF
:103480000ADAA18911F0800113D14FF48062002083
:1034900031602A6016B070BD6A4600F047F8002817
:1034A000EFDB019901F47041A1F5005359425941F4
:1034B000EBE700214022EAE78B8973B59E070546BA
:1034C0000C4607D504F147032360236101236361A0
:1034D00002B070BD01AB6A46FFF7CAFF009E2846E6
:1034E0003146FFF7BDFBB4F90C3038B99A05EFD47B
:1034F00023F0030343F00203A381E3E743F08003D7
:10350000A381019B2060C4E90406002BE0D0B4F93C
:103510000E10284600F01CF80028D9D0A38923F00B
:10352000030343F00103A381D2E7000038B5074D40
:1035300000230446084611462B60FFF76AF8431C37
:1035400002D12B6803B1236038BD00BF60020020A8
:1035500038B5064D0023044608462B60FFF75EF899
:10356000431C02D12B6803B1236038BD60020020E8
:1035700038B5064D0023044608462B60FFF712F8C5
:10358000431C02D12B6803B1236038BD60020020C8
:103590002DE9F047089D0F4604468C46002B48D184
:1035A0008A42164661D9B2FA82F34BB1C3F12002C6
:1035B00001FA03FC20FA02F29E4042EA0C0C9C4005
:1035C0004FEA164EB7B2BCFBFEF1220C0EFB11CC3B
:1035D00042EA0C4201FB07F0904209D9B21801F10E
:1035E000FF3C80F0EE80904240F2EB8002393244A2
:1035F000121AA4B2B2FBFEF00EFB102244EA0244FF
:1036000000FB07F7A74209D9341900F1FF3280F017
:10361000DA80A74240F2D7803444023840EA0140C1
:10362000E41B00211DB1DC400023C5E90043BDE8D7
:10363000F0878B4206D90DB1C5E90001002108468B
:10364000BDE8F087B3FA83F1002948D1BB4202D329
:10365000824200F20781841A67EB0302012094463C
:10366000002DE4D0C5E9004CE1E7002A00F092808B
:10367000B2FA82F3002B40F0A8808A1A4FEA164E65
:103680001FFA86FC0121200CB2FBFEF70EFB17226D
:1036900040EA02420CFB07F0904207D9B21807F14A
:1036A000FF3802D2904200F2E2804746121AA4B2DA
:1036B000B2FBFEF00EFB102244EA02440CFB00FCBD
:1036C000A44507D9341900F1FF3202D2A44500F213
:1036D000CB801046A4EB0C0440EA0740A2E7C1F1FE
:1036E00020068B4022FA06FC4CEA030C07FA01F490
:1036F00020FA06F3F7404FEA1C49234300FA01F889
:103700001FFA8CFEB7FBF9F01C0C09FB107744EA9A
:10371000074400FB0EF7A74202FA01F20AD91CEB9C
:10372000040400F1FF3A80F09B80A74240F29880A9
:1037300002386444E41B9FB2B4FBF9F309FB134461
:1037400047EA044403FB0EFEA64509D91CEB04041A
:1037500003F1FF3780F08280A6457FD9023B6444A5
:1037600043EA0040A4EB0E04A0FB02E7BC42734610
:10377000B94663D360D05DB1B8EB030264EB0904D2
:1037800004FA06F622FA01F31E43CC40C5E90064B0
:1037900000214CE76208480842EAC1710B0C43EA79
:1037A00000438AB242EA0342B3FBF6F1E407B446AF
:1037B0003746B6461F23B0FBF6F0D21B41EA004164
:1037C00061E7614614E7104628E7C3F1200120FABB
:1037D00001F29E4027FA01F19F403A434FEA164E0C
:1037E0001FFA86FCB1FBFEF70EFB1710110C41EA25
:1037F000004107FB0CF8884504FA03F43AD9711824
:1038000007F1FF3001D288451FD8A1EB0801B1FBB9
:10381000FEF808FB0CF70EFB181192B242EA0142C7
:10382000BA422FD2B21808F1FF31C6D2BA42C4D27E
:10383000A8F102013244C0E7F0459CD2BEEB02037E
:1038400067EB0C070138B94695E7A6EB0808414439
:10385000B81EB1FBFEF808FB0CF7DCE73B467FE740
:10386000504667E70846FBE63444023832E7023F39
:1038700032441BE7A1EB08013846B1FBFEF808FB18
:103880000CF7C8E7414698E7F8B500BFF8BC08BC9C
:103890009E467047F8B500BFF8BC08BC9E4670470E
:1038A000434D37206176766961746F20E280942001
:1038B000696E206174746573612064617469206449
:1038C0006120434D342E2E2E0D000000434D372035
:1038D000726963657675746F3A2064697374616E9A
:1038E0007A61203D20256C7520636D0D0A00000073
:1038F0005B4442475D20706F6C6C3D256C75207297
:10390000656164793D256C7520646973743D256C2F
:10391000750D0A00010002000400060008000A00FC
:103920000C0010002000400080000001000000009A
:10393000010203040102030406070809232D302BAA
:103940002000686C4C0065666745464700303132A0
:1039500033343536373839414243444546003031F7
:103960003233343536373839616263646566000056
:0839700030C9FF7F01000000D7
:04397800DD03000863
:04397C00B503000887
:1039800001000000100000000090D0030090D00360
:10399000000000000300000024010020200000209F
:1039A00000000000240100208C010020F401002010
:1039B0000000000000000000000000000000000007
:1039C00000000000000000000000000000000000F7
:1039D00000000000000000000000000000000000E7
:0C39E000000000000000000000000000DB
:0400000508002625A4
:00000001FF
